{
	"contracts/Healthcare.sol": {
		"Healthcare": {
			"abi": [
				{
					"inputs": [],
					"stateMutability": "nonpayable",
					"type": "constructor"
				},
				{
					"anonymous": false,
					"inputs": [
						{
							"indexed": true,
							"internalType": "address",
							"name": "patient",
							"type": "address"
						},
						{
							"indexed": true,
							"internalType": "address",
							"name": "doctor",
							"type": "address"
						}
					],
					"name": "AccessGranted",
					"type": "event"
				},
				{
					"anonymous": false,
					"inputs": [
						{
							"indexed": true,
							"internalType": "address",
							"name": "doctor",
							"type": "address"
						}
					],
					"name": "DoctorVerified",
					"type": "event"
				},
				{
					"anonymous": false,
					"inputs": [
						{
							"indexed": true,
							"internalType": "address",
							"name": "patient",
							"type": "address"
						},
						{
							"indexed": false,
							"internalType": "string",
							"name": "ipfsHash",
							"type": "string"
						},
						{
							"indexed": true,
							"internalType": "address",
							"name": "doctor",
							"type": "address"
						}
					],
					"name": "MedicalRecordAdded",
					"type": "event"
				},
				{
					"anonymous": false,
					"inputs": [
						{
							"indexed": true,
							"internalType": "address",
							"name": "user",
							"type": "address"
						},
						{
							"indexed": false,
							"internalType": "enum Healthcare.Role",
							"name": "role",
							"type": "uint8"
						},
						{
							"indexed": false,
							"internalType": "string",
							"name": "ipfsHash",
							"type": "string"
						}
					],
					"name": "UserRegistered",
					"type": "event"
				},
				{
					"inputs": [
						{
							"internalType": "address",
							"name": "",
							"type": "address"
						},
						{
							"internalType": "uint256",
							"name": "",
							"type": "uint256"
						}
					],
					"name": "accessList",
					"outputs": [
						{
							"internalType": "address",
							"name": "",
							"type": "address"
						}
					],
					"stateMutability": "view",
					"type": "function"
				},
				{
					"inputs": [
						{
							"internalType": "address",
							"name": "patientAddress",
							"type": "address"
						},
						{
							"internalType": "string",
							"name": "ipfsHash",
							"type": "string"
						}
					],
					"name": "addMedicalRecord",
					"outputs": [],
					"stateMutability": "nonpayable",
					"type": "function"
				},
				{
					"inputs": [],
					"name": "admin",
					"outputs": [
						{
							"internalType": "address",
							"name": "",
							"type": "address"
						}
					],
					"stateMutability": "view",
					"type": "function"
				},
				{
					"inputs": [
						{
							"internalType": "address",
							"name": "patientAddress",
							"type": "address"
						}
					],
					"name": "getAccessList",
					"outputs": [
						{
							"internalType": "address[]",
							"name": "",
							"type": "address[]"
						}
					],
					"stateMutability": "view",
					"type": "function"
				},
				{
					"inputs": [
						{
							"internalType": "address",
							"name": "patientAddress",
							"type": "address"
						}
					],
					"name": "getMedicalRecords",
					"outputs": [
						{
							"components": [
								{
									"internalType": "string",
									"name": "ipfsHash",
									"type": "string"
								},
								{
									"internalType": "address",
									"name": "doctor",
									"type": "address"
								},
								{
									"internalType": "uint256",
									"name": "timestamp",
									"type": "uint256"
								}
							],
							"internalType": "struct Healthcare.MedicalRecord[]",
							"name": "",
							"type": "tuple[]"
						}
					],
					"stateMutability": "view",
					"type": "function"
				},
				{
					"inputs": [
						{
							"internalType": "address",
							"name": "userAddress",
							"type": "address"
						}
					],
					"name": "getUser",
					"outputs": [
						{
							"internalType": "string",
							"name": "fullName",
							"type": "string"
						},
						{
							"internalType": "string",
							"name": "email",
							"type": "string"
						},
						{
							"internalType": "enum Healthcare.Role",
							"name": "role",
							"type": "uint8"
						},
						{
							"internalType": "bool",
							"name": "isVerified",
							"type": "bool"
						},
						{
							"internalType": "string",
							"name": "ipfsHash",
							"type": "string"
						}
					],
					"stateMutability": "view",
					"type": "function"
				},
				{
					"inputs": [
						{
							"internalType": "address",
							"name": "doctorAddress",
							"type": "address"
						}
					],
					"name": "grantAccess",
					"outputs": [],
					"stateMutability": "nonpayable",
					"type": "function"
				},
				{
					"inputs": [
						{
							"internalType": "address",
							"name": "patientAddress",
							"type": "address"
						},
						{
							"internalType": "address",
							"name": "doctorAddress",
							"type": "address"
						}
					],
					"name": "hasAccess",
					"outputs": [
						{
							"internalType": "bool",
							"name": "",
							"type": "bool"
						}
					],
					"stateMutability": "view",
					"type": "function"
				},
				{
					"inputs": [
						{
							"internalType": "address",
							"name": "",
							"type": "address"
						},
						{
							"internalType": "uint256",
							"name": "",
							"type": "uint256"
						}
					],
					"name": "medicalRecords",
					"outputs": [
						{
							"internalType": "string",
							"name": "ipfsHash",
							"type": "string"
						},
						{
							"internalType": "address",
							"name": "doctor",
							"type": "address"
						},
						{
							"internalType": "uint256",
							"name": "timestamp",
							"type": "uint256"
						}
					],
					"stateMutability": "view",
					"type": "function"
				},
				{
					"inputs": [
						{
							"internalType": "string",
							"name": "fullName",
							"type": "string"
						},
						{
							"internalType": "string",
							"name": "email",
							"type": "string"
						},
						{
							"internalType": "enum Healthcare.Role",
							"name": "role",
							"type": "uint8"
						},
						{
							"internalType": "string",
							"name": "ipfsHash",
							"type": "string"
						}
					],
					"name": "register",
					"outputs": [],
					"stateMutability": "nonpayable",
					"type": "function"
				},
				{
					"inputs": [
						{
							"internalType": "address",
							"name": "",
							"type": "address"
						}
					],
					"name": "users",
					"outputs": [
						{
							"internalType": "enum Healthcare.Role",
							"name": "role",
							"type": "uint8"
						},
						{
							"internalType": "bool",
							"name": "isVerified",
							"type": "bool"
						},
						{
							"internalType": "string",
							"name": "ipfsHash",
							"type": "string"
						},
						{
							"internalType": "string",
							"name": "fullName",
							"type": "string"
						},
						{
							"internalType": "string",
							"name": "email",
							"type": "string"
						}
					],
					"stateMutability": "view",
					"type": "function"
				},
				{
					"inputs": [
						{
							"internalType": "address",
							"name": "doctorAddress",
							"type": "address"
						}
					],
					"name": "verifyDoctor",
					"outputs": [],
					"stateMutability": "nonpayable",
					"type": "function"
				}
			],
			"devdoc": {
				"kind": "dev",
				"methods": {},
				"version": 1
			},
			"evm": {
				"assembly": "    /* \"contracts/Healthcare.sol\":141:4465  contract Healthcare {... */\n  mstore(0x40, 0x80)\n    /* \"contracts/Healthcare.sol\":1402:1451  constructor() {... */\n  callvalue\n  dup1\n  iszero\n  tag_1\n  jumpi\n  revert(0x00, 0x00)\ntag_1:\n  pop\n    /* \"contracts/Healthcare.sol\":1434:1444  msg.sender */\n  caller\n    /* \"contracts/Healthcare.sol\":1426:1431  admin */\n  0x00\n  0x00\n    /* \"contracts/Healthcare.sol\":1426:1444  admin = msg.sender */\n  0x0100\n  exp\n  dup2\n  sload\n  dup2\n  0xffffffffffffffffffffffffffffffffffffffff\n  mul\n  not\n  and\n  swap1\n  dup4\n  0xffffffffffffffffffffffffffffffffffffffff\n  and\n  mul\n  or\n  swap1\n  sstore\n  pop\n    /* \"contracts/Healthcare.sol\":141:4465  contract Healthcare {... */\n  dataSize(sub_0)\n  dup1\n  dataOffset(sub_0)\n  0x00\n  codecopy\n  0x00\n  return\nstop\n\nsub_0: assembly {\n        /* \"contracts/Healthcare.sol\":141:4465  contract Healthcare {... */\n      mstore(0x40, 0x80)\n      callvalue\n      dup1\n      iszero\n      tag_1\n      jumpi\n      revert(0x00, 0x00)\n    tag_1:\n      pop\n      jumpi(tag_2, lt(calldatasize, 0x04))\n      shr(0xe0, calldataload(0x00))\n      dup1\n      0x80efcb3c\n      gt\n      tag_15\n      jumpi\n      dup1\n      0x80efcb3c\n      eq\n      tag_9\n      jumpi\n      dup1\n      0x97678a03\n      eq\n      tag_10\n      jumpi\n      dup1\n      0xa87430ba\n      eq\n      tag_11\n      jumpi\n      dup1\n      0xafd8297c\n      eq\n      tag_12\n      jumpi\n      dup1\n      0xd80cb05c\n      eq\n      tag_13\n      jumpi\n      dup1\n      0xf851a440\n      eq\n      tag_14\n      jumpi\n      jump(tag_2)\n    tag_15:\n      dup1\n      0x0ae5e739\n      eq\n      tag_3\n      jumpi\n      dup1\n      0x1709ef07\n      eq\n      tag_4\n      jumpi\n      dup1\n      0x3a9b131c\n      eq\n      tag_5\n      jumpi\n      dup1\n      0x68ce4afd\n      eq\n      tag_6\n      jumpi\n      dup1\n      0x6f77926b\n      eq\n      tag_7\n      jumpi\n      dup1\n      0x70c2b419\n      eq\n      tag_8\n      jumpi\n    tag_2:\n      revert(0x00, 0x00)\n        /* \"contracts/Healthcare.sol\":2715:3230  function grantAccess(address doctorAddress) external onlyPatient {... */\n    tag_3:\n      tag_16\n      0x04\n      dup1\n      calldatasize\n      sub\n      dup2\n      add\n      swap1\n      tag_17\n      swap2\n      swap1\n      tag_18\n      jump\t// in\n    tag_17:\n      tag_19\n      jump\t// in\n    tag_16:\n      stop\n        /* \"contracts/Healthcare.sol\":3917:4229  function hasAccess(address patientAddress, address doctorAddress) public view returns (bool) {... */\n    tag_4:\n      tag_20\n      0x04\n      dup1\n      calldatasize\n      sub\n      dup2\n      add\n      swap1\n      tag_21\n      swap2\n      swap1\n      tag_22\n      jump\t// in\n    tag_21:\n      tag_23\n      jump\t// in\n    tag_20:\n      mload(0x40)\n      tag_24\n      swap2\n      swap1\n      tag_25\n      jump\t// in\n    tag_24:\n      mload(0x40)\n      dup1\n      swap2\n      sub\n      swap1\n      return\n        /* \"contracts/Healthcare.sol\":2263:2709  function addMedicalRecord(address patientAddress, string memory ipfsHash) external onlyVerifiedDoctor {... */\n    tag_5:\n      tag_26\n      0x04\n      dup1\n      calldatasize\n      sub\n      dup2\n      add\n      swap1\n      tag_27\n      swap2\n      swap1\n      tag_28\n      jump\t// in\n    tag_27:\n      tag_29\n      jump\t// in\n    tag_26:\n      stop\n        /* \"contracts/Healthcare.sol\":1457:1926  function register(string memory fullName, string memory email, Role role, string memory ipfsHash) external {... */\n    tag_6:\n      tag_30\n      0x04\n      dup1\n      calldatasize\n      sub\n      dup2\n      add\n      swap1\n      tag_31\n      swap2\n      swap1\n      tag_32\n      jump\t// in\n    tag_31:\n      tag_33\n      jump\t// in\n    tag_30:\n      stop\n        /* \"contracts/Healthcare.sol\":3236:3544  function getUser(address userAddress) external view returns (string memory fullName, string memory email, Role role, bool isVerified, string memory ipfsHash) {... */\n    tag_7:\n      tag_34\n      0x04\n      dup1\n      calldatasize\n      sub\n      dup2\n      add\n      swap1\n      tag_35\n      swap2\n      swap1\n      tag_18\n      jump\t// in\n    tag_35:\n      tag_36\n      jump\t// in\n    tag_34:\n      mload(0x40)\n      tag_37\n      swap6\n      swap5\n      swap4\n      swap3\n      swap2\n      swap1\n      tag_38\n      jump\t// in\n    tag_37:\n      mload(0x40)\n      dup1\n      swap2\n      sub\n      swap1\n      return\n        /* \"contracts/Healthcare.sol\":592:639  mapping(address => address[]) public accessList */\n    tag_8:\n      tag_39\n      0x04\n      dup1\n      calldatasize\n      sub\n      dup2\n      add\n      swap1\n      tag_40\n      swap2\n      swap1\n      tag_41\n      jump\t// in\n    tag_40:\n      tag_42\n      jump\t// in\n    tag_39:\n      mload(0x40)\n      tag_43\n      swap2\n      swap1\n      tag_44\n      jump\t// in\n    tag_43:\n      mload(0x40)\n      dup1\n      swap2\n      sub\n      swap1\n      return\n        /* \"contracts/Healthcare.sol\":4235:4463  function getAccessList(address patientAddress) external view returns (address[] memory) {... */\n    tag_9:\n      tag_45\n      0x04\n      dup1\n      calldatasize\n      sub\n      dup2\n      add\n      swap1\n      tag_46\n      swap2\n      swap1\n      tag_18\n      jump\t// in\n    tag_46:\n      tag_47\n      jump\t// in\n    tag_45:\n      mload(0x40)\n      tag_48\n      swap2\n      swap1\n      tag_49\n      jump\t// in\n    tag_48:\n      mload(0x40)\n      dup1\n      swap2\n      sub\n      swap1\n      return\n        /* \"contracts/Healthcare.sol\":529:586  mapping(address => MedicalRecord[]) public medicalRecords */\n    tag_10:\n      tag_50\n      0x04\n      dup1\n      calldatasize\n      sub\n      dup2\n      add\n      swap1\n      tag_51\n      swap2\n      swap1\n      tag_41\n      jump\t// in\n    tag_51:\n      tag_52\n      jump\t// in\n    tag_50:\n      mload(0x40)\n      tag_53\n      swap4\n      swap3\n      swap2\n      swap1\n      tag_54\n      jump\t// in\n    tag_53:\n      mload(0x40)\n      dup1\n      swap2\n      sub\n      swap1\n      return\n        /* \"contracts/Healthcare.sol\":486:523  mapping(address => User) public users */\n    tag_11:\n      tag_55\n      0x04\n      dup1\n      calldatasize\n      sub\n      dup2\n      add\n      swap1\n      tag_56\n      swap2\n      swap1\n      tag_18\n      jump\t// in\n    tag_56:\n      tag_57\n      jump\t// in\n    tag_55:\n      mload(0x40)\n      tag_58\n      swap6\n      swap5\n      swap4\n      swap3\n      swap2\n      swap1\n      tag_59\n      jump\t// in\n    tag_58:\n      mload(0x40)\n      dup1\n      swap2\n      sub\n      swap1\n      return\n        /* \"contracts/Healthcare.sol\":3550:3911  function getMedicalRecords(address patientAddress) external view returns (MedicalRecord[] memory) {... */\n    tag_12:\n      tag_60\n      0x04\n      dup1\n      calldatasize\n      sub\n      dup2\n      add\n      swap1\n      tag_61\n      swap2\n      swap1\n      tag_18\n      jump\t// in\n    tag_61:\n      tag_62\n      jump\t// in\n    tag_60:\n      mload(0x40)\n      tag_63\n      swap2\n      swap1\n      tag_64\n      jump\t// in\n    tag_63:\n      mload(0x40)\n      dup1\n      swap2\n      sub\n      swap1\n      return\n        /* \"contracts/Healthcare.sol\":1932:2257  function verifyDoctor(address doctorAddress) external onlyAdmin {... */\n    tag_13:\n      tag_65\n      0x04\n      dup1\n      calldatasize\n      sub\n      dup2\n      add\n      swap1\n      tag_66\n      swap2\n      swap1\n      tag_18\n      jump\t// in\n    tag_66:\n      tag_67\n      jump\t// in\n    tag_65:\n      stop\n        /* \"contracts/Healthcare.sol\":459:479  address public admin */\n    tag_14:\n      tag_68\n      tag_69\n      jump\t// in\n    tag_68:\n      mload(0x40)\n      tag_70\n      swap2\n      swap1\n      tag_44\n      jump\t// in\n    tag_70:\n      mload(0x40)\n      dup1\n      swap2\n      sub\n      swap1\n      return\n        /* \"contracts/Healthcare.sol\":2715:3230  function grantAccess(address doctorAddress) external onlyPatient {... */\n    tag_19:\n        /* \"contracts/Healthcare.sol\":1135:1147  Role.PATIENT */\n      0x01\n        /* \"contracts/Healthcare.sol\":1109:1147  users[msg.sender].role == Role.PATIENT */\n      0x02\n      dup2\n      gt\n      iszero\n      tag_72\n      jumpi\n      tag_73\n      tag_74\n      jump\t// in\n    tag_73:\n    tag_72:\n        /* \"contracts/Healthcare.sol\":1109:1114  users */\n      0x01\n        /* \"contracts/Healthcare.sol\":1109:1126  users[msg.sender] */\n      0x00\n        /* \"contracts/Healthcare.sol\":1115:1125  msg.sender */\n      caller\n        /* \"contracts/Healthcare.sol\":1109:1126  users[msg.sender] */\n      0xffffffffffffffffffffffffffffffffffffffff\n      and\n      0xffffffffffffffffffffffffffffffffffffffff\n      and\n      dup2\n      mstore\n      0x20\n      add\n      swap1\n      dup2\n      mstore\n      0x20\n      add\n      0x00\n      keccak256\n        /* \"contracts/Healthcare.sol\":1109:1131  users[msg.sender].role */\n      0x00\n      add\n      0x00\n      swap1\n      sload\n      swap1\n      0x0100\n      exp\n      swap1\n      div\n      0xff\n      and\n        /* \"contracts/Healthcare.sol\":1109:1147  users[msg.sender].role == Role.PATIENT */\n      0x02\n      dup2\n      gt\n      iszero\n      tag_75\n      jumpi\n      tag_76\n      tag_74\n      jump\t// in\n    tag_76:\n    tag_75:\n      eq\n        /* \"contracts/Healthcare.sol\":1101:1188  require(users[msg.sender].role == Role.PATIENT, \"Only patients can call this function\") */\n      tag_77\n      jumpi\n      mload(0x40)\n      0x08c379a000000000000000000000000000000000000000000000000000000000\n      dup2\n      mstore\n      0x04\n      add\n      tag_78\n      swap1\n      tag_79\n      jump\t// in\n    tag_78:\n      mload(0x40)\n      dup1\n      swap2\n      sub\n      swap1\n      revert\n    tag_77:\n        /* \"contracts/Healthcare.sol\":2824:2835  Role.DOCTOR */\n      0x02\n        /* \"contracts/Healthcare.sol\":2798:2835  users[msg.sender].role == Role.DOCTOR */\n      dup1\n      dup2\n      gt\n      iszero\n      tag_81\n      jumpi\n      tag_82\n      tag_74\n      jump\t// in\n    tag_82:\n    tag_81:\n        /* \"contracts/Healthcare.sol\":2798:2803  users */\n      0x01\n        /* \"contracts/Healthcare.sol\":2798:2815  users[msg.sender] */\n      0x00\n        /* \"contracts/Healthcare.sol\":2804:2814  msg.sender */\n      caller\n        /* \"contracts/Healthcare.sol\":2798:2815  users[msg.sender] */\n      0xffffffffffffffffffffffffffffffffffffffff\n      and\n      0xffffffffffffffffffffffffffffffffffffffff\n      and\n      dup2\n      mstore\n      0x20\n      add\n      swap1\n      dup2\n      mstore\n      0x20\n      add\n      0x00\n      keccak256\n        /* \"contracts/Healthcare.sol\":2798:2820  users[msg.sender].role */\n      0x00\n      add\n      0x00\n      swap1\n      sload\n      swap1\n      0x0100\n      exp\n      swap1\n      div\n      0xff\n      and\n        /* \"contracts/Healthcare.sol\":2798:2835  users[msg.sender].role == Role.DOCTOR */\n      0x02\n      dup2\n      gt\n      iszero\n      tag_83\n      jumpi\n      tag_84\n      tag_74\n      jump\t// in\n    tag_84:\n    tag_83:\n      eq\n        /* \"contracts/Healthcare.sol\":2798:2867  users[msg.sender].role == Role.DOCTOR && users[msg.sender].isVerified */\n      dup1\n      iszero\n      tag_85\n      jumpi\n      pop\n        /* \"contracts/Healthcare.sol\":2839:2844  users */\n      0x01\n        /* \"contracts/Healthcare.sol\":2839:2856  users[msg.sender] */\n      0x00\n        /* \"contracts/Healthcare.sol\":2845:2855  msg.sender */\n      caller\n        /* \"contracts/Healthcare.sol\":2839:2856  users[msg.sender] */\n      0xffffffffffffffffffffffffffffffffffffffff\n      and\n      0xffffffffffffffffffffffffffffffffffffffff\n      and\n      dup2\n      mstore\n      0x20\n      add\n      swap1\n      dup2\n      mstore\n      0x20\n      add\n      0x00\n      keccak256\n        /* \"contracts/Healthcare.sol\":2839:2867  users[msg.sender].isVerified */\n      0x00\n      add\n      0x01\n      swap1\n      sload\n      swap1\n      0x0100\n      exp\n      swap1\n      div\n      0xff\n      and\n        /* \"contracts/Healthcare.sol\":2798:2867  users[msg.sender].role == Role.DOCTOR && users[msg.sender].isVerified */\n    tag_85:\n        /* \"contracts/Healthcare.sol\":2790:2900  require(users[msg.sender].role == Role.DOCTOR && users[msg.sender].isVerified, \"Invalid or unverified doctor\") */\n      tag_86\n      jumpi\n      mload(0x40)\n      0x08c379a000000000000000000000000000000000000000000000000000000000\n      dup2\n      mstore\n      0x04\n      add\n      tag_87\n      swap1\n      tag_88\n      jump\t// in\n    tag_87:\n      mload(0x40)\n      dup1\n      swap2\n      sub\n      swap1\n      revert\n    tag_86:\n        /* \"contracts/Healthcare.sol\":2916:2922  uint i */\n      0x00\n        /* \"contracts/Healthcare.sol\":2925:2926  0 */\n      0x00\n        /* \"contracts/Healthcare.sol\":2916:2926  uint i = 0 */\n      swap1\n      pop\n        /* \"contracts/Healthcare.sol\":2911:3108  for (uint i = 0; i < accessList[msg.sender].length; i++) {... */\n    tag_89:\n        /* \"contracts/Healthcare.sol\":2932:2942  accessList */\n      0x03\n        /* \"contracts/Healthcare.sol\":2932:2954  accessList[msg.sender] */\n      0x00\n        /* \"contracts/Healthcare.sol\":2943:2953  msg.sender */\n      caller\n        /* \"contracts/Healthcare.sol\":2932:2954  accessList[msg.sender] */\n      0xffffffffffffffffffffffffffffffffffffffff\n      and\n      0xffffffffffffffffffffffffffffffffffffffff\n      and\n      dup2\n      mstore\n      0x20\n      add\n      swap1\n      dup2\n      mstore\n      0x20\n      add\n      0x00\n      keccak256\n        /* \"contracts/Healthcare.sol\":2932:2961  accessList[msg.sender].length */\n      dup1\n      sload\n      swap1\n      pop\n        /* \"contracts/Healthcare.sol\":2928:2929  i */\n      dup2\n        /* \"contracts/Healthcare.sol\":2928:2961  i < accessList[msg.sender].length */\n      lt\n        /* \"contracts/Healthcare.sol\":2911:3108  for (uint i = 0; i < accessList[msg.sender].length; i++) {... */\n      iszero\n      tag_90\n      jumpi\n        /* \"contracts/Healthcare.sol\":3015:3028  doctorAddress */\n      dup2\n        /* \"contracts/Healthcare.sol\":2986:3028  accessList[msg.sender][i] == doctorAddress */\n      0xffffffffffffffffffffffffffffffffffffffff\n      and\n        /* \"contracts/Healthcare.sol\":2986:2996  accessList */\n      0x03\n        /* \"contracts/Healthcare.sol\":2986:3008  accessList[msg.sender] */\n      0x00\n        /* \"contracts/Healthcare.sol\":2997:3007  msg.sender */\n      caller\n        /* \"contracts/Healthcare.sol\":2986:3008  accessList[msg.sender] */\n      0xffffffffffffffffffffffffffffffffffffffff\n      and\n      0xffffffffffffffffffffffffffffffffffffffff\n      and\n      dup2\n      mstore\n      0x20\n      add\n      swap1\n      dup2\n      mstore\n      0x20\n      add\n      0x00\n      keccak256\n        /* \"contracts/Healthcare.sol\":3009:3010  i */\n      dup3\n        /* \"contracts/Healthcare.sol\":2986:3011  accessList[msg.sender][i] */\n      dup2\n      sload\n      dup2\n      lt\n      tag_92\n      jumpi\n      tag_93\n      tag_94\n      jump\t// in\n    tag_93:\n    tag_92:\n      swap1\n      0x00\n      mstore\n      keccak256(0x00, 0x20)\n      add\n      0x00\n      swap1\n      sload\n      swap1\n      0x0100\n      exp\n      swap1\n      div\n      0xffffffffffffffffffffffffffffffffffffffff\n      and\n        /* \"contracts/Healthcare.sol\":2986:3028  accessList[msg.sender][i] == doctorAddress */\n      0xffffffffffffffffffffffffffffffffffffffff\n      and\n      sub\n        /* \"contracts/Healthcare.sol\":2982:3098  if (accessList[msg.sender][i] == doctorAddress) {... */\n      tag_96\n      jumpi\n        /* \"contracts/Healthcare.sol\":3048:3083  revert(\"Doctor already has access\") */\n      mload(0x40)\n      0x08c379a000000000000000000000000000000000000000000000000000000000\n      dup2\n      mstore\n      0x04\n      add\n      tag_97\n      swap1\n      tag_98\n      jump\t// in\n    tag_97:\n      mload(0x40)\n      dup1\n      swap2\n      sub\n      swap1\n      revert\n        /* \"contracts/Healthcare.sol\":2982:3098  if (accessList[msg.sender][i] == doctorAddress) {... */\n    tag_96:\n        /* \"contracts/Healthcare.sol\":2963:2966  i++ */\n      dup1\n      dup1\n      0x01\n      add\n      swap2\n      pop\n      pop\n        /* \"contracts/Healthcare.sol\":2911:3108  for (uint i = 0; i < accessList[msg.sender].length; i++) {... */\n      jump(tag_89)\n    tag_90:\n      pop\n        /* \"contracts/Healthcare.sol\":3126:3136  accessList */\n      0x03\n        /* \"contracts/Healthcare.sol\":3126:3148  accessList[msg.sender] */\n      0x00\n        /* \"contracts/Healthcare.sol\":3137:3147  msg.sender */\n      caller\n        /* \"contracts/Healthcare.sol\":3126:3148  accessList[msg.sender] */\n      0xffffffffffffffffffffffffffffffffffffffff\n      and\n      0xffffffffffffffffffffffffffffffffffffffff\n      and\n      dup2\n      mstore\n      0x20\n      add\n      swap1\n      dup2\n      mstore\n      0x20\n      add\n      0x00\n      keccak256\n        /* \"contracts/Healthcare.sol\":3154:3167  doctorAddress */\n      dup2\n        /* \"contracts/Healthcare.sol\":3126:3168  accessList[msg.sender].push(doctorAddress) */\n      swap1\n      dup1\n      0x01\n      dup2\n      sload\n      add\n      dup1\n      dup3\n      sstore\n      dup1\n      swap2\n      pop\n      pop\n      0x01\n      swap1\n      sub\n      swap1\n      0x00\n      mstore\n      keccak256(0x00, 0x20)\n      add\n      0x00\n      swap1\n      swap2\n      swap1\n      swap2\n      swap1\n      swap2\n      0x0100\n      exp\n      dup2\n      sload\n      dup2\n      0xffffffffffffffffffffffffffffffffffffffff\n      mul\n      not\n      and\n      swap1\n      dup4\n      0xffffffffffffffffffffffffffffffffffffffff\n      and\n      mul\n      or\n      swap1\n      sstore\n      pop\n        /* \"contracts/Healthcare.sol\":3209:3222  doctorAddress */\n      dup1\n        /* \"contracts/Healthcare.sol\":3183:3223  AccessGranted(msg.sender, doctorAddress) */\n      0xffffffffffffffffffffffffffffffffffffffff\n      and\n        /* \"contracts/Healthcare.sol\":3197:3207  msg.sender */\n      caller\n        /* \"contracts/Healthcare.sol\":3183:3223  AccessGranted(msg.sender, doctorAddress) */\n      0xffffffffffffffffffffffffffffffffffffffff\n      and\n      0x9f520b3bfc56d06f7065d10b4683b3f57ac8895d5026cd176dee95ce1454cb8d\n      mload(0x40)\n      mload(0x40)\n      dup1\n      swap2\n      sub\n      swap1\n      log3\n        /* \"contracts/Healthcare.sol\":2715:3230  function grantAccess(address doctorAddress) external onlyPatient {... */\n      pop\n      jump\t// out\n        /* \"contracts/Healthcare.sol\":3917:4229  function hasAccess(address patientAddress, address doctorAddress) public view returns (bool) {... */\n    tag_23:\n        /* \"contracts/Healthcare.sol\":4004:4008  bool */\n      0x00\n        /* \"contracts/Healthcare.sol\":4025:4031  uint i */\n      0x00\n        /* \"contracts/Healthcare.sol\":4034:4035  0 */\n      0x00\n        /* \"contracts/Healthcare.sol\":4025:4035  uint i = 0 */\n      swap1\n      pop\n        /* \"contracts/Healthcare.sol\":4020:4201  for (uint i = 0; i < accessList[patientAddress].length; i++) {... */\n    tag_101:\n        /* \"contracts/Healthcare.sol\":4041:4051  accessList */\n      0x03\n        /* \"contracts/Healthcare.sol\":4041:4067  accessList[patientAddress] */\n      0x00\n        /* \"contracts/Healthcare.sol\":4052:4066  patientAddress */\n      dup6\n        /* \"contracts/Healthcare.sol\":4041:4067  accessList[patientAddress] */\n      0xffffffffffffffffffffffffffffffffffffffff\n      and\n      0xffffffffffffffffffffffffffffffffffffffff\n      and\n      dup2\n      mstore\n      0x20\n      add\n      swap1\n      dup2\n      mstore\n      0x20\n      add\n      0x00\n      keccak256\n        /* \"contracts/Healthcare.sol\":4041:4074  accessList[patientAddress].length */\n      dup1\n      sload\n      swap1\n      pop\n        /* \"contracts/Healthcare.sol\":4037:4038  i */\n      dup2\n        /* \"contracts/Healthcare.sol\":4037:4074  i < accessList[patientAddress].length */\n      lt\n        /* \"contracts/Healthcare.sol\":4020:4201  for (uint i = 0; i < accessList[patientAddress].length; i++) {... */\n      iszero\n      tag_102\n      jumpi\n        /* \"contracts/Healthcare.sol\":4132:4145  doctorAddress */\n      dup3\n        /* \"contracts/Healthcare.sol\":4099:4145  accessList[patientAddress][i] == doctorAddress */\n      0xffffffffffffffffffffffffffffffffffffffff\n      and\n        /* \"contracts/Healthcare.sol\":4099:4109  accessList */\n      0x03\n        /* \"contracts/Healthcare.sol\":4099:4125  accessList[patientAddress] */\n      0x00\n        /* \"contracts/Healthcare.sol\":4110:4124  patientAddress */\n      dup7\n        /* \"contracts/Healthcare.sol\":4099:4125  accessList[patientAddress] */\n      0xffffffffffffffffffffffffffffffffffffffff\n      and\n      0xffffffffffffffffffffffffffffffffffffffff\n      and\n      dup2\n      mstore\n      0x20\n      add\n      swap1\n      dup2\n      mstore\n      0x20\n      add\n      0x00\n      keccak256\n        /* \"contracts/Healthcare.sol\":4126:4127  i */\n      dup3\n        /* \"contracts/Healthcare.sol\":4099:4128  accessList[patientAddress][i] */\n      dup2\n      sload\n      dup2\n      lt\n      tag_104\n      jumpi\n      tag_105\n      tag_94\n      jump\t// in\n    tag_105:\n    tag_104:\n      swap1\n      0x00\n      mstore\n      keccak256(0x00, 0x20)\n      add\n      0x00\n      swap1\n      sload\n      swap1\n      0x0100\n      exp\n      swap1\n      div\n      0xffffffffffffffffffffffffffffffffffffffff\n      and\n        /* \"contracts/Healthcare.sol\":4099:4145  accessList[patientAddress][i] == doctorAddress */\n      0xffffffffffffffffffffffffffffffffffffffff\n      and\n      sub\n        /* \"contracts/Healthcare.sol\":4095:4191  if (accessList[patientAddress][i] == doctorAddress) {... */\n      tag_107\n      jumpi\n        /* \"contracts/Healthcare.sol\":4172:4176  true */\n      0x01\n        /* \"contracts/Healthcare.sol\":4165:4176  return true */\n      swap2\n      pop\n      pop\n      jump(tag_100)\n        /* \"contracts/Healthcare.sol\":4095:4191  if (accessList[patientAddress][i] == doctorAddress) {... */\n    tag_107:\n        /* \"contracts/Healthcare.sol\":4076:4079  i++ */\n      dup1\n      dup1\n      0x01\n      add\n      swap2\n      pop\n      pop\n        /* \"contracts/Healthcare.sol\":4020:4201  for (uint i = 0; i < accessList[patientAddress].length; i++) {... */\n      jump(tag_101)\n    tag_102:\n      pop\n        /* \"contracts/Healthcare.sol\":4217:4222  false */\n      0x00\n        /* \"contracts/Healthcare.sol\":4210:4222  return false */\n      swap1\n      pop\n        /* \"contracts/Healthcare.sol\":3917:4229  function hasAccess(address patientAddress, address doctorAddress) public view returns (bool) {... */\n    tag_100:\n      swap3\n      swap2\n      pop\n      pop\n      jump\t// out\n        /* \"contracts/Healthcare.sol\":2263:2709  function addMedicalRecord(address patientAddress, string memory ipfsHash) external onlyVerifiedDoctor {... */\n    tag_29:\n        /* \"contracts/Healthcare.sol\":1286:1297  Role.DOCTOR */\n      0x02\n        /* \"contracts/Healthcare.sol\":1260:1297  users[msg.sender].role == Role.DOCTOR */\n      dup1\n      dup2\n      gt\n      iszero\n      tag_109\n      jumpi\n      tag_110\n      tag_74\n      jump\t// in\n    tag_110:\n    tag_109:\n        /* \"contracts/Healthcare.sol\":1260:1265  users */\n      0x01\n        /* \"contracts/Healthcare.sol\":1260:1277  users[msg.sender] */\n      0x00\n        /* \"contracts/Healthcare.sol\":1266:1276  msg.sender */\n      caller\n        /* \"contracts/Healthcare.sol\":1260:1277  users[msg.sender] */\n      0xffffffffffffffffffffffffffffffffffffffff\n      and\n      0xffffffffffffffffffffffffffffffffffffffff\n      and\n      dup2\n      mstore\n      0x20\n      add\n      swap1\n      dup2\n      mstore\n      0x20\n      add\n      0x00\n      keccak256\n        /* \"contracts/Healthcare.sol\":1260:1282  users[msg.sender].role */\n      0x00\n      add\n      0x00\n      swap1\n      sload\n      swap1\n      0x0100\n      exp\n      swap1\n      div\n      0xff\n      and\n        /* \"contracts/Healthcare.sol\":1260:1297  users[msg.sender].role == Role.DOCTOR */\n      0x02\n      dup2\n      gt\n      iszero\n      tag_111\n      jumpi\n      tag_112\n      tag_74\n      jump\t// in\n    tag_112:\n    tag_111:\n      eq\n        /* \"contracts/Healthcare.sol\":1260:1329  users[msg.sender].role == Role.DOCTOR && users[msg.sender].isVerified */\n      dup1\n      iszero\n      tag_113\n      jumpi\n      pop\n        /* \"contracts/Healthcare.sol\":1301:1306  users */\n      0x01\n        /* \"contracts/Healthcare.sol\":1301:1318  users[msg.sender] */\n      0x00\n        /* \"contracts/Healthcare.sol\":1307:1317  msg.sender */\n      caller\n        /* \"contracts/Healthcare.sol\":1301:1318  users[msg.sender] */\n      0xffffffffffffffffffffffffffffffffffffffff\n      and\n      0xffffffffffffffffffffffffffffffffffffffff\n      and\n      dup2\n      mstore\n      0x20\n      add\n      swap1\n      dup2\n      mstore\n      0x20\n      add\n      0x00\n      keccak256\n        /* \"contracts/Healthcare.sol\":1301:1329  users[msg.sender].isVerified */\n      0x00\n      add\n      0x01\n      swap1\n      sload\n      swap1\n      0x0100\n      exp\n      swap1\n      div\n      0xff\n      and\n        /* \"contracts/Healthcare.sol\":1260:1329  users[msg.sender].role == Role.DOCTOR && users[msg.sender].isVerified */\n    tag_113:\n        /* \"contracts/Healthcare.sol\":1252:1378  require(users[msg.sender].role == Role.DOCTOR && users[msg.sender].isVerified, \"Only verified doctors can call this function\") */\n      tag_114\n      jumpi\n      mload(0x40)\n      0x08c379a000000000000000000000000000000000000000000000000000000000\n      dup2\n      mstore\n      0x04\n      add\n      tag_115\n      swap1\n      tag_116\n      jump\t// in\n    tag_115:\n      mload(0x40)\n      dup1\n      swap2\n      sub\n      swap1\n      revert\n    tag_114:\n        /* \"contracts/Healthcare.sol\":2413:2425  Role.PATIENT */\n      0x01\n        /* \"contracts/Healthcare.sol\":2383:2425  users[patientAddress].role == Role.PATIENT */\n      0x02\n      dup2\n      gt\n      iszero\n      tag_118\n      jumpi\n      tag_119\n      tag_74\n      jump\t// in\n    tag_119:\n    tag_118:\n        /* \"contracts/Healthcare.sol\":2383:2388  users */\n      0x01\n        /* \"contracts/Healthcare.sol\":2383:2404  users[patientAddress] */\n      0x00\n        /* \"contracts/Healthcare.sol\":2389:2403  patientAddress */\n      dup5\n        /* \"contracts/Healthcare.sol\":2383:2404  users[patientAddress] */\n      0xffffffffffffffffffffffffffffffffffffffff\n      and\n      0xffffffffffffffffffffffffffffffffffffffff\n      and\n      dup2\n      mstore\n      0x20\n      add\n      swap1\n      dup2\n      mstore\n      0x20\n      add\n      0x00\n      keccak256\n        /* \"contracts/Healthcare.sol\":2383:2409  users[patientAddress].role */\n      0x00\n      add\n      0x00\n      swap1\n      sload\n      swap1\n      0x0100\n      exp\n      swap1\n      div\n      0xff\n      and\n        /* \"contracts/Healthcare.sol\":2383:2425  users[patientAddress].role == Role.PATIENT */\n      0x02\n      dup2\n      gt\n      iszero\n      tag_120\n      jumpi\n      tag_121\n      tag_74\n      jump\t// in\n    tag_121:\n    tag_120:\n      eq\n        /* \"contracts/Healthcare.sol\":2375:2453  require(users[patientAddress].role == Role.PATIENT, \"Invalid patient address\") */\n      tag_122\n      jumpi\n      mload(0x40)\n      0x08c379a000000000000000000000000000000000000000000000000000000000\n      dup2\n      mstore\n      0x04\n      add\n      tag_123\n      swap1\n      tag_124\n      jump\t// in\n    tag_123:\n      mload(0x40)\n      dup1\n      swap2\n      sub\n      swap1\n      revert\n    tag_122:\n        /* \"contracts/Healthcare.sol\":2464:2478  medicalRecords */\n      0x02\n        /* \"contracts/Healthcare.sol\":2464:2494  medicalRecords[patientAddress] */\n      0x00\n        /* \"contracts/Healthcare.sol\":2479:2493  patientAddress */\n      dup4\n        /* \"contracts/Healthcare.sol\":2464:2494  medicalRecords[patientAddress] */\n      0xffffffffffffffffffffffffffffffffffffffff\n      and\n      0xffffffffffffffffffffffffffffffffffffffff\n      and\n      dup2\n      mstore\n      0x20\n      add\n      swap1\n      dup2\n      mstore\n      0x20\n      add\n      0x00\n      keccak256\n        /* \"contracts/Healthcare.sol\":2500:2629  MedicalRecord({... */\n      mload(0x40)\n      dup1\n      0x60\n      add\n      0x40\n      mstore\n      dup1\n        /* \"contracts/Healthcare.sol\":2538:2546  ipfsHash */\n      dup4\n        /* \"contracts/Healthcare.sol\":2500:2629  MedicalRecord({... */\n      dup2\n      mstore\n      0x20\n      add\n        /* \"contracts/Healthcare.sol\":2568:2578  msg.sender */\n      caller\n        /* \"contracts/Healthcare.sol\":2500:2629  MedicalRecord({... */\n      0xffffffffffffffffffffffffffffffffffffffff\n      and\n      dup2\n      mstore\n      0x20\n      add\n        /* \"contracts/Healthcare.sol\":2603:2618  block.timestamp */\n      timestamp\n        /* \"contracts/Healthcare.sol\":2500:2629  MedicalRecord({... */\n      dup2\n      mstore\n      pop\n        /* \"contracts/Healthcare.sol\":2464:2630  medicalRecords[patientAddress].push(MedicalRecord({... */\n      swap1\n      dup1\n      0x01\n      dup2\n      sload\n      add\n      dup1\n      dup3\n      sstore\n      dup1\n      swap2\n      pop\n      pop\n      0x01\n      swap1\n      sub\n      swap1\n      0x00\n      mstore\n      keccak256(0x00, 0x20)\n      swap1\n      0x03\n      mul\n      add\n      0x00\n      swap1\n      swap2\n      swap1\n      swap2\n      swap1\n      swap2\n      pop\n      0x00\n      dup3\n      add\n      mload\n      dup2\n      0x00\n      add\n      swap1\n      dup2\n      tag_126\n      swap2\n      swap1\n      tag_127\n      jump\t// in\n    tag_126:\n      pop\n      0x20\n      dup3\n      add\n      mload\n      dup2\n      0x01\n      add\n      exp(0x0100, 0x00)\n      dup2\n      sload\n      dup2\n      0xffffffffffffffffffffffffffffffffffffffff\n      mul\n      not\n      and\n      swap1\n      dup4\n      0xffffffffffffffffffffffffffffffffffffffff\n      and\n      mul\n      or\n      swap1\n      sstore\n      pop\n      0x40\n      dup3\n      add\n      mload\n      dup2\n      0x02\n      add\n      sstore\n      pop\n      pop\n        /* \"contracts/Healthcare.sol\":2691:2701  msg.sender */\n      caller\n        /* \"contracts/Healthcare.sol\":2646:2702  MedicalRecordAdded(patientAddress, ipfsHash, msg.sender) */\n      0xffffffffffffffffffffffffffffffffffffffff\n      and\n        /* \"contracts/Healthcare.sol\":2665:2679  patientAddress */\n      dup3\n        /* \"contracts/Healthcare.sol\":2646:2702  MedicalRecordAdded(patientAddress, ipfsHash, msg.sender) */\n      0xffffffffffffffffffffffffffffffffffffffff\n      and\n      0x7cac34963963ad845a518664d7df77ff39ae947321be3e9b7b4609c45d14e5fd\n        /* \"contracts/Healthcare.sol\":2681:2689  ipfsHash */\n      dup4\n        /* \"contracts/Healthcare.sol\":2646:2702  MedicalRecordAdded(patientAddress, ipfsHash, msg.sender) */\n      mload(0x40)\n      tag_128\n      swap2\n      swap1\n      tag_129\n      jump\t// in\n    tag_128:\n      mload(0x40)\n      dup1\n      swap2\n      sub\n      swap1\n      log3\n        /* \"contracts/Healthcare.sol\":2263:2709  function addMedicalRecord(address patientAddress, string memory ipfsHash) external onlyVerifiedDoctor {... */\n      pop\n      pop\n      jump\t// out\n        /* \"contracts/Healthcare.sol\":1457:1926  function register(string memory fullName, string memory email, Role role, string memory ipfsHash) external {... */\n    tag_33:\n        /* \"contracts/Healthcare.sol\":1608:1617  Role.NONE */\n      0x00\n        /* \"contracts/Healthcare.sol\":1582:1617  users[msg.sender].role == Role.NONE */\n      0x02\n      dup2\n      gt\n      iszero\n      tag_131\n      jumpi\n      tag_132\n      tag_74\n      jump\t// in\n    tag_132:\n    tag_131:\n        /* \"contracts/Healthcare.sol\":1582:1587  users */\n      0x01\n        /* \"contracts/Healthcare.sol\":1582:1599  users[msg.sender] */\n      0x00\n        /* \"contracts/Healthcare.sol\":1588:1598  msg.sender */\n      caller\n        /* \"contracts/Healthcare.sol\":1582:1599  users[msg.sender] */\n      0xffffffffffffffffffffffffffffffffffffffff\n      and\n      0xffffffffffffffffffffffffffffffffffffffff\n      and\n      dup2\n      mstore\n      0x20\n      add\n      swap1\n      dup2\n      mstore\n      0x20\n      add\n      0x00\n      keccak256\n        /* \"contracts/Healthcare.sol\":1582:1604  users[msg.sender].role */\n      0x00\n      add\n      0x00\n      swap1\n      sload\n      swap1\n      0x0100\n      exp\n      swap1\n      div\n      0xff\n      and\n        /* \"contracts/Healthcare.sol\":1582:1617  users[msg.sender].role == Role.NONE */\n      0x02\n      dup2\n      gt\n      iszero\n      tag_133\n      jumpi\n      tag_134\n      tag_74\n      jump\t// in\n    tag_134:\n    tag_133:\n      eq\n        /* \"contracts/Healthcare.sol\":1574:1645  require(users[msg.sender].role == Role.NONE, \"User already registered\") */\n      tag_135\n      jumpi\n      mload(0x40)\n      0x08c379a000000000000000000000000000000000000000000000000000000000\n      dup2\n      mstore\n      0x04\n      add\n      tag_136\n      swap1\n      tag_137\n      jump\t// in\n    tag_136:\n      mload(0x40)\n      dup1\n      swap2\n      sub\n      swap1\n      revert\n    tag_135:\n        /* \"contracts/Healthcare.sol\":1671:1683  Role.PATIENT */\n      0x01\n        /* \"contracts/Healthcare.sol\":1663:1683  role == Role.PATIENT */\n      0x02\n      dup2\n      gt\n      iszero\n      tag_138\n      jumpi\n      tag_139\n      tag_74\n      jump\t// in\n    tag_139:\n    tag_138:\n        /* \"contracts/Healthcare.sol\":1663:1667  role */\n      dup3\n        /* \"contracts/Healthcare.sol\":1663:1683  role == Role.PATIENT */\n      0x02\n      dup2\n      gt\n      iszero\n      tag_140\n      jumpi\n      tag_141\n      tag_74\n      jump\t// in\n    tag_141:\n    tag_140:\n      eq\n        /* \"contracts/Healthcare.sol\":1663:1706  role == Role.PATIENT || role == Role.DOCTOR */\n      dup1\n      tag_142\n      jumpi\n      pop\n        /* \"contracts/Healthcare.sol\":1695:1706  Role.DOCTOR */\n      0x02\n        /* \"contracts/Healthcare.sol\":1687:1706  role == Role.DOCTOR */\n      dup1\n      dup2\n      gt\n      iszero\n      tag_143\n      jumpi\n      tag_144\n      tag_74\n      jump\t// in\n    tag_144:\n    tag_143:\n        /* \"contracts/Healthcare.sol\":1687:1691  role */\n      dup3\n        /* \"contracts/Healthcare.sol\":1687:1706  role == Role.DOCTOR */\n      0x02\n      dup2\n      gt\n      iszero\n      tag_145\n      jumpi\n      tag_146\n      tag_74\n      jump\t// in\n    tag_146:\n    tag_145:\n      eq\n        /* \"contracts/Healthcare.sol\":1663:1706  role == Role.PATIENT || role == Role.DOCTOR */\n    tag_142:\n        /* \"contracts/Healthcare.sol\":1655:1723  require(role == Role.PATIENT || role == Role.DOCTOR, \"Invalid role\") */\n      tag_147\n      jumpi\n      mload(0x40)\n      0x08c379a000000000000000000000000000000000000000000000000000000000\n      dup2\n      mstore\n      0x04\n      add\n      tag_148\n      swap1\n      tag_149\n      jump\t// in\n    tag_148:\n      mload(0x40)\n      dup1\n      swap2\n      sub\n      swap1\n      revert\n    tag_147:\n        /* \"contracts/Healthcare.sol\":1742:1757  bool isVerified */\n      0x00\n        /* \"contracts/Healthcare.sol\":1769:1781  Role.PATIENT */\n      0x01\n        /* \"contracts/Healthcare.sol\":1761:1781  role == Role.PATIENT */\n      0x02\n      dup2\n      gt\n      iszero\n      tag_150\n      jumpi\n      tag_151\n      tag_74\n      jump\t// in\n    tag_151:\n    tag_150:\n        /* \"contracts/Healthcare.sol\":1761:1765  role */\n      dup4\n        /* \"contracts/Healthcare.sol\":1761:1781  role == Role.PATIENT */\n      0x02\n      dup2\n      gt\n      iszero\n      tag_152\n      jumpi\n      tag_153\n      tag_74\n      jump\t// in\n    tag_153:\n    tag_152:\n      eq\n        /* \"contracts/Healthcare.sol\":1742:1782  bool isVerified = (role == Role.PATIENT) */\n      swap1\n      pop\n        /* \"contracts/Healthcare.sol\":1812:1861  User(role, isVerified, ipfsHash, fullName, email) */\n      mload(0x40)\n      dup1\n      0xa0\n      add\n      0x40\n      mstore\n      dup1\n        /* \"contracts/Healthcare.sol\":1817:1821  role */\n      dup5\n        /* \"contracts/Healthcare.sol\":1812:1861  User(role, isVerified, ipfsHash, fullName, email) */\n      0x02\n      dup2\n      gt\n      iszero\n      tag_154\n      jumpi\n      tag_155\n      tag_74\n      jump\t// in\n    tag_155:\n    tag_154:\n      dup2\n      mstore\n      0x20\n      add\n        /* \"contracts/Healthcare.sol\":1823:1833  isVerified */\n      dup3\n        /* \"contracts/Healthcare.sol\":1812:1861  User(role, isVerified, ipfsHash, fullName, email) */\n      iszero\n      iszero\n      dup2\n      mstore\n      0x20\n      add\n        /* \"contracts/Healthcare.sol\":1835:1843  ipfsHash */\n      dup4\n        /* \"contracts/Healthcare.sol\":1812:1861  User(role, isVerified, ipfsHash, fullName, email) */\n      dup2\n      mstore\n      0x20\n      add\n        /* \"contracts/Healthcare.sol\":1845:1853  fullName */\n      dup7\n        /* \"contracts/Healthcare.sol\":1812:1861  User(role, isVerified, ipfsHash, fullName, email) */\n      dup2\n      mstore\n      0x20\n      add\n        /* \"contracts/Healthcare.sol\":1855:1860  email */\n      dup6\n        /* \"contracts/Healthcare.sol\":1812:1861  User(role, isVerified, ipfsHash, fullName, email) */\n      dup2\n      mstore\n      pop\n        /* \"contracts/Healthcare.sol\":1792:1797  users */\n      0x01\n        /* \"contracts/Healthcare.sol\":1792:1809  users[msg.sender] */\n      0x00\n        /* \"contracts/Healthcare.sol\":1798:1808  msg.sender */\n      caller\n        /* \"contracts/Healthcare.sol\":1792:1809  users[msg.sender] */\n      0xffffffffffffffffffffffffffffffffffffffff\n      and\n      0xffffffffffffffffffffffffffffffffffffffff\n      and\n      dup2\n      mstore\n      0x20\n      add\n      swap1\n      dup2\n      mstore\n      0x20\n      add\n      0x00\n      keccak256\n        /* \"contracts/Healthcare.sol\":1792:1861  users[msg.sender] = User(role, isVerified, ipfsHash, fullName, email) */\n      0x00\n      dup3\n      add\n      mload\n      dup2\n      0x00\n      add\n      exp(0x0100, 0x00)\n      dup2\n      sload\n      dup2\n      0xff\n      mul\n      not\n      and\n      swap1\n      dup4\n      0x02\n      dup2\n      gt\n      iszero\n      tag_156\n      jumpi\n      tag_157\n      tag_74\n      jump\t// in\n    tag_157:\n    tag_156:\n      mul\n      or\n      swap1\n      sstore\n      pop\n      0x20\n      dup3\n      add\n      mload\n      dup2\n      0x00\n      add\n      exp(0x0100, 0x01)\n      dup2\n      sload\n      dup2\n      0xff\n      mul\n      not\n      and\n      swap1\n      dup4\n      iszero\n      iszero\n      mul\n      or\n      swap1\n      sstore\n      pop\n      0x40\n      dup3\n      add\n      mload\n      dup2\n      0x01\n      add\n      swap1\n      dup2\n      tag_158\n      swap2\n      swap1\n      tag_127\n      jump\t// in\n    tag_158:\n      pop\n      0x60\n      dup3\n      add\n      mload\n      dup2\n      0x02\n      add\n      swap1\n      dup2\n      tag_159\n      swap2\n      swap1\n      tag_127\n      jump\t// in\n    tag_159:\n      pop\n      0x80\n      dup3\n      add\n      mload\n      dup2\n      0x03\n      add\n      swap1\n      dup2\n      tag_160\n      swap2\n      swap1\n      tag_127\n      jump\t// in\n    tag_160:\n      pop\n      swap1\n      pop\n      pop\n        /* \"contracts/Healthcare.sol\":1892:1902  msg.sender */\n      caller\n        /* \"contracts/Healthcare.sol\":1877:1919  UserRegistered(msg.sender, role, ipfsHash) */\n      0xffffffffffffffffffffffffffffffffffffffff\n      and\n      0x04221ffa167b8d0a33647e46ee4f6728f4fe3651e4d56715ed0941b12046147b\n        /* \"contracts/Healthcare.sol\":1904:1908  role */\n      dup5\n        /* \"contracts/Healthcare.sol\":1910:1918  ipfsHash */\n      dup5\n        /* \"contracts/Healthcare.sol\":1877:1919  UserRegistered(msg.sender, role, ipfsHash) */\n      mload(0x40)\n      tag_161\n      swap3\n      swap2\n      swap1\n      tag_162\n      jump\t// in\n    tag_161:\n      mload(0x40)\n      dup1\n      swap2\n      sub\n      swap1\n      log2\n        /* \"contracts/Healthcare.sol\":1564:1926  {... */\n      pop\n        /* \"contracts/Healthcare.sol\":1457:1926  function register(string memory fullName, string memory email, Role role, string memory ipfsHash) external {... */\n      pop\n      pop\n      pop\n      pop\n      jump\t// out\n        /* \"contracts/Healthcare.sol\":3236:3544  function getUser(address userAddress) external view returns (string memory fullName, string memory email, Role role, bool isVerified, string memory ipfsHash) {... */\n    tag_36:\n        /* \"contracts/Healthcare.sol\":3297:3319  string memory fullName */\n      0x60\n        /* \"contracts/Healthcare.sol\":3321:3340  string memory email */\n      dup1\n        /* \"contracts/Healthcare.sol\":3342:3351  Role role */\n      0x00\n        /* \"contracts/Healthcare.sol\":3353:3368  bool isVerified */\n      0x00\n        /* \"contracts/Healthcare.sol\":3370:3392  string memory ipfsHash */\n      0x60\n        /* \"contracts/Healthcare.sol\":3404:3420  User memory user */\n      0x00\n        /* \"contracts/Healthcare.sol\":3423:3428  users */\n      0x01\n        /* \"contracts/Healthcare.sol\":3423:3441  users[userAddress] */\n      0x00\n        /* \"contracts/Healthcare.sol\":3429:3440  userAddress */\n      dup9\n        /* \"contracts/Healthcare.sol\":3423:3441  users[userAddress] */\n      0xffffffffffffffffffffffffffffffffffffffff\n      and\n      0xffffffffffffffffffffffffffffffffffffffff\n      and\n      dup2\n      mstore\n      0x20\n      add\n      swap1\n      dup2\n      mstore\n      0x20\n      add\n      0x00\n      keccak256\n        /* \"contracts/Healthcare.sol\":3404:3441  User memory user = users[userAddress] */\n      mload(0x40)\n      dup1\n      0xa0\n      add\n      0x40\n      mstore\n      swap1\n      dup2\n      0x00\n      dup3\n      add\n      0x00\n      swap1\n      sload\n      swap1\n      0x0100\n      exp\n      swap1\n      div\n      0xff\n      and\n      0x02\n      dup2\n      gt\n      iszero\n      tag_164\n      jumpi\n      tag_165\n      tag_74\n      jump\t// in\n    tag_165:\n    tag_164:\n      0x02\n      dup2\n      gt\n      iszero\n      tag_166\n      jumpi\n      tag_167\n      tag_74\n      jump\t// in\n    tag_167:\n    tag_166:\n      dup2\n      mstore\n      0x20\n      add\n      0x00\n      dup3\n      add\n      0x01\n      swap1\n      sload\n      swap1\n      0x0100\n      exp\n      swap1\n      div\n      0xff\n      and\n      iszero\n      iszero\n      iszero\n      iszero\n      dup2\n      mstore\n      0x20\n      add\n      0x01\n      dup3\n      add\n      dup1\n      sload\n      tag_168\n      swap1\n      tag_169\n      jump\t// in\n    tag_168:\n      dup1\n      0x1f\n      add\n      0x20\n      dup1\n      swap2\n      div\n      mul\n      0x20\n      add\n      mload(0x40)\n      swap1\n      dup2\n      add\n      0x40\n      mstore\n      dup1\n      swap3\n      swap2\n      swap1\n      dup2\n      dup2\n      mstore\n      0x20\n      add\n      dup3\n      dup1\n      sload\n      tag_170\n      swap1\n      tag_169\n      jump\t// in\n    tag_170:\n      dup1\n      iszero\n      tag_171\n      jumpi\n      dup1\n      0x1f\n      lt\n      tag_172\n      jumpi\n      0x0100\n      dup1\n      dup4\n      sload\n      div\n      mul\n      dup4\n      mstore\n      swap2\n      0x20\n      add\n      swap2\n      jump(tag_171)\n    tag_172:\n      dup3\n      add\n      swap2\n      swap1\n      0x00\n      mstore\n      keccak256(0x00, 0x20)\n      swap1\n    tag_173:\n      dup2\n      sload\n      dup2\n      mstore\n      swap1\n      0x01\n      add\n      swap1\n      0x20\n      add\n      dup1\n      dup4\n      gt\n      tag_173\n      jumpi\n      dup3\n      swap1\n      sub\n      0x1f\n      and\n      dup3\n      add\n      swap2\n    tag_171:\n      pop\n      pop\n      pop\n      pop\n      pop\n      dup2\n      mstore\n      0x20\n      add\n      0x02\n      dup3\n      add\n      dup1\n      sload\n      tag_174\n      swap1\n      tag_169\n      jump\t// in\n    tag_174:\n      dup1\n      0x1f\n      add\n      0x20\n      dup1\n      swap2\n      div\n      mul\n      0x20\n      add\n      mload(0x40)\n      swap1\n      dup2\n      add\n      0x40\n      mstore\n      dup1\n      swap3\n      swap2\n      swap1\n      dup2\n      dup2\n      mstore\n      0x20\n      add\n      dup3\n      dup1\n      sload\n      tag_175\n      swap1\n      tag_169\n      jump\t// in\n    tag_175:\n      dup1\n      iszero\n      tag_176\n      jumpi\n      dup1\n      0x1f\n      lt\n      tag_177\n      jumpi\n      0x0100\n      dup1\n      dup4\n      sload\n      div\n      mul\n      dup4\n      mstore\n      swap2\n      0x20\n      add\n      swap2\n      jump(tag_176)\n    tag_177:\n      dup3\n      add\n      swap2\n      swap1\n      0x00\n      mstore\n      keccak256(0x00, 0x20)\n      swap1\n    tag_178:\n      dup2\n      sload\n      dup2\n      mstore\n      swap1\n      0x01\n      add\n      swap1\n      0x20\n      add\n      dup1\n      dup4\n      gt\n      tag_178\n      jumpi\n      dup3\n      swap1\n      sub\n      0x1f\n      and\n      dup3\n      add\n      swap2\n    tag_176:\n      pop\n      pop\n      pop\n      pop\n      pop\n      dup2\n      mstore\n      0x20\n      add\n      0x03\n      dup3\n      add\n      dup1\n      sload\n      tag_179\n      swap1\n      tag_169\n      jump\t// in\n    tag_179:\n      dup1\n      0x1f\n      add\n      0x20\n      dup1\n      swap2\n      div\n      mul\n      0x20\n      add\n      mload(0x40)\n      swap1\n      dup2\n      add\n      0x40\n      mstore\n      dup1\n      swap3\n      swap2\n      swap1\n      dup2\n      dup2\n      mstore\n      0x20\n      add\n      dup3\n      dup1\n      sload\n      tag_180\n      swap1\n      tag_169\n      jump\t// in\n    tag_180:\n      dup1\n      iszero\n      tag_181\n      jumpi\n      dup1\n      0x1f\n      lt\n      tag_182\n      jumpi\n      0x0100\n      dup1\n      dup4\n      sload\n      div\n      mul\n      dup4\n      mstore\n      swap2\n      0x20\n      add\n      swap2\n      jump(tag_181)\n    tag_182:\n      dup3\n      add\n      swap2\n      swap1\n      0x00\n      mstore\n      keccak256(0x00, 0x20)\n      swap1\n    tag_183:\n      dup2\n      sload\n      dup2\n      mstore\n      swap1\n      0x01\n      add\n      swap1\n      0x20\n      add\n      dup1\n      dup4\n      gt\n      tag_183\n      jumpi\n      dup3\n      swap1\n      sub\n      0x1f\n      and\n      dup3\n      add\n      swap2\n    tag_181:\n      pop\n      pop\n      pop\n      pop\n      pop\n      dup2\n      mstore\n      pop\n      pop\n      swap1\n      pop\n        /* \"contracts/Healthcare.sol\":3468:3472  user */\n      dup1\n        /* \"contracts/Healthcare.sol\":3468:3481  user.fullName */\n      0x60\n      add\n      mload\n        /* \"contracts/Healthcare.sol\":3483:3487  user */\n      dup2\n        /* \"contracts/Healthcare.sol\":3483:3493  user.email */\n      0x80\n      add\n      mload\n        /* \"contracts/Healthcare.sol\":3495:3499  user */\n      dup3\n        /* \"contracts/Healthcare.sol\":3495:3504  user.role */\n      0x00\n      add\n      mload\n        /* \"contracts/Healthcare.sol\":3506:3510  user */\n      dup4\n        /* \"contracts/Healthcare.sol\":3506:3521  user.isVerified */\n      0x20\n      add\n      mload\n        /* \"contracts/Healthcare.sol\":3523:3527  user */\n      dup5\n        /* \"contracts/Healthcare.sol\":3523:3536  user.ipfsHash */\n      0x40\n      add\n      mload\n        /* \"contracts/Healthcare.sol\":3460:3537  return (user.fullName, user.email, user.role, user.isVerified, user.ipfsHash) */\n      swap6\n      pop\n      swap6\n      pop\n      swap6\n      pop\n      swap6\n      pop\n      swap6\n      pop\n      pop\n        /* \"contracts/Healthcare.sol\":3236:3544  function getUser(address userAddress) external view returns (string memory fullName, string memory email, Role role, bool isVerified, string memory ipfsHash) {... */\n      swap2\n      swap4\n      swap6\n      swap1\n      swap3\n      swap5\n      pop\n      jump\t// out\n        /* \"contracts/Healthcare.sol\":592:639  mapping(address => address[]) public accessList */\n    tag_42:\n      mstore(0x20, 0x03)\n      dup2\n      0x00\n      mstore\n      keccak256(0x00, 0x40)\n      dup2\n      dup2\n      sload\n      dup2\n      lt\n      tag_184\n      jumpi\n      0x00\n      dup1\n      revert\n    tag_184:\n      swap1\n      0x00\n      mstore\n      keccak256(0x00, 0x20)\n      add\n      0x00\n      swap2\n      pop\n      swap2\n      pop\n      swap1\n      sload\n      swap1\n      0x0100\n      exp\n      swap1\n      div\n      0xffffffffffffffffffffffffffffffffffffffff\n      and\n      dup2\n      jump\t// out\n        /* \"contracts/Healthcare.sol\":4235:4463  function getAccessList(address patientAddress) external view returns (address[] memory) {... */\n    tag_47:\n        /* \"contracts/Healthcare.sol\":4305:4321  address[] memory */\n      0x60\n        /* \"contracts/Healthcare.sol\":4355:4369  patientAddress */\n      dup2\n        /* \"contracts/Healthcare.sol\":4341:4369  msg.sender == patientAddress */\n      0xffffffffffffffffffffffffffffffffffffffff\n      and\n        /* \"contracts/Healthcare.sol\":4341:4351  msg.sender */\n      caller\n        /* \"contracts/Healthcare.sol\":4341:4369  msg.sender == patientAddress */\n      0xffffffffffffffffffffffffffffffffffffffff\n      and\n      eq\n        /* \"contracts/Healthcare.sol\":4333:4413  require(msg.sender == patientAddress, \"Only patient can view their access list\") */\n      tag_187\n      jumpi\n      mload(0x40)\n      0x08c379a000000000000000000000000000000000000000000000000000000000\n      dup2\n      mstore\n      0x04\n      add\n      tag_188\n      swap1\n      tag_189\n      jump\t// in\n    tag_188:\n      mload(0x40)\n      dup1\n      swap2\n      sub\n      swap1\n      revert\n    tag_187:\n        /* \"contracts/Healthcare.sol\":4430:4440  accessList */\n      0x03\n        /* \"contracts/Healthcare.sol\":4430:4456  accessList[patientAddress] */\n      0x00\n        /* \"contracts/Healthcare.sol\":4441:4455  patientAddress */\n      dup4\n        /* \"contracts/Healthcare.sol\":4430:4456  accessList[patientAddress] */\n      0xffffffffffffffffffffffffffffffffffffffff\n      and\n      0xffffffffffffffffffffffffffffffffffffffff\n      and\n      dup2\n      mstore\n      0x20\n      add\n      swap1\n      dup2\n      mstore\n      0x20\n      add\n      0x00\n      keccak256\n        /* \"contracts/Healthcare.sol\":4423:4456  return accessList[patientAddress] */\n      dup1\n      sload\n      dup1\n      0x20\n      mul\n      0x20\n      add\n      mload(0x40)\n      swap1\n      dup2\n      add\n      0x40\n      mstore\n      dup1\n      swap3\n      swap2\n      swap1\n      dup2\n      dup2\n      mstore\n      0x20\n      add\n      dup3\n      dup1\n      sload\n      dup1\n      iszero\n      tag_190\n      jumpi\n      0x20\n      mul\n      dup3\n      add\n      swap2\n      swap1\n      0x00\n      mstore\n      keccak256(0x00, 0x20)\n      swap1\n    tag_191:\n      dup2\n      0x00\n      swap1\n      sload\n      swap1\n      0x0100\n      exp\n      swap1\n      div\n      0xffffffffffffffffffffffffffffffffffffffff\n      and\n      0xffffffffffffffffffffffffffffffffffffffff\n      and\n      dup2\n      mstore\n      0x20\n      add\n      swap1\n      0x01\n      add\n      swap1\n      dup1\n      dup4\n      gt\n      tag_191\n      jumpi\n    tag_190:\n      pop\n      pop\n      pop\n      pop\n      pop\n      swap1\n      pop\n        /* \"contracts/Healthcare.sol\":4235:4463  function getAccessList(address patientAddress) external view returns (address[] memory) {... */\n      swap2\n      swap1\n      pop\n      jump\t// out\n        /* \"contracts/Healthcare.sol\":529:586  mapping(address => MedicalRecord[]) public medicalRecords */\n    tag_52:\n      mstore(0x20, 0x02)\n      dup2\n      0x00\n      mstore\n      keccak256(0x00, 0x40)\n      dup2\n      dup2\n      sload\n      dup2\n      lt\n      tag_192\n      jumpi\n      0x00\n      dup1\n      revert\n    tag_192:\n      swap1\n      0x00\n      mstore\n      keccak256(0x00, 0x20)\n      swap1\n      0x03\n      mul\n      add\n      0x00\n      swap2\n      pop\n      swap2\n      pop\n      pop\n      dup1\n      0x00\n      add\n      dup1\n      sload\n      tag_194\n      swap1\n      tag_169\n      jump\t// in\n    tag_194:\n      dup1\n      0x1f\n      add\n      0x20\n      dup1\n      swap2\n      div\n      mul\n      0x20\n      add\n      mload(0x40)\n      swap1\n      dup2\n      add\n      0x40\n      mstore\n      dup1\n      swap3\n      swap2\n      swap1\n      dup2\n      dup2\n      mstore\n      0x20\n      add\n      dup3\n      dup1\n      sload\n      tag_195\n      swap1\n      tag_169\n      jump\t// in\n    tag_195:\n      dup1\n      iszero\n      tag_196\n      jumpi\n      dup1\n      0x1f\n      lt\n      tag_197\n      jumpi\n      0x0100\n      dup1\n      dup4\n      sload\n      div\n      mul\n      dup4\n      mstore\n      swap2\n      0x20\n      add\n      swap2\n      jump(tag_196)\n    tag_197:\n      dup3\n      add\n      swap2\n      swap1\n      0x00\n      mstore\n      keccak256(0x00, 0x20)\n      swap1\n    tag_198:\n      dup2\n      sload\n      dup2\n      mstore\n      swap1\n      0x01\n      add\n      swap1\n      0x20\n      add\n      dup1\n      dup4\n      gt\n      tag_198\n      jumpi\n      dup3\n      swap1\n      sub\n      0x1f\n      and\n      dup3\n      add\n      swap2\n    tag_196:\n      pop\n      pop\n      pop\n      pop\n      pop\n      swap1\n      dup1\n      0x01\n      add\n      0x00\n      swap1\n      sload\n      swap1\n      0x0100\n      exp\n      swap1\n      div\n      0xffffffffffffffffffffffffffffffffffffffff\n      and\n      swap1\n      dup1\n      0x02\n      add\n      sload\n      swap1\n      pop\n      dup4\n      jump\t// out\n        /* \"contracts/Healthcare.sol\":486:523  mapping(address => User) public users */\n    tag_57:\n      mstore(0x20, 0x01)\n      dup1\n      0x00\n      mstore\n      keccak256(0x00, 0x40)\n      0x00\n      swap2\n      pop\n      swap1\n      pop\n      dup1\n      0x00\n      add\n      0x00\n      swap1\n      sload\n      swap1\n      0x0100\n      exp\n      swap1\n      div\n      0xff\n      and\n      swap1\n      dup1\n      0x00\n      add\n      0x01\n      swap1\n      sload\n      swap1\n      0x0100\n      exp\n      swap1\n      div\n      0xff\n      and\n      swap1\n      dup1\n      0x01\n      add\n      dup1\n      sload\n      tag_199\n      swap1\n      tag_169\n      jump\t// in\n    tag_199:\n      dup1\n      0x1f\n      add\n      0x20\n      dup1\n      swap2\n      div\n      mul\n      0x20\n      add\n      mload(0x40)\n      swap1\n      dup2\n      add\n      0x40\n      mstore\n      dup1\n      swap3\n      swap2\n      swap1\n      dup2\n      dup2\n      mstore\n      0x20\n      add\n      dup3\n      dup1\n      sload\n      tag_200\n      swap1\n      tag_169\n      jump\t// in\n    tag_200:\n      dup1\n      iszero\n      tag_201\n      jumpi\n      dup1\n      0x1f\n      lt\n      tag_202\n      jumpi\n      0x0100\n      dup1\n      dup4\n      sload\n      div\n      mul\n      dup4\n      mstore\n      swap2\n      0x20\n      add\n      swap2\n      jump(tag_201)\n    tag_202:\n      dup3\n      add\n      swap2\n      swap1\n      0x00\n      mstore\n      keccak256(0x00, 0x20)\n      swap1\n    tag_203:\n      dup2\n      sload\n      dup2\n      mstore\n      swap1\n      0x01\n      add\n      swap1\n      0x20\n      add\n      dup1\n      dup4\n      gt\n      tag_203\n      jumpi\n      dup3\n      swap1\n      sub\n      0x1f\n      and\n      dup3\n      add\n      swap2\n    tag_201:\n      pop\n      pop\n      pop\n      pop\n      pop\n      swap1\n      dup1\n      0x02\n      add\n      dup1\n      sload\n      tag_204\n      swap1\n      tag_169\n      jump\t// in\n    tag_204:\n      dup1\n      0x1f\n      add\n      0x20\n      dup1\n      swap2\n      div\n      mul\n      0x20\n      add\n      mload(0x40)\n      swap1\n      dup2\n      add\n      0x40\n      mstore\n      dup1\n      swap3\n      swap2\n      swap1\n      dup2\n      dup2\n      mstore\n      0x20\n      add\n      dup3\n      dup1\n      sload\n      tag_205\n      swap1\n      tag_169\n      jump\t// in\n    tag_205:\n      dup1\n      iszero\n      tag_206\n      jumpi\n      dup1\n      0x1f\n      lt\n      tag_207\n      jumpi\n      0x0100\n      dup1\n      dup4\n      sload\n      div\n      mul\n      dup4\n      mstore\n      swap2\n      0x20\n      add\n      swap2\n      jump(tag_206)\n    tag_207:\n      dup3\n      add\n      swap2\n      swap1\n      0x00\n      mstore\n      keccak256(0x00, 0x20)\n      swap1\n    tag_208:\n      dup2\n      sload\n      dup2\n      mstore\n      swap1\n      0x01\n      add\n      swap1\n      0x20\n      add\n      dup1\n      dup4\n      gt\n      tag_208\n      jumpi\n      dup3\n      swap1\n      sub\n      0x1f\n      and\n      dup3\n      add\n      swap2\n    tag_206:\n      pop\n      pop\n      pop\n      pop\n      pop\n      swap1\n      dup1\n      0x03\n      add\n      dup1\n      sload\n      tag_209\n      swap1\n      tag_169\n      jump\t// in\n    tag_209:\n      dup1\n      0x1f\n      add\n      0x20\n      dup1\n      swap2\n      div\n      mul\n      0x20\n      add\n      mload(0x40)\n      swap1\n      dup2\n      add\n      0x40\n      mstore\n      dup1\n      swap3\n      swap2\n      swap1\n      dup2\n      dup2\n      mstore\n      0x20\n      add\n      dup3\n      dup1\n      sload\n      tag_210\n      swap1\n      tag_169\n      jump\t// in\n    tag_210:\n      dup1\n      iszero\n      tag_211\n      jumpi\n      dup1\n      0x1f\n      lt\n      tag_212\n      jumpi\n      0x0100\n      dup1\n      dup4\n      sload\n      div\n      mul\n      dup4\n      mstore\n      swap2\n      0x20\n      add\n      swap2\n      jump(tag_211)\n    tag_212:\n      dup3\n      add\n      swap2\n      swap1\n      0x00\n      mstore\n      keccak256(0x00, 0x20)\n      swap1\n    tag_213:\n      dup2\n      sload\n      dup2\n      mstore\n      swap1\n      0x01\n      add\n      swap1\n      0x20\n      add\n      dup1\n      dup4\n      gt\n      tag_213\n      jumpi\n      dup3\n      swap1\n      sub\n      0x1f\n      and\n      dup3\n      add\n      swap2\n    tag_211:\n      pop\n      pop\n      pop\n      pop\n      pop\n      swap1\n      pop\n      dup6\n      jump\t// out\n        /* \"contracts/Healthcare.sol\":3550:3911  function getMedicalRecords(address patientAddress) external view returns (MedicalRecord[] memory) {... */\n    tag_62:\n        /* \"contracts/Healthcare.sol\":3624:3646  MedicalRecord[] memory */\n      0x60\n        /* \"contracts/Healthcare.sol\":3693:3707  patientAddress */\n      dup2\n        /* \"contracts/Healthcare.sol\":3679:3707  msg.sender == patientAddress */\n      0xffffffffffffffffffffffffffffffffffffffff\n      and\n        /* \"contracts/Healthcare.sol\":3679:3689  msg.sender */\n      caller\n        /* \"contracts/Healthcare.sol\":3679:3707  msg.sender == patientAddress */\n      0xffffffffffffffffffffffffffffffffffffffff\n      and\n      eq\n        /* \"contracts/Healthcare.sol\":3679:3802  msg.sender == patientAddress || ... */\n      dup1\n      tag_215\n      jumpi\n      pop\n        /* \"contracts/Healthcare.sol\":3750:3761  Role.DOCTOR */\n      0x02\n        /* \"contracts/Healthcare.sol\":3724:3761  users[msg.sender].role == Role.DOCTOR */\n      dup1\n      dup2\n      gt\n      iszero\n      tag_216\n      jumpi\n      tag_217\n      tag_74\n      jump\t// in\n    tag_217:\n    tag_216:\n        /* \"contracts/Healthcare.sol\":3724:3729  users */\n      0x01\n        /* \"contracts/Healthcare.sol\":3724:3741  users[msg.sender] */\n      0x00\n        /* \"contracts/Healthcare.sol\":3730:3740  msg.sender */\n      caller\n        /* \"contracts/Healthcare.sol\":3724:3741  users[msg.sender] */\n      0xffffffffffffffffffffffffffffffffffffffff\n      and\n      0xffffffffffffffffffffffffffffffffffffffff\n      and\n      dup2\n      mstore\n      0x20\n      add\n      swap1\n      dup2\n      mstore\n      0x20\n      add\n      0x00\n      keccak256\n        /* \"contracts/Healthcare.sol\":3724:3746  users[msg.sender].role */\n      0x00\n      add\n      0x00\n      swap1\n      sload\n      swap1\n      0x0100\n      exp\n      swap1\n      div\n      0xff\n      and\n        /* \"contracts/Healthcare.sol\":3724:3761  users[msg.sender].role == Role.DOCTOR */\n      0x02\n      dup2\n      gt\n      iszero\n      tag_218\n      jumpi\n      tag_219\n      tag_74\n      jump\t// in\n    tag_219:\n    tag_218:\n      eq\n        /* \"contracts/Healthcare.sol\":3724:3802  users[msg.sender].role == Role.DOCTOR && hasAccess(patientAddress, msg.sender) */\n      dup1\n      iszero\n      tag_220\n      jumpi\n      pop\n        /* \"contracts/Healthcare.sol\":3765:3802  hasAccess(patientAddress, msg.sender) */\n      tag_221\n        /* \"contracts/Healthcare.sol\":3775:3789  patientAddress */\n      dup3\n        /* \"contracts/Healthcare.sol\":3791:3801  msg.sender */\n      caller\n        /* \"contracts/Healthcare.sol\":3765:3774  hasAccess */\n      tag_23\n        /* \"contracts/Healthcare.sol\":3765:3802  hasAccess(patientAddress, msg.sender) */\n      jump\t// in\n    tag_221:\n        /* \"contracts/Healthcare.sol\":3724:3802  users[msg.sender].role == Role.DOCTOR && hasAccess(patientAddress, msg.sender) */\n    tag_220:\n        /* \"contracts/Healthcare.sol\":3679:3802  msg.sender == patientAddress || ... */\n    tag_215:\n        /* \"contracts/Healthcare.sol\":3658:3856  require(... */\n      tag_222\n      jumpi\n      mload(0x40)\n      0x08c379a000000000000000000000000000000000000000000000000000000000\n      dup2\n      mstore\n      0x04\n      add\n      tag_223\n      swap1\n      tag_224\n      jump\t// in\n    tag_223:\n      mload(0x40)\n      dup1\n      swap2\n      sub\n      swap1\n      revert\n    tag_222:\n        /* \"contracts/Healthcare.sol\":3874:3888  medicalRecords */\n      0x02\n        /* \"contracts/Healthcare.sol\":3874:3904  medicalRecords[patientAddress] */\n      0x00\n        /* \"contracts/Healthcare.sol\":3889:3903  patientAddress */\n      dup4\n        /* \"contracts/Healthcare.sol\":3874:3904  medicalRecords[patientAddress] */\n      0xffffffffffffffffffffffffffffffffffffffff\n      and\n      0xffffffffffffffffffffffffffffffffffffffff\n      and\n      dup2\n      mstore\n      0x20\n      add\n      swap1\n      dup2\n      mstore\n      0x20\n      add\n      0x00\n      keccak256\n        /* \"contracts/Healthcare.sol\":3867:3904  return medicalRecords[patientAddress] */\n      dup1\n      sload\n      dup1\n      0x20\n      mul\n      0x20\n      add\n      mload(0x40)\n      swap1\n      dup2\n      add\n      0x40\n      mstore\n      dup1\n      swap3\n      swap2\n      swap1\n      dup2\n      dup2\n      mstore\n      0x20\n      add\n      0x00\n      swap1\n    tag_225:\n      dup3\n      dup3\n      lt\n      iszero\n      tag_226\n      jumpi\n      dup4\n      dup3\n      swap1\n      0x00\n      mstore\n      keccak256(0x00, 0x20)\n      swap1\n      0x03\n      mul\n      add\n      mload(0x40)\n      dup1\n      0x60\n      add\n      0x40\n      mstore\n      swap1\n      dup2\n      0x00\n      dup3\n      add\n      dup1\n      sload\n      tag_228\n      swap1\n      tag_169\n      jump\t// in\n    tag_228:\n      dup1\n      0x1f\n      add\n      0x20\n      dup1\n      swap2\n      div\n      mul\n      0x20\n      add\n      mload(0x40)\n      swap1\n      dup2\n      add\n      0x40\n      mstore\n      dup1\n      swap3\n      swap2\n      swap1\n      dup2\n      dup2\n      mstore\n      0x20\n      add\n      dup3\n      dup1\n      sload\n      tag_229\n      swap1\n      tag_169\n      jump\t// in\n    tag_229:\n      dup1\n      iszero\n      tag_230\n      jumpi\n      dup1\n      0x1f\n      lt\n      tag_231\n      jumpi\n      0x0100\n      dup1\n      dup4\n      sload\n      div\n      mul\n      dup4\n      mstore\n      swap2\n      0x20\n      add\n      swap2\n      jump(tag_230)\n    tag_231:\n      dup3\n      add\n      swap2\n      swap1\n      0x00\n      mstore\n      keccak256(0x00, 0x20)\n      swap1\n    tag_232:\n      dup2\n      sload\n      dup2\n      mstore\n      swap1\n      0x01\n      add\n      swap1\n      0x20\n      add\n      dup1\n      dup4\n      gt\n      tag_232\n      jumpi\n      dup3\n      swap1\n      sub\n      0x1f\n      and\n      dup3\n      add\n      swap2\n    tag_230:\n      pop\n      pop\n      pop\n      pop\n      pop\n      dup2\n      mstore\n      0x20\n      add\n      0x01\n      dup3\n      add\n      0x00\n      swap1\n      sload\n      swap1\n      0x0100\n      exp\n      swap1\n      div\n      0xffffffffffffffffffffffffffffffffffffffff\n      and\n      0xffffffffffffffffffffffffffffffffffffffff\n      and\n      0xffffffffffffffffffffffffffffffffffffffff\n      and\n      dup2\n      mstore\n      0x20\n      add\n      0x02\n      dup3\n      add\n      sload\n      dup2\n      mstore\n      pop\n      pop\n      dup2\n      mstore\n      0x20\n      add\n      swap1\n      0x01\n      add\n      swap1\n      jump(tag_225)\n    tag_226:\n      pop\n      pop\n      pop\n      pop\n      swap1\n      pop\n        /* \"contracts/Healthcare.sol\":3550:3911  function getMedicalRecords(address patientAddress) external view returns (MedicalRecord[] memory) {... */\n      swap2\n      swap1\n      pop\n      jump\t// out\n        /* \"contracts/Healthcare.sol\":1932:2257  function verifyDoctor(address doctorAddress) external onlyAdmin {... */\n    tag_67:\n        /* \"contracts/Healthcare.sol\":996:1001  admin */\n      0x00\n      0x00\n      swap1\n      sload\n      swap1\n      0x0100\n      exp\n      swap1\n      div\n      0xffffffffffffffffffffffffffffffffffffffff\n      and\n        /* \"contracts/Healthcare.sol\":982:1001  msg.sender == admin */\n      0xffffffffffffffffffffffffffffffffffffffff\n      and\n        /* \"contracts/Healthcare.sol\":982:992  msg.sender */\n      caller\n        /* \"contracts/Healthcare.sol\":982:1001  msg.sender == admin */\n      0xffffffffffffffffffffffffffffffffffffffff\n      and\n      eq\n        /* \"contracts/Healthcare.sol\":974:1039  require(msg.sender == admin, \"Only admin can call this function\") */\n      tag_234\n      jumpi\n      mload(0x40)\n      0x08c379a000000000000000000000000000000000000000000000000000000000\n      dup2\n      mstore\n      0x04\n      add\n      tag_235\n      swap1\n      tag_236\n      jump\t// in\n    tag_235:\n      mload(0x40)\n      dup1\n      swap2\n      sub\n      swap1\n      revert\n    tag_234:\n        /* \"contracts/Healthcare.sol\":2043:2054  Role.DOCTOR */\n      0x02\n        /* \"contracts/Healthcare.sol\":2014:2054  users[doctorAddress].role == Role.DOCTOR */\n      dup1\n      dup2\n      gt\n      iszero\n      tag_238\n      jumpi\n      tag_239\n      tag_74\n      jump\t// in\n    tag_239:\n    tag_238:\n        /* \"contracts/Healthcare.sol\":2014:2019  users */\n      0x01\n        /* \"contracts/Healthcare.sol\":2014:2034  users[doctorAddress] */\n      0x00\n        /* \"contracts/Healthcare.sol\":2020:2033  doctorAddress */\n      dup4\n        /* \"contracts/Healthcare.sol\":2014:2034  users[doctorAddress] */\n      0xffffffffffffffffffffffffffffffffffffffff\n      and\n      0xffffffffffffffffffffffffffffffffffffffff\n      and\n      dup2\n      mstore\n      0x20\n      add\n      swap1\n      dup2\n      mstore\n      0x20\n      add\n      0x00\n      keccak256\n        /* \"contracts/Healthcare.sol\":2014:2039  users[doctorAddress].role */\n      0x00\n      add\n      0x00\n      swap1\n      sload\n      swap1\n      0x0100\n      exp\n      swap1\n      div\n      0xff\n      and\n        /* \"contracts/Healthcare.sol\":2014:2054  users[doctorAddress].role == Role.DOCTOR */\n      0x02\n      dup2\n      gt\n      iszero\n      tag_240\n      jumpi\n      tag_241\n      tag_74\n      jump\t// in\n    tag_241:\n    tag_240:\n      eq\n        /* \"contracts/Healthcare.sol\":2006:2079  require(users[doctorAddress].role == Role.DOCTOR, \"User is not a doctor\") */\n      tag_242\n      jumpi\n      mload(0x40)\n      0x08c379a000000000000000000000000000000000000000000000000000000000\n      dup2\n      mstore\n      0x04\n      add\n      tag_243\n      swap1\n      tag_244\n      jump\t// in\n    tag_243:\n      mload(0x40)\n      dup1\n      swap2\n      sub\n      swap1\n      revert\n    tag_242:\n        /* \"contracts/Healthcare.sol\":2098:2103  users */\n      0x01\n        /* \"contracts/Healthcare.sol\":2098:2118  users[doctorAddress] */\n      0x00\n        /* \"contracts/Healthcare.sol\":2104:2117  doctorAddress */\n      dup3\n        /* \"contracts/Healthcare.sol\":2098:2118  users[doctorAddress] */\n      0xffffffffffffffffffffffffffffffffffffffff\n      and\n      0xffffffffffffffffffffffffffffffffffffffff\n      and\n      dup2\n      mstore\n      0x20\n      add\n      swap1\n      dup2\n      mstore\n      0x20\n      add\n      0x00\n      keccak256\n        /* \"contracts/Healthcare.sol\":2098:2129  users[doctorAddress].isVerified */\n      0x00\n      add\n      0x01\n      swap1\n      sload\n      swap1\n      0x0100\n      exp\n      swap1\n      div\n      0xff\n      and\n        /* \"contracts/Healthcare.sol\":2097:2129  !users[doctorAddress].isVerified */\n      iszero\n        /* \"contracts/Healthcare.sol\":2089:2157  require(!users[doctorAddress].isVerified, \"Doctor already verified\") */\n      tag_245\n      jumpi\n      mload(0x40)\n      0x08c379a000000000000000000000000000000000000000000000000000000000\n      dup2\n      mstore\n      0x04\n      add\n      tag_246\n      swap1\n      tag_247\n      jump\t// in\n    tag_246:\n      mload(0x40)\n      dup1\n      swap2\n      sub\n      swap1\n      revert\n    tag_245:\n        /* \"contracts/Healthcare.sol\":2202:2206  true */\n      0x01\n        /* \"contracts/Healthcare.sol\":2168:2173  users */\n      dup1\n        /* \"contracts/Healthcare.sol\":2168:2188  users[doctorAddress] */\n      0x00\n        /* \"contracts/Healthcare.sol\":2174:2187  doctorAddress */\n      dup4\n        /* \"contracts/Healthcare.sol\":2168:2188  users[doctorAddress] */\n      0xffffffffffffffffffffffffffffffffffffffff\n      and\n      0xffffffffffffffffffffffffffffffffffffffff\n      and\n      dup2\n      mstore\n      0x20\n      add\n      swap1\n      dup2\n      mstore\n      0x20\n      add\n      0x00\n      keccak256\n        /* \"contracts/Healthcare.sol\":2168:2199  users[doctorAddress].isVerified */\n      0x00\n      add\n      0x01\n        /* \"contracts/Healthcare.sol\":2168:2206  users[doctorAddress].isVerified = true */\n      0x0100\n      exp\n      dup2\n      sload\n      dup2\n      0xff\n      mul\n      not\n      and\n      swap1\n      dup4\n      iszero\n      iszero\n      mul\n      or\n      swap1\n      sstore\n      pop\n        /* \"contracts/Healthcare.sol\":2236:2249  doctorAddress */\n      dup1\n        /* \"contracts/Healthcare.sol\":2221:2250  DoctorVerified(doctorAddress) */\n      0xffffffffffffffffffffffffffffffffffffffff\n      and\n      0xb0859f2cf042b300c8948cdd785ec6a23a3742bc5446c19f4b270b67fac2c967\n      mload(0x40)\n      mload(0x40)\n      dup1\n      swap2\n      sub\n      swap1\n      log2\n        /* \"contracts/Healthcare.sol\":1932:2257  function verifyDoctor(address doctorAddress) external onlyAdmin {... */\n      pop\n      jump\t// out\n        /* \"contracts/Healthcare.sol\":459:479  address public admin */\n    tag_69:\n      0x00\n      0x00\n      swap1\n      sload\n      swap1\n      0x0100\n      exp\n      swap1\n      div\n      0xffffffffffffffffffffffffffffffffffffffff\n      and\n      dup2\n      jump\t// out\n        /* \"#utility.yul\":7:82   */\n    tag_248:\n        /* \"#utility.yul\":40:46   */\n      0x00\n        /* \"#utility.yul\":73:75   */\n      0x40\n        /* \"#utility.yul\":67:76   */\n      mload\n        /* \"#utility.yul\":57:76   */\n      swap1\n      pop\n        /* \"#utility.yul\":7:82   */\n      swap1\n      jump\t// out\n        /* \"#utility.yul\":88:205   */\n    tag_249:\n        /* \"#utility.yul\":197:198   */\n      0x00\n        /* \"#utility.yul\":194:195   */\n      0x00\n        /* \"#utility.yul\":187:199   */\n      revert\n        /* \"#utility.yul\":211:328   */\n    tag_250:\n        /* \"#utility.yul\":320:321   */\n      0x00\n        /* \"#utility.yul\":317:318   */\n      0x00\n        /* \"#utility.yul\":310:322   */\n      revert\n        /* \"#utility.yul\":334:460   */\n    tag_251:\n        /* \"#utility.yul\":371:378   */\n      0x00\n        /* \"#utility.yul\":411:453   */\n      0xffffffffffffffffffffffffffffffffffffffff\n        /* \"#utility.yul\":404:409   */\n      dup3\n        /* \"#utility.yul\":400:454   */\n      and\n        /* \"#utility.yul\":389:454   */\n      swap1\n      pop\n        /* \"#utility.yul\":334:460   */\n      swap2\n      swap1\n      pop\n      jump\t// out\n        /* \"#utility.yul\":466:562   */\n    tag_252:\n        /* \"#utility.yul\":503:510   */\n      0x00\n        /* \"#utility.yul\":532:556   */\n      tag_345\n        /* \"#utility.yul\":550:555   */\n      dup3\n        /* \"#utility.yul\":532:556   */\n      tag_251\n      jump\t// in\n    tag_345:\n        /* \"#utility.yul\":521:556   */\n      swap1\n      pop\n        /* \"#utility.yul\":466:562   */\n      swap2\n      swap1\n      pop\n      jump\t// out\n        /* \"#utility.yul\":568:690   */\n    tag_253:\n        /* \"#utility.yul\":641:665   */\n      tag_347\n        /* \"#utility.yul\":659:664   */\n      dup2\n        /* \"#utility.yul\":641:665   */\n      tag_252\n      jump\t// in\n    tag_347:\n        /* \"#utility.yul\":634:639   */\n      dup2\n        /* \"#utility.yul\":631:666   */\n      eq\n        /* \"#utility.yul\":621:684   */\n      tag_348\n      jumpi\n        /* \"#utility.yul\":680:681   */\n      0x00\n        /* \"#utility.yul\":677:678   */\n      0x00\n        /* \"#utility.yul\":670:682   */\n      revert\n        /* \"#utility.yul\":621:684   */\n    tag_348:\n        /* \"#utility.yul\":568:690   */\n      pop\n      jump\t// out\n        /* \"#utility.yul\":696:835   */\n    tag_254:\n        /* \"#utility.yul\":742:747   */\n      0x00\n        /* \"#utility.yul\":780:786   */\n      dup2\n        /* \"#utility.yul\":767:787   */\n      calldataload\n        /* \"#utility.yul\":758:787   */\n      swap1\n      pop\n        /* \"#utility.yul\":796:829   */\n      tag_350\n        /* \"#utility.yul\":823:828   */\n      dup2\n        /* \"#utility.yul\":796:829   */\n      tag_253\n      jump\t// in\n    tag_350:\n        /* \"#utility.yul\":696:835   */\n      swap3\n      swap2\n      pop\n      pop\n      jump\t// out\n        /* \"#utility.yul\":841:1170   */\n    tag_18:\n        /* \"#utility.yul\":900:906   */\n      0x00\n        /* \"#utility.yul\":949:951   */\n      0x20\n        /* \"#utility.yul\":937:946   */\n      dup3\n        /* \"#utility.yul\":928:935   */\n      dup5\n        /* \"#utility.yul\":924:947   */\n      sub\n        /* \"#utility.yul\":920:952   */\n      slt\n        /* \"#utility.yul\":917:1036   */\n      iszero\n      tag_352\n      jumpi\n        /* \"#utility.yul\":955:1034   */\n      tag_353\n      tag_249\n      jump\t// in\n    tag_353:\n        /* \"#utility.yul\":917:1036   */\n    tag_352:\n        /* \"#utility.yul\":1075:1076   */\n      0x00\n        /* \"#utility.yul\":1100:1153   */\n      tag_354\n        /* \"#utility.yul\":1145:1152   */\n      dup5\n        /* \"#utility.yul\":1136:1142   */\n      dup3\n        /* \"#utility.yul\":1125:1134   */\n      dup6\n        /* \"#utility.yul\":1121:1143   */\n      add\n        /* \"#utility.yul\":1100:1153   */\n      tag_254\n      jump\t// in\n    tag_354:\n        /* \"#utility.yul\":1090:1153   */\n      swap2\n      pop\n        /* \"#utility.yul\":1046:1163   */\n      pop\n        /* \"#utility.yul\":841:1170   */\n      swap3\n      swap2\n      pop\n      pop\n      jump\t// out\n        /* \"#utility.yul\":1176:1650   */\n    tag_22:\n        /* \"#utility.yul\":1244:1250   */\n      0x00\n        /* \"#utility.yul\":1252:1258   */\n      0x00\n        /* \"#utility.yul\":1301:1303   */\n      0x40\n        /* \"#utility.yul\":1289:1298   */\n      dup4\n        /* \"#utility.yul\":1280:1287   */\n      dup6\n        /* \"#utility.yul\":1276:1299   */\n      sub\n        /* \"#utility.yul\":1272:1304   */\n      slt\n        /* \"#utility.yul\":1269:1388   */\n      iszero\n      tag_356\n      jumpi\n        /* \"#utility.yul\":1307:1386   */\n      tag_357\n      tag_249\n      jump\t// in\n    tag_357:\n        /* \"#utility.yul\":1269:1388   */\n    tag_356:\n        /* \"#utility.yul\":1427:1428   */\n      0x00\n        /* \"#utility.yul\":1452:1505   */\n      tag_358\n        /* \"#utility.yul\":1497:1504   */\n      dup6\n        /* \"#utility.yul\":1488:1494   */\n      dup3\n        /* \"#utility.yul\":1477:1486   */\n      dup7\n        /* \"#utility.yul\":1473:1495   */\n      add\n        /* \"#utility.yul\":1452:1505   */\n      tag_254\n      jump\t// in\n    tag_358:\n        /* \"#utility.yul\":1442:1505   */\n      swap3\n      pop\n        /* \"#utility.yul\":1398:1515   */\n      pop\n        /* \"#utility.yul\":1554:1556   */\n      0x20\n        /* \"#utility.yul\":1580:1633   */\n      tag_359\n        /* \"#utility.yul\":1625:1632   */\n      dup6\n        /* \"#utility.yul\":1616:1622   */\n      dup3\n        /* \"#utility.yul\":1605:1614   */\n      dup7\n        /* \"#utility.yul\":1601:1623   */\n      add\n        /* \"#utility.yul\":1580:1633   */\n      tag_254\n      jump\t// in\n    tag_359:\n        /* \"#utility.yul\":1570:1633   */\n      swap2\n      pop\n        /* \"#utility.yul\":1525:1643   */\n      pop\n        /* \"#utility.yul\":1176:1650   */\n      swap3\n      pop\n      swap3\n      swap1\n      pop\n      jump\t// out\n        /* \"#utility.yul\":1656:1746   */\n    tag_255:\n        /* \"#utility.yul\":1690:1697   */\n      0x00\n        /* \"#utility.yul\":1733:1738   */\n      dup2\n        /* \"#utility.yul\":1726:1739   */\n      iszero\n        /* \"#utility.yul\":1719:1740   */\n      iszero\n        /* \"#utility.yul\":1708:1740   */\n      swap1\n      pop\n        /* \"#utility.yul\":1656:1746   */\n      swap2\n      swap1\n      pop\n      jump\t// out\n        /* \"#utility.yul\":1752:1861   */\n    tag_256:\n        /* \"#utility.yul\":1833:1854   */\n      tag_362\n        /* \"#utility.yul\":1848:1853   */\n      dup2\n        /* \"#utility.yul\":1833:1854   */\n      tag_255\n      jump\t// in\n    tag_362:\n        /* \"#utility.yul\":1828:1831   */\n      dup3\n        /* \"#utility.yul\":1821:1855   */\n      mstore\n        /* \"#utility.yul\":1752:1861   */\n      pop\n      pop\n      jump\t// out\n        /* \"#utility.yul\":1867:2077   */\n    tag_25:\n        /* \"#utility.yul\":1954:1958   */\n      0x00\n        /* \"#utility.yul\":1992:1994   */\n      0x20\n        /* \"#utility.yul\":1981:1990   */\n      dup3\n        /* \"#utility.yul\":1977:1995   */\n      add\n        /* \"#utility.yul\":1969:1995   */\n      swap1\n      pop\n        /* \"#utility.yul\":2005:2070   */\n      tag_364\n        /* \"#utility.yul\":2067:2068   */\n      0x00\n        /* \"#utility.yul\":2056:2065   */\n      dup4\n        /* \"#utility.yul\":2052:2069   */\n      add\n        /* \"#utility.yul\":2043:2049   */\n      dup5\n        /* \"#utility.yul\":2005:2070   */\n      tag_256\n      jump\t// in\n    tag_364:\n        /* \"#utility.yul\":1867:2077   */\n      swap3\n      swap2\n      pop\n      pop\n      jump\t// out\n        /* \"#utility.yul\":2083:2200   */\n    tag_257:\n        /* \"#utility.yul\":2192:2193   */\n      0x00\n        /* \"#utility.yul\":2189:2190   */\n      0x00\n        /* \"#utility.yul\":2182:2194   */\n      revert\n        /* \"#utility.yul\":2206:2323   */\n    tag_258:\n        /* \"#utility.yul\":2315:2316   */\n      0x00\n        /* \"#utility.yul\":2312:2313   */\n      0x00\n        /* \"#utility.yul\":2305:2317   */\n      revert\n        /* \"#utility.yul\":2329:2431   */\n    tag_259:\n        /* \"#utility.yul\":2370:2376   */\n      0x00\n        /* \"#utility.yul\":2421:2423   */\n      0x1f\n        /* \"#utility.yul\":2417:2424   */\n      not\n        /* \"#utility.yul\":2412:2414   */\n      0x1f\n        /* \"#utility.yul\":2405:2410   */\n      dup4\n        /* \"#utility.yul\":2401:2415   */\n      add\n        /* \"#utility.yul\":2397:2425   */\n      and\n        /* \"#utility.yul\":2387:2425   */\n      swap1\n      pop\n        /* \"#utility.yul\":2329:2431   */\n      swap2\n      swap1\n      pop\n      jump\t// out\n        /* \"#utility.yul\":2437:2617   */\n    tag_260:\n        /* \"#utility.yul\":2485:2562   */\n      0x4e487b7100000000000000000000000000000000000000000000000000000000\n        /* \"#utility.yul\":2482:2483   */\n      0x00\n        /* \"#utility.yul\":2475:2563   */\n      mstore\n        /* \"#utility.yul\":2582:2586   */\n      0x41\n        /* \"#utility.yul\":2579:2580   */\n      0x04\n        /* \"#utility.yul\":2572:2587   */\n      mstore\n        /* \"#utility.yul\":2606:2610   */\n      0x24\n        /* \"#utility.yul\":2603:2604   */\n      0x00\n        /* \"#utility.yul\":2596:2611   */\n      revert\n        /* \"#utility.yul\":2623:2904   */\n    tag_261:\n        /* \"#utility.yul\":2706:2733   */\n      tag_370\n        /* \"#utility.yul\":2728:2732   */\n      dup3\n        /* \"#utility.yul\":2706:2733   */\n      tag_259\n      jump\t// in\n    tag_370:\n        /* \"#utility.yul\":2698:2704   */\n      dup2\n        /* \"#utility.yul\":2694:2734   */\n      add\n        /* \"#utility.yul\":2836:2842   */\n      dup2\n        /* \"#utility.yul\":2824:2834   */\n      dup2\n        /* \"#utility.yul\":2821:2843   */\n      lt\n        /* \"#utility.yul\":2800:2818   */\n      0xffffffffffffffff\n        /* \"#utility.yul\":2788:2798   */\n      dup3\n        /* \"#utility.yul\":2785:2819   */\n      gt\n        /* \"#utility.yul\":2782:2844   */\n      or\n        /* \"#utility.yul\":2779:2867   */\n      iszero\n      tag_371\n      jumpi\n        /* \"#utility.yul\":2847:2865   */\n      tag_372\n      tag_260\n      jump\t// in\n    tag_372:\n        /* \"#utility.yul\":2779:2867   */\n    tag_371:\n        /* \"#utility.yul\":2887:2897   */\n      dup1\n        /* \"#utility.yul\":2883:2885   */\n      0x40\n        /* \"#utility.yul\":2876:2898   */\n      mstore\n        /* \"#utility.yul\":2666:2904   */\n      pop\n        /* \"#utility.yul\":2623:2904   */\n      pop\n      pop\n      jump\t// out\n        /* \"#utility.yul\":2910:3039   */\n    tag_262:\n        /* \"#utility.yul\":2944:2950   */\n      0x00\n        /* \"#utility.yul\":2971:2991   */\n      tag_374\n      tag_248\n      jump\t// in\n    tag_374:\n        /* \"#utility.yul\":2961:2991   */\n      swap1\n      pop\n        /* \"#utility.yul\":3000:3033   */\n      tag_375\n        /* \"#utility.yul\":3028:3032   */\n      dup3\n        /* \"#utility.yul\":3020:3026   */\n      dup3\n        /* \"#utility.yul\":3000:3033   */\n      tag_261\n      jump\t// in\n    tag_375:\n        /* \"#utility.yul\":2910:3039   */\n      swap2\n      swap1\n      pop\n      jump\t// out\n        /* \"#utility.yul\":3045:3353   */\n    tag_263:\n        /* \"#utility.yul\":3107:3111   */\n      0x00\n        /* \"#utility.yul\":3197:3215   */\n      0xffffffffffffffff\n        /* \"#utility.yul\":3189:3195   */\n      dup3\n        /* \"#utility.yul\":3186:3216   */\n      gt\n        /* \"#utility.yul\":3183:3239   */\n      iszero\n      tag_377\n      jumpi\n        /* \"#utility.yul\":3219:3237   */\n      tag_378\n      tag_260\n      jump\t// in\n    tag_378:\n        /* \"#utility.yul\":3183:3239   */\n    tag_377:\n        /* \"#utility.yul\":3257:3286   */\n      tag_379\n        /* \"#utility.yul\":3279:3285   */\n      dup3\n        /* \"#utility.yul\":3257:3286   */\n      tag_259\n      jump\t// in\n    tag_379:\n        /* \"#utility.yul\":3249:3286   */\n      swap1\n      pop\n        /* \"#utility.yul\":3341:3345   */\n      0x20\n        /* \"#utility.yul\":3335:3339   */\n      dup2\n        /* \"#utility.yul\":3331:3346   */\n      add\n        /* \"#utility.yul\":3323:3346   */\n      swap1\n      pop\n        /* \"#utility.yul\":3045:3353   */\n      swap2\n      swap1\n      pop\n      jump\t// out\n        /* \"#utility.yul\":3359:3507   */\n    tag_264:\n        /* \"#utility.yul\":3457:3463   */\n      dup3\n        /* \"#utility.yul\":3452:3455   */\n      dup2\n        /* \"#utility.yul\":3447:3450   */\n      dup4\n        /* \"#utility.yul\":3434:3464   */\n      calldatacopy\n        /* \"#utility.yul\":3498:3499   */\n      0x00\n        /* \"#utility.yul\":3489:3495   */\n      dup4\n        /* \"#utility.yul\":3484:3487   */\n      dup4\n        /* \"#utility.yul\":3480:3496   */\n      add\n        /* \"#utility.yul\":3473:3500   */\n      mstore\n        /* \"#utility.yul\":3359:3507   */\n      pop\n      pop\n      pop\n      jump\t// out\n        /* \"#utility.yul\":3513:3938   */\n    tag_265:\n        /* \"#utility.yul\":3591:3596   */\n      0x00\n        /* \"#utility.yul\":3616:3682   */\n      tag_382\n        /* \"#utility.yul\":3632:3681   */\n      tag_383\n        /* \"#utility.yul\":3674:3680   */\n      dup5\n        /* \"#utility.yul\":3632:3681   */\n      tag_263\n      jump\t// in\n    tag_383:\n        /* \"#utility.yul\":3616:3682   */\n      tag_262\n      jump\t// in\n    tag_382:\n        /* \"#utility.yul\":3607:3682   */\n      swap1\n      pop\n        /* \"#utility.yul\":3705:3711   */\n      dup3\n        /* \"#utility.yul\":3698:3703   */\n      dup2\n        /* \"#utility.yul\":3691:3712   */\n      mstore\n        /* \"#utility.yul\":3743:3747   */\n      0x20\n        /* \"#utility.yul\":3736:3741   */\n      dup2\n        /* \"#utility.yul\":3732:3748   */\n      add\n        /* \"#utility.yul\":3781:3784   */\n      dup5\n        /* \"#utility.yul\":3772:3778   */\n      dup5\n        /* \"#utility.yul\":3767:3770   */\n      dup5\n        /* \"#utility.yul\":3763:3779   */\n      add\n        /* \"#utility.yul\":3760:3785   */\n      gt\n        /* \"#utility.yul\":3757:3869   */\n      iszero\n      tag_384\n      jumpi\n        /* \"#utility.yul\":3788:3867   */\n      tag_385\n      tag_258\n      jump\t// in\n    tag_385:\n        /* \"#utility.yul\":3757:3869   */\n    tag_384:\n        /* \"#utility.yul\":3878:3932   */\n      tag_386\n        /* \"#utility.yul\":3925:3931   */\n      dup5\n        /* \"#utility.yul\":3920:3923   */\n      dup3\n        /* \"#utility.yul\":3915:3918   */\n      dup6\n        /* \"#utility.yul\":3878:3932   */\n      tag_264\n      jump\t// in\n    tag_386:\n        /* \"#utility.yul\":3597:3938   */\n      pop\n        /* \"#utility.yul\":3513:3938   */\n      swap4\n      swap3\n      pop\n      pop\n      pop\n      jump\t// out\n        /* \"#utility.yul\":3958:4298   */\n    tag_266:\n        /* \"#utility.yul\":4014:4019   */\n      0x00\n        /* \"#utility.yul\":4063:4066   */\n      dup3\n        /* \"#utility.yul\":4056:4060   */\n      0x1f\n        /* \"#utility.yul\":4048:4054   */\n      dup4\n        /* \"#utility.yul\":4044:4061   */\n      add\n        /* \"#utility.yul\":4040:4067   */\n      slt\n        /* \"#utility.yul\":4030:4152   */\n      tag_388\n      jumpi\n        /* \"#utility.yul\":4071:4150   */\n      tag_389\n      tag_257\n      jump\t// in\n    tag_389:\n        /* \"#utility.yul\":4030:4152   */\n    tag_388:\n        /* \"#utility.yul\":4188:4194   */\n      dup2\n        /* \"#utility.yul\":4175:4195   */\n      calldataload\n        /* \"#utility.yul\":4213:4292   */\n      tag_390\n        /* \"#utility.yul\":4288:4291   */\n      dup5\n        /* \"#utility.yul\":4280:4286   */\n      dup3\n        /* \"#utility.yul\":4273:4277   */\n      0x20\n        /* \"#utility.yul\":4265:4271   */\n      dup7\n        /* \"#utility.yul\":4261:4278   */\n      add\n        /* \"#utility.yul\":4213:4292   */\n      tag_265\n      jump\t// in\n    tag_390:\n        /* \"#utility.yul\":4204:4292   */\n      swap2\n      pop\n        /* \"#utility.yul\":4020:4298   */\n      pop\n        /* \"#utility.yul\":3958:4298   */\n      swap3\n      swap2\n      pop\n      pop\n      jump\t// out\n        /* \"#utility.yul\":4304:4958   */\n    tag_28:\n        /* \"#utility.yul\":4382:4388   */\n      0x00\n        /* \"#utility.yul\":4390:4396   */\n      0x00\n        /* \"#utility.yul\":4439:4441   */\n      0x40\n        /* \"#utility.yul\":4427:4436   */\n      dup4\n        /* \"#utility.yul\":4418:4425   */\n      dup6\n        /* \"#utility.yul\":4414:4437   */\n      sub\n        /* \"#utility.yul\":4410:4442   */\n      slt\n        /* \"#utility.yul\":4407:4526   */\n      iszero\n      tag_392\n      jumpi\n        /* \"#utility.yul\":4445:4524   */\n      tag_393\n      tag_249\n      jump\t// in\n    tag_393:\n        /* \"#utility.yul\":4407:4526   */\n    tag_392:\n        /* \"#utility.yul\":4565:4566   */\n      0x00\n        /* \"#utility.yul\":4590:4643   */\n      tag_394\n        /* \"#utility.yul\":4635:4642   */\n      dup6\n        /* \"#utility.yul\":4626:4632   */\n      dup3\n        /* \"#utility.yul\":4615:4624   */\n      dup7\n        /* \"#utility.yul\":4611:4633   */\n      add\n        /* \"#utility.yul\":4590:4643   */\n      tag_254\n      jump\t// in\n    tag_394:\n        /* \"#utility.yul\":4580:4643   */\n      swap3\n      pop\n        /* \"#utility.yul\":4536:4653   */\n      pop\n        /* \"#utility.yul\":4720:4722   */\n      0x20\n        /* \"#utility.yul\":4709:4718   */\n      dup4\n        /* \"#utility.yul\":4705:4723   */\n      add\n        /* \"#utility.yul\":4692:4724   */\n      calldataload\n        /* \"#utility.yul\":4751:4769   */\n      0xffffffffffffffff\n        /* \"#utility.yul\":4743:4749   */\n      dup2\n        /* \"#utility.yul\":4740:4770   */\n      gt\n        /* \"#utility.yul\":4737:4854   */\n      iszero\n      tag_395\n      jumpi\n        /* \"#utility.yul\":4773:4852   */\n      tag_396\n      tag_250\n      jump\t// in\n    tag_396:\n        /* \"#utility.yul\":4737:4854   */\n    tag_395:\n        /* \"#utility.yul\":4878:4941   */\n      tag_397\n        /* \"#utility.yul\":4933:4940   */\n      dup6\n        /* \"#utility.yul\":4924:4930   */\n      dup3\n        /* \"#utility.yul\":4913:4922   */\n      dup7\n        /* \"#utility.yul\":4909:4931   */\n      add\n        /* \"#utility.yul\":4878:4941   */\n      tag_266\n      jump\t// in\n    tag_397:\n        /* \"#utility.yul\":4868:4941   */\n      swap2\n      pop\n        /* \"#utility.yul\":4663:4951   */\n      pop\n        /* \"#utility.yul\":4304:4958   */\n      swap3\n      pop\n      swap3\n      swap1\n      pop\n      jump\t// out\n        /* \"#utility.yul\":4964:5069   */\n    tag_267:\n        /* \"#utility.yul\":5043:5044   */\n      0x03\n        /* \"#utility.yul\":5036:5041   */\n      dup2\n        /* \"#utility.yul\":5033:5045   */\n      lt\n        /* \"#utility.yul\":5023:5063   */\n      tag_399\n      jumpi\n        /* \"#utility.yul\":5059:5060   */\n      0x00\n        /* \"#utility.yul\":5056:5057   */\n      0x00\n        /* \"#utility.yul\":5049:5061   */\n      revert\n        /* \"#utility.yul\":5023:5063   */\n    tag_399:\n        /* \"#utility.yul\":4964:5069   */\n      pop\n      jump\t// out\n        /* \"#utility.yul\":5075:5226   */\n    tag_268:\n        /* \"#utility.yul\":5127:5132   */\n      0x00\n        /* \"#utility.yul\":5165:5171   */\n      dup2\n        /* \"#utility.yul\":5152:5172   */\n      calldataload\n        /* \"#utility.yul\":5143:5172   */\n      swap1\n      pop\n        /* \"#utility.yul\":5181:5220   */\n      tag_401\n        /* \"#utility.yul\":5214:5219   */\n      dup2\n        /* \"#utility.yul\":5181:5220   */\n      tag_267\n      jump\t// in\n    tag_401:\n        /* \"#utility.yul\":5075:5226   */\n      swap3\n      swap2\n      pop\n      pop\n      jump\t// out\n        /* \"#utility.yul\":5232:6549   */\n    tag_32:\n        /* \"#utility.yul\":5354:5360   */\n      0x00\n        /* \"#utility.yul\":5362:5368   */\n      0x00\n        /* \"#utility.yul\":5370:5376   */\n      0x00\n        /* \"#utility.yul\":5378:5384   */\n      0x00\n        /* \"#utility.yul\":5427:5430   */\n      0x80\n        /* \"#utility.yul\":5415:5424   */\n      dup6\n        /* \"#utility.yul\":5406:5413   */\n      dup8\n        /* \"#utility.yul\":5402:5425   */\n      sub\n        /* \"#utility.yul\":5398:5431   */\n      slt\n        /* \"#utility.yul\":5395:5515   */\n      iszero\n      tag_403\n      jumpi\n        /* \"#utility.yul\":5434:5513   */\n      tag_404\n      tag_249\n      jump\t// in\n    tag_404:\n        /* \"#utility.yul\":5395:5515   */\n    tag_403:\n        /* \"#utility.yul\":5582:5583   */\n      0x00\n        /* \"#utility.yul\":5571:5580   */\n      dup6\n        /* \"#utility.yul\":5567:5584   */\n      add\n        /* \"#utility.yul\":5554:5585   */\n      calldataload\n        /* \"#utility.yul\":5612:5630   */\n      0xffffffffffffffff\n        /* \"#utility.yul\":5604:5610   */\n      dup2\n        /* \"#utility.yul\":5601:5631   */\n      gt\n        /* \"#utility.yul\":5598:5715   */\n      iszero\n      tag_405\n      jumpi\n        /* \"#utility.yul\":5634:5713   */\n      tag_406\n      tag_250\n      jump\t// in\n    tag_406:\n        /* \"#utility.yul\":5598:5715   */\n    tag_405:\n        /* \"#utility.yul\":5739:5802   */\n      tag_407\n        /* \"#utility.yul\":5794:5801   */\n      dup8\n        /* \"#utility.yul\":5785:5791   */\n      dup3\n        /* \"#utility.yul\":5774:5783   */\n      dup9\n        /* \"#utility.yul\":5770:5792   */\n      add\n        /* \"#utility.yul\":5739:5802   */\n      tag_266\n      jump\t// in\n    tag_407:\n        /* \"#utility.yul\":5729:5802   */\n      swap5\n      pop\n        /* \"#utility.yul\":5525:5812   */\n      pop\n        /* \"#utility.yul\":5879:5881   */\n      0x20\n        /* \"#utility.yul\":5868:5877   */\n      dup6\n        /* \"#utility.yul\":5864:5882   */\n      add\n        /* \"#utility.yul\":5851:5883   */\n      calldataload\n        /* \"#utility.yul\":5910:5928   */\n      0xffffffffffffffff\n        /* \"#utility.yul\":5902:5908   */\n      dup2\n        /* \"#utility.yul\":5899:5929   */\n      gt\n        /* \"#utility.yul\":5896:6013   */\n      iszero\n      tag_408\n      jumpi\n        /* \"#utility.yul\":5932:6011   */\n      tag_409\n      tag_250\n      jump\t// in\n    tag_409:\n        /* \"#utility.yul\":5896:6013   */\n    tag_408:\n        /* \"#utility.yul\":6037:6100   */\n      tag_410\n        /* \"#utility.yul\":6092:6099   */\n      dup8\n        /* \"#utility.yul\":6083:6089   */\n      dup3\n        /* \"#utility.yul\":6072:6081   */\n      dup9\n        /* \"#utility.yul\":6068:6090   */\n      add\n        /* \"#utility.yul\":6037:6100   */\n      tag_266\n      jump\t// in\n    tag_410:\n        /* \"#utility.yul\":6027:6100   */\n      swap4\n      pop\n        /* \"#utility.yul\":5822:6110   */\n      pop\n        /* \"#utility.yul\":6149:6151   */\n      0x40\n        /* \"#utility.yul\":6175:6234   */\n      tag_411\n        /* \"#utility.yul\":6226:6233   */\n      dup8\n        /* \"#utility.yul\":6217:6223   */\n      dup3\n        /* \"#utility.yul\":6206:6215   */\n      dup9\n        /* \"#utility.yul\":6202:6224   */\n      add\n        /* \"#utility.yul\":6175:6234   */\n      tag_268\n      jump\t// in\n    tag_411:\n        /* \"#utility.yul\":6165:6234   */\n      swap3\n      pop\n        /* \"#utility.yul\":6120:6244   */\n      pop\n        /* \"#utility.yul\":6311:6313   */\n      0x60\n        /* \"#utility.yul\":6300:6309   */\n      dup6\n        /* \"#utility.yul\":6296:6314   */\n      add\n        /* \"#utility.yul\":6283:6315   */\n      calldataload\n        /* \"#utility.yul\":6342:6360   */\n      0xffffffffffffffff\n        /* \"#utility.yul\":6334:6340   */\n      dup2\n        /* \"#utility.yul\":6331:6361   */\n      gt\n        /* \"#utility.yul\":6328:6445   */\n      iszero\n      tag_412\n      jumpi\n        /* \"#utility.yul\":6364:6443   */\n      tag_413\n      tag_250\n      jump\t// in\n    tag_413:\n        /* \"#utility.yul\":6328:6445   */\n    tag_412:\n        /* \"#utility.yul\":6469:6532   */\n      tag_414\n        /* \"#utility.yul\":6524:6531   */\n      dup8\n        /* \"#utility.yul\":6515:6521   */\n      dup3\n        /* \"#utility.yul\":6504:6513   */\n      dup9\n        /* \"#utility.yul\":6500:6522   */\n      add\n        /* \"#utility.yul\":6469:6532   */\n      tag_266\n      jump\t// in\n    tag_414:\n        /* \"#utility.yul\":6459:6532   */\n      swap2\n      pop\n        /* \"#utility.yul\":6254:6542   */\n      pop\n        /* \"#utility.yul\":5232:6549   */\n      swap3\n      swap6\n      swap2\n      swap5\n      pop\n      swap3\n      pop\n      jump\t// out\n        /* \"#utility.yul\":6555:6654   */\n    tag_269:\n        /* \"#utility.yul\":6607:6613   */\n      0x00\n        /* \"#utility.yul\":6641:6646   */\n      dup2\n        /* \"#utility.yul\":6635:6647   */\n      mload\n        /* \"#utility.yul\":6625:6647   */\n      swap1\n      pop\n        /* \"#utility.yul\":6555:6654   */\n      swap2\n      swap1\n      pop\n      jump\t// out\n        /* \"#utility.yul\":6660:6829   */\n    tag_270:\n        /* \"#utility.yul\":6744:6755   */\n      0x00\n        /* \"#utility.yul\":6778:6784   */\n      dup3\n        /* \"#utility.yul\":6773:6776   */\n      dup3\n        /* \"#utility.yul\":6766:6785   */\n      mstore\n        /* \"#utility.yul\":6818:6822   */\n      0x20\n        /* \"#utility.yul\":6813:6816   */\n      dup3\n        /* \"#utility.yul\":6809:6823   */\n      add\n        /* \"#utility.yul\":6794:6823   */\n      swap1\n      pop\n        /* \"#utility.yul\":6660:6829   */\n      swap3\n      swap2\n      pop\n      pop\n      jump\t// out\n        /* \"#utility.yul\":6835:6974   */\n    tag_271:\n        /* \"#utility.yul\":6924:6930   */\n      dup3\n        /* \"#utility.yul\":6919:6922   */\n      dup2\n        /* \"#utility.yul\":6914:6917   */\n      dup4\n        /* \"#utility.yul\":6908:6931   */\n      mcopy\n        /* \"#utility.yul\":6965:6966   */\n      0x00\n        /* \"#utility.yul\":6956:6962   */\n      dup4\n        /* \"#utility.yul\":6951:6954   */\n      dup4\n        /* \"#utility.yul\":6947:6963   */\n      add\n        /* \"#utility.yul\":6940:6967   */\n      mstore\n        /* \"#utility.yul\":6835:6974   */\n      pop\n      pop\n      pop\n      jump\t// out\n        /* \"#utility.yul\":6980:7357   */\n    tag_272:\n        /* \"#utility.yul\":7068:7071   */\n      0x00\n        /* \"#utility.yul\":7096:7135   */\n      tag_419\n        /* \"#utility.yul\":7129:7134   */\n      dup3\n        /* \"#utility.yul\":7096:7135   */\n      tag_269\n      jump\t// in\n    tag_419:\n        /* \"#utility.yul\":7151:7222   */\n      tag_420\n        /* \"#utility.yul\":7215:7221   */\n      dup2\n        /* \"#utility.yul\":7210:7213   */\n      dup6\n        /* \"#utility.yul\":7151:7222   */\n      tag_270\n      jump\t// in\n    tag_420:\n        /* \"#utility.yul\":7144:7222   */\n      swap4\n      pop\n        /* \"#utility.yul\":7231:7296   */\n      tag_421\n        /* \"#utility.yul\":7289:7295   */\n      dup2\n        /* \"#utility.yul\":7284:7287   */\n      dup6\n        /* \"#utility.yul\":7277:7281   */\n      0x20\n        /* \"#utility.yul\":7270:7275   */\n      dup7\n        /* \"#utility.yul\":7266:7282   */\n      add\n        /* \"#utility.yul\":7231:7296   */\n      tag_271\n      jump\t// in\n    tag_421:\n        /* \"#utility.yul\":7321:7350   */\n      tag_422\n        /* \"#utility.yul\":7343:7349   */\n      dup2\n        /* \"#utility.yul\":7321:7350   */\n      tag_259\n      jump\t// in\n    tag_422:\n        /* \"#utility.yul\":7316:7319   */\n      dup5\n        /* \"#utility.yul\":7312:7351   */\n      add\n        /* \"#utility.yul\":7305:7351   */\n      swap2\n      pop\n        /* \"#utility.yul\":7072:7357   */\n      pop\n        /* \"#utility.yul\":6980:7357   */\n      swap3\n      swap2\n      pop\n      pop\n      jump\t// out\n        /* \"#utility.yul\":7363:7543   */\n    tag_74:\n        /* \"#utility.yul\":7411:7488   */\n      0x4e487b7100000000000000000000000000000000000000000000000000000000\n        /* \"#utility.yul\":7408:7409   */\n      0x00\n        /* \"#utility.yul\":7401:7489   */\n      mstore\n        /* \"#utility.yul\":7508:7512   */\n      0x21\n        /* \"#utility.yul\":7505:7506   */\n      0x04\n        /* \"#utility.yul\":7498:7513   */\n      mstore\n        /* \"#utility.yul\":7532:7536   */\n      0x24\n        /* \"#utility.yul\":7529:7530   */\n      0x00\n        /* \"#utility.yul\":7522:7537   */\n      revert\n        /* \"#utility.yul\":7549:7660   */\n    tag_273:\n        /* \"#utility.yul\":7628:7629   */\n      0x03\n        /* \"#utility.yul\":7621:7626   */\n      dup2\n        /* \"#utility.yul\":7618:7630   */\n      lt\n        /* \"#utility.yul\":7608:7654   */\n      tag_425\n      jumpi\n        /* \"#utility.yul\":7634:7652   */\n      tag_426\n      tag_74\n      jump\t// in\n    tag_426:\n        /* \"#utility.yul\":7608:7654   */\n    tag_425:\n        /* \"#utility.yul\":7549:7660   */\n      pop\n      jump\t// out\n        /* \"#utility.yul\":7666:7789   */\n    tag_274:\n        /* \"#utility.yul\":7709:7716   */\n      0x00\n        /* \"#utility.yul\":7738:7743   */\n      dup2\n        /* \"#utility.yul\":7727:7743   */\n      swap1\n      pop\n        /* \"#utility.yul\":7744:7783   */\n      tag_428\n        /* \"#utility.yul\":7777:7782   */\n      dup3\n        /* \"#utility.yul\":7744:7783   */\n      tag_273\n      jump\t// in\n    tag_428:\n        /* \"#utility.yul\":7666:7789   */\n      swap2\n      swap1\n      pop\n      jump\t// out\n        /* \"#utility.yul\":7795:7918   */\n    tag_275:\n        /* \"#utility.yul\":7849:7858   */\n      0x00\n        /* \"#utility.yul\":7882:7912   */\n      tag_430\n        /* \"#utility.yul\":7906:7911   */\n      dup3\n        /* \"#utility.yul\":7882:7912   */\n      tag_274\n      jump\t// in\n    tag_430:\n        /* \"#utility.yul\":7869:7912   */\n      swap1\n      pop\n        /* \"#utility.yul\":7795:7918   */\n      swap2\n      swap1\n      pop\n      jump\t// out\n        /* \"#utility.yul\":7924:8063   */\n    tag_276:\n        /* \"#utility.yul\":8015:8056   */\n      tag_432\n        /* \"#utility.yul\":8050:8055   */\n      dup2\n        /* \"#utility.yul\":8015:8056   */\n      tag_275\n      jump\t// in\n    tag_432:\n        /* \"#utility.yul\":8010:8013   */\n      dup3\n        /* \"#utility.yul\":8003:8057   */\n      mstore\n        /* \"#utility.yul\":7924:8063   */\n      pop\n      pop\n      jump\t// out\n        /* \"#utility.yul\":8069:9002   */\n    tag_38:\n        /* \"#utility.yul\":8332:8336   */\n      0x00\n        /* \"#utility.yul\":8370:8373   */\n      0xa0\n        /* \"#utility.yul\":8359:8368   */\n      dup3\n        /* \"#utility.yul\":8355:8374   */\n      add\n        /* \"#utility.yul\":8347:8374   */\n      swap1\n      pop\n        /* \"#utility.yul\":8420:8429   */\n      dup2\n        /* \"#utility.yul\":8414:8418   */\n      dup2\n        /* \"#utility.yul\":8410:8430   */\n      sub\n        /* \"#utility.yul\":8406:8407   */\n      0x00\n        /* \"#utility.yul\":8395:8404   */\n      dup4\n        /* \"#utility.yul\":8391:8408   */\n      add\n        /* \"#utility.yul\":8384:8431   */\n      mstore\n        /* \"#utility.yul\":8448:8526   */\n      tag_434\n        /* \"#utility.yul\":8521:8525   */\n      dup2\n        /* \"#utility.yul\":8512:8518   */\n      dup9\n        /* \"#utility.yul\":8448:8526   */\n      tag_272\n      jump\t// in\n    tag_434:\n        /* \"#utility.yul\":8440:8526   */\n      swap1\n      pop\n        /* \"#utility.yul\":8573:8582   */\n      dup2\n        /* \"#utility.yul\":8567:8571   */\n      dup2\n        /* \"#utility.yul\":8563:8583   */\n      sub\n        /* \"#utility.yul\":8558:8560   */\n      0x20\n        /* \"#utility.yul\":8547:8556   */\n      dup4\n        /* \"#utility.yul\":8543:8561   */\n      add\n        /* \"#utility.yul\":8536:8584   */\n      mstore\n        /* \"#utility.yul\":8601:8679   */\n      tag_435\n        /* \"#utility.yul\":8674:8678   */\n      dup2\n        /* \"#utility.yul\":8665:8671   */\n      dup8\n        /* \"#utility.yul\":8601:8679   */\n      tag_272\n      jump\t// in\n    tag_435:\n        /* \"#utility.yul\":8593:8679   */\n      swap1\n      pop\n        /* \"#utility.yul\":8689:8765   */\n      tag_436\n        /* \"#utility.yul\":8761:8763   */\n      0x40\n        /* \"#utility.yul\":8750:8759   */\n      dup4\n        /* \"#utility.yul\":8746:8764   */\n      add\n        /* \"#utility.yul\":8737:8743   */\n      dup7\n        /* \"#utility.yul\":8689:8765   */\n      tag_276\n      jump\t// in\n    tag_436:\n        /* \"#utility.yul\":8775:8841   */\n      tag_437\n        /* \"#utility.yul\":8837:8839   */\n      0x60\n        /* \"#utility.yul\":8826:8835   */\n      dup4\n        /* \"#utility.yul\":8822:8840   */\n      add\n        /* \"#utility.yul\":8813:8819   */\n      dup6\n        /* \"#utility.yul\":8775:8841   */\n      tag_256\n      jump\t// in\n    tag_437:\n        /* \"#utility.yul\":8889:8898   */\n      dup2\n        /* \"#utility.yul\":8883:8887   */\n      dup2\n        /* \"#utility.yul\":8879:8899   */\n      sub\n        /* \"#utility.yul\":8873:8876   */\n      0x80\n        /* \"#utility.yul\":8862:8871   */\n      dup4\n        /* \"#utility.yul\":8858:8877   */\n      add\n        /* \"#utility.yul\":8851:8900   */\n      mstore\n        /* \"#utility.yul\":8917:8995   */\n      tag_438\n        /* \"#utility.yul\":8990:8994   */\n      dup2\n        /* \"#utility.yul\":8981:8987   */\n      dup5\n        /* \"#utility.yul\":8917:8995   */\n      tag_272\n      jump\t// in\n    tag_438:\n        /* \"#utility.yul\":8909:8995   */\n      swap1\n      pop\n        /* \"#utility.yul\":8069:9002   */\n      swap7\n      swap6\n      pop\n      pop\n      pop\n      pop\n      pop\n      pop\n      jump\t// out\n        /* \"#utility.yul\":9008:9085   */\n    tag_277:\n        /* \"#utility.yul\":9045:9052   */\n      0x00\n        /* \"#utility.yul\":9074:9079   */\n      dup2\n        /* \"#utility.yul\":9063:9079   */\n      swap1\n      pop\n        /* \"#utility.yul\":9008:9085   */\n      swap2\n      swap1\n      pop\n      jump\t// out\n        /* \"#utility.yul\":9091:9213   */\n    tag_278:\n        /* \"#utility.yul\":9164:9188   */\n      tag_441\n        /* \"#utility.yul\":9182:9187   */\n      dup2\n        /* \"#utility.yul\":9164:9188   */\n      tag_277\n      jump\t// in\n    tag_441:\n        /* \"#utility.yul\":9157:9162   */\n      dup2\n        /* \"#utility.yul\":9154:9189   */\n      eq\n        /* \"#utility.yul\":9144:9207   */\n      tag_442\n      jumpi\n        /* \"#utility.yul\":9203:9204   */\n      0x00\n        /* \"#utility.yul\":9200:9201   */\n      0x00\n        /* \"#utility.yul\":9193:9205   */\n      revert\n        /* \"#utility.yul\":9144:9207   */\n    tag_442:\n        /* \"#utility.yul\":9091:9213   */\n      pop\n      jump\t// out\n        /* \"#utility.yul\":9219:9358   */\n    tag_279:\n        /* \"#utility.yul\":9265:9270   */\n      0x00\n        /* \"#utility.yul\":9303:9309   */\n      dup2\n        /* \"#utility.yul\":9290:9310   */\n      calldataload\n        /* \"#utility.yul\":9281:9310   */\n      swap1\n      pop\n        /* \"#utility.yul\":9319:9352   */\n      tag_444\n        /* \"#utility.yul\":9346:9351   */\n      dup2\n        /* \"#utility.yul\":9319:9352   */\n      tag_278\n      jump\t// in\n    tag_444:\n        /* \"#utility.yul\":9219:9358   */\n      swap3\n      swap2\n      pop\n      pop\n      jump\t// out\n        /* \"#utility.yul\":9364:9838   */\n    tag_41:\n        /* \"#utility.yul\":9432:9438   */\n      0x00\n        /* \"#utility.yul\":9440:9446   */\n      0x00\n        /* \"#utility.yul\":9489:9491   */\n      0x40\n        /* \"#utility.yul\":9477:9486   */\n      dup4\n        /* \"#utility.yul\":9468:9475   */\n      dup6\n        /* \"#utility.yul\":9464:9487   */\n      sub\n        /* \"#utility.yul\":9460:9492   */\n      slt\n        /* \"#utility.yul\":9457:9576   */\n      iszero\n      tag_446\n      jumpi\n        /* \"#utility.yul\":9495:9574   */\n      tag_447\n      tag_249\n      jump\t// in\n    tag_447:\n        /* \"#utility.yul\":9457:9576   */\n    tag_446:\n        /* \"#utility.yul\":9615:9616   */\n      0x00\n        /* \"#utility.yul\":9640:9693   */\n      tag_448\n        /* \"#utility.yul\":9685:9692   */\n      dup6\n        /* \"#utility.yul\":9676:9682   */\n      dup3\n        /* \"#utility.yul\":9665:9674   */\n      dup7\n        /* \"#utility.yul\":9661:9683   */\n      add\n        /* \"#utility.yul\":9640:9693   */\n      tag_254\n      jump\t// in\n    tag_448:\n        /* \"#utility.yul\":9630:9693   */\n      swap3\n      pop\n        /* \"#utility.yul\":9586:9703   */\n      pop\n        /* \"#utility.yul\":9742:9744   */\n      0x20\n        /* \"#utility.yul\":9768:9821   */\n      tag_449\n        /* \"#utility.yul\":9813:9820   */\n      dup6\n        /* \"#utility.yul\":9804:9810   */\n      dup3\n        /* \"#utility.yul\":9793:9802   */\n      dup7\n        /* \"#utility.yul\":9789:9811   */\n      add\n        /* \"#utility.yul\":9768:9821   */\n      tag_279\n      jump\t// in\n    tag_449:\n        /* \"#utility.yul\":9758:9821   */\n      swap2\n      pop\n        /* \"#utility.yul\":9713:9831   */\n      pop\n        /* \"#utility.yul\":9364:9838   */\n      swap3\n      pop\n      swap3\n      swap1\n      pop\n      jump\t// out\n        /* \"#utility.yul\":9844:9962   */\n    tag_280:\n        /* \"#utility.yul\":9931:9955   */\n      tag_451\n        /* \"#utility.yul\":9949:9954   */\n      dup2\n        /* \"#utility.yul\":9931:9955   */\n      tag_252\n      jump\t// in\n    tag_451:\n        /* \"#utility.yul\":9926:9929   */\n      dup3\n        /* \"#utility.yul\":9919:9956   */\n      mstore\n        /* \"#utility.yul\":9844:9962   */\n      pop\n      pop\n      jump\t// out\n        /* \"#utility.yul\":9968:10190   */\n    tag_44:\n        /* \"#utility.yul\":10061:10065   */\n      0x00\n        /* \"#utility.yul\":10099:10101   */\n      0x20\n        /* \"#utility.yul\":10088:10097   */\n      dup3\n        /* \"#utility.yul\":10084:10102   */\n      add\n        /* \"#utility.yul\":10076:10102   */\n      swap1\n      pop\n        /* \"#utility.yul\":10112:10183   */\n      tag_453\n        /* \"#utility.yul\":10180:10181   */\n      0x00\n        /* \"#utility.yul\":10169:10178   */\n      dup4\n        /* \"#utility.yul\":10165:10182   */\n      add\n        /* \"#utility.yul\":10156:10162   */\n      dup5\n        /* \"#utility.yul\":10112:10183   */\n      tag_280\n      jump\t// in\n    tag_453:\n        /* \"#utility.yul\":9968:10190   */\n      swap3\n      swap2\n      pop\n      pop\n      jump\t// out\n        /* \"#utility.yul\":10196:10310   */\n    tag_281:\n        /* \"#utility.yul\":10263:10269   */\n      0x00\n        /* \"#utility.yul\":10297:10302   */\n      dup2\n        /* \"#utility.yul\":10291:10303   */\n      mload\n        /* \"#utility.yul\":10281:10303   */\n      swap1\n      pop\n        /* \"#utility.yul\":10196:10310   */\n      swap2\n      swap1\n      pop\n      jump\t// out\n        /* \"#utility.yul\":10316:10500   */\n    tag_282:\n        /* \"#utility.yul\":10415:10426   */\n      0x00\n        /* \"#utility.yul\":10449:10455   */\n      dup3\n        /* \"#utility.yul\":10444:10447   */\n      dup3\n        /* \"#utility.yul\":10437:10456   */\n      mstore\n        /* \"#utility.yul\":10489:10493   */\n      0x20\n        /* \"#utility.yul\":10484:10487   */\n      dup3\n        /* \"#utility.yul\":10480:10494   */\n      add\n        /* \"#utility.yul\":10465:10494   */\n      swap1\n      pop\n        /* \"#utility.yul\":10316:10500   */\n      swap3\n      swap2\n      pop\n      pop\n      jump\t// out\n        /* \"#utility.yul\":10506:10638   */\n    tag_283:\n        /* \"#utility.yul\":10573:10577   */\n      0x00\n        /* \"#utility.yul\":10596:10599   */\n      dup2\n        /* \"#utility.yul\":10588:10599   */\n      swap1\n      pop\n        /* \"#utility.yul\":10626:10630   */\n      0x20\n        /* \"#utility.yul\":10621:10624   */\n      dup3\n        /* \"#utility.yul\":10617:10631   */\n      add\n        /* \"#utility.yul\":10609:10631   */\n      swap1\n      pop\n        /* \"#utility.yul\":10506:10638   */\n      swap2\n      swap1\n      pop\n      jump\t// out\n        /* \"#utility.yul\":10644:10752   */\n    tag_284:\n        /* \"#utility.yul\":10721:10745   */\n      tag_458\n        /* \"#utility.yul\":10739:10744   */\n      dup2\n        /* \"#utility.yul\":10721:10745   */\n      tag_252\n      jump\t// in\n    tag_458:\n        /* \"#utility.yul\":10716:10719   */\n      dup3\n        /* \"#utility.yul\":10709:10746   */\n      mstore\n        /* \"#utility.yul\":10644:10752   */\n      pop\n      pop\n      jump\t// out\n        /* \"#utility.yul\":10758:10937   */\n    tag_285:\n        /* \"#utility.yul\":10827:10837   */\n      0x00\n        /* \"#utility.yul\":10848:10894   */\n      tag_460\n        /* \"#utility.yul\":10890:10893   */\n      dup4\n        /* \"#utility.yul\":10882:10888   */\n      dup4\n        /* \"#utility.yul\":10848:10894   */\n      tag_284\n      jump\t// in\n    tag_460:\n        /* \"#utility.yul\":10926:10930   */\n      0x20\n        /* \"#utility.yul\":10921:10924   */\n      dup4\n        /* \"#utility.yul\":10917:10931   */\n      add\n        /* \"#utility.yul\":10903:10931   */\n      swap1\n      pop\n        /* \"#utility.yul\":10758:10937   */\n      swap3\n      swap2\n      pop\n      pop\n      jump\t// out\n        /* \"#utility.yul\":10943:11056   */\n    tag_286:\n        /* \"#utility.yul\":11013:11017   */\n      0x00\n        /* \"#utility.yul\":11045:11049   */\n      0x20\n        /* \"#utility.yul\":11040:11043   */\n      dup3\n        /* \"#utility.yul\":11036:11050   */\n      add\n        /* \"#utility.yul\":11028:11050   */\n      swap1\n      pop\n        /* \"#utility.yul\":10943:11056   */\n      swap2\n      swap1\n      pop\n      jump\t// out\n        /* \"#utility.yul\":11092:11824   */\n    tag_287:\n        /* \"#utility.yul\":11211:11214   */\n      0x00\n        /* \"#utility.yul\":11240:11294   */\n      tag_463\n        /* \"#utility.yul\":11288:11293   */\n      dup3\n        /* \"#utility.yul\":11240:11294   */\n      tag_281\n      jump\t// in\n    tag_463:\n        /* \"#utility.yul\":11310:11396   */\n      tag_464\n        /* \"#utility.yul\":11389:11395   */\n      dup2\n        /* \"#utility.yul\":11384:11387   */\n      dup6\n        /* \"#utility.yul\":11310:11396   */\n      tag_282\n      jump\t// in\n    tag_464:\n        /* \"#utility.yul\":11303:11396   */\n      swap4\n      pop\n        /* \"#utility.yul\":11420:11476   */\n      tag_465\n        /* \"#utility.yul\":11470:11475   */\n      dup4\n        /* \"#utility.yul\":11420:11476   */\n      tag_283\n      jump\t// in\n    tag_465:\n        /* \"#utility.yul\":11499:11506   */\n      dup1\n        /* \"#utility.yul\":11530:11531   */\n      0x00\n        /* \"#utility.yul\":11515:11799   */\n    tag_466:\n        /* \"#utility.yul\":11540:11546   */\n      dup4\n        /* \"#utility.yul\":11537:11538   */\n      dup2\n        /* \"#utility.yul\":11534:11547   */\n      lt\n        /* \"#utility.yul\":11515:11799   */\n      iszero\n      tag_468\n      jumpi\n        /* \"#utility.yul\":11616:11622   */\n      dup2\n        /* \"#utility.yul\":11610:11623   */\n      mload\n        /* \"#utility.yul\":11643:11706   */\n      tag_469\n        /* \"#utility.yul\":11702:11705   */\n      dup9\n        /* \"#utility.yul\":11687:11700   */\n      dup3\n        /* \"#utility.yul\":11643:11706   */\n      tag_285\n      jump\t// in\n    tag_469:\n        /* \"#utility.yul\":11636:11706   */\n      swap8\n      pop\n        /* \"#utility.yul\":11729:11789   */\n      tag_470\n        /* \"#utility.yul\":11782:11788   */\n      dup4\n        /* \"#utility.yul\":11729:11789   */\n      tag_286\n      jump\t// in\n    tag_470:\n        /* \"#utility.yul\":11719:11789   */\n      swap3\n      pop\n        /* \"#utility.yul\":11575:11799   */\n      pop\n        /* \"#utility.yul\":11562:11563   */\n      0x01\n        /* \"#utility.yul\":11559:11560   */\n      dup2\n        /* \"#utility.yul\":11555:11564   */\n      add\n        /* \"#utility.yul\":11550:11564   */\n      swap1\n      pop\n        /* \"#utility.yul\":11515:11799   */\n      jump(tag_466)\n    tag_468:\n        /* \"#utility.yul\":11519:11533   */\n      pop\n        /* \"#utility.yul\":11815:11818   */\n      dup6\n        /* \"#utility.yul\":11808:11818   */\n      swap4\n      pop\n        /* \"#utility.yul\":11216:11824   */\n      pop\n      pop\n      pop\n        /* \"#utility.yul\":11092:11824   */\n      swap3\n      swap2\n      pop\n      pop\n      jump\t// out\n        /* \"#utility.yul\":11830:12203   */\n    tag_49:\n        /* \"#utility.yul\":11973:11977   */\n      0x00\n        /* \"#utility.yul\":12011:12013   */\n      0x20\n        /* \"#utility.yul\":12000:12009   */\n      dup3\n        /* \"#utility.yul\":11996:12014   */\n      add\n        /* \"#utility.yul\":11988:12014   */\n      swap1\n      pop\n        /* \"#utility.yul\":12060:12069   */\n      dup2\n        /* \"#utility.yul\":12054:12058   */\n      dup2\n        /* \"#utility.yul\":12050:12070   */\n      sub\n        /* \"#utility.yul\":12046:12047   */\n      0x00\n        /* \"#utility.yul\":12035:12044   */\n      dup4\n        /* \"#utility.yul\":12031:12048   */\n      add\n        /* \"#utility.yul\":12024:12071   */\n      mstore\n        /* \"#utility.yul\":12088:12196   */\n      tag_472\n        /* \"#utility.yul\":12191:12195   */\n      dup2\n        /* \"#utility.yul\":12182:12188   */\n      dup5\n        /* \"#utility.yul\":12088:12196   */\n      tag_287\n      jump\t// in\n    tag_472:\n        /* \"#utility.yul\":12080:12196   */\n      swap1\n      pop\n        /* \"#utility.yul\":11830:12203   */\n      swap3\n      swap2\n      pop\n      pop\n      jump\t// out\n        /* \"#utility.yul\":12209:12327   */\n    tag_288:\n        /* \"#utility.yul\":12296:12320   */\n      tag_474\n        /* \"#utility.yul\":12314:12319   */\n      dup2\n        /* \"#utility.yul\":12296:12320   */\n      tag_277\n      jump\t// in\n    tag_474:\n        /* \"#utility.yul\":12291:12294   */\n      dup3\n        /* \"#utility.yul\":12284:12321   */\n      mstore\n        /* \"#utility.yul\":12209:12327   */\n      pop\n      pop\n      jump\t// out\n        /* \"#utility.yul\":12333:12866   */\n    tag_54:\n        /* \"#utility.yul\":12502:12506   */\n      0x00\n        /* \"#utility.yul\":12540:12542   */\n      0x60\n        /* \"#utility.yul\":12529:12538   */\n      dup3\n        /* \"#utility.yul\":12525:12543   */\n      add\n        /* \"#utility.yul\":12517:12543   */\n      swap1\n      pop\n        /* \"#utility.yul\":12589:12598   */\n      dup2\n        /* \"#utility.yul\":12583:12587   */\n      dup2\n        /* \"#utility.yul\":12579:12599   */\n      sub\n        /* \"#utility.yul\":12575:12576   */\n      0x00\n        /* \"#utility.yul\":12564:12573   */\n      dup4\n        /* \"#utility.yul\":12560:12577   */\n      add\n        /* \"#utility.yul\":12553:12600   */\n      mstore\n        /* \"#utility.yul\":12617:12695   */\n      tag_476\n        /* \"#utility.yul\":12690:12694   */\n      dup2\n        /* \"#utility.yul\":12681:12687   */\n      dup7\n        /* \"#utility.yul\":12617:12695   */\n      tag_272\n      jump\t// in\n    tag_476:\n        /* \"#utility.yul\":12609:12695   */\n      swap1\n      pop\n        /* \"#utility.yul\":12705:12777   */\n      tag_477\n        /* \"#utility.yul\":12773:12775   */\n      0x20\n        /* \"#utility.yul\":12762:12771   */\n      dup4\n        /* \"#utility.yul\":12758:12776   */\n      add\n        /* \"#utility.yul\":12749:12755   */\n      dup6\n        /* \"#utility.yul\":12705:12777   */\n      tag_280\n      jump\t// in\n    tag_477:\n        /* \"#utility.yul\":12787:12859   */\n      tag_478\n        /* \"#utility.yul\":12855:12857   */\n      0x40\n        /* \"#utility.yul\":12844:12853   */\n      dup4\n        /* \"#utility.yul\":12840:12858   */\n      add\n        /* \"#utility.yul\":12831:12837   */\n      dup5\n        /* \"#utility.yul\":12787:12859   */\n      tag_288\n      jump\t// in\n    tag_478:\n        /* \"#utility.yul\":12333:12866   */\n      swap5\n      swap4\n      pop\n      pop\n      pop\n      pop\n      jump\t// out\n        /* \"#utility.yul\":12872:13805   */\n    tag_59:\n        /* \"#utility.yul\":13135:13139   */\n      0x00\n        /* \"#utility.yul\":13173:13176   */\n      0xa0\n        /* \"#utility.yul\":13162:13171   */\n      dup3\n        /* \"#utility.yul\":13158:13177   */\n      add\n        /* \"#utility.yul\":13150:13177   */\n      swap1\n      pop\n        /* \"#utility.yul\":13187:13262   */\n      tag_480\n        /* \"#utility.yul\":13259:13260   */\n      0x00\n        /* \"#utility.yul\":13248:13257   */\n      dup4\n        /* \"#utility.yul\":13244:13261   */\n      add\n        /* \"#utility.yul\":13235:13241   */\n      dup9\n        /* \"#utility.yul\":13187:13262   */\n      tag_276\n      jump\t// in\n    tag_480:\n        /* \"#utility.yul\":13272:13338   */\n      tag_481\n        /* \"#utility.yul\":13334:13336   */\n      0x20\n        /* \"#utility.yul\":13323:13332   */\n      dup4\n        /* \"#utility.yul\":13319:13337   */\n      add\n        /* \"#utility.yul\":13310:13316   */\n      dup8\n        /* \"#utility.yul\":13272:13338   */\n      tag_256\n      jump\t// in\n    tag_481:\n        /* \"#utility.yul\":13385:13394   */\n      dup2\n        /* \"#utility.yul\":13379:13383   */\n      dup2\n        /* \"#utility.yul\":13375:13395   */\n      sub\n        /* \"#utility.yul\":13370:13372   */\n      0x40\n        /* \"#utility.yul\":13359:13368   */\n      dup4\n        /* \"#utility.yul\":13355:13373   */\n      add\n        /* \"#utility.yul\":13348:13396   */\n      mstore\n        /* \"#utility.yul\":13413:13491   */\n      tag_482\n        /* \"#utility.yul\":13486:13490   */\n      dup2\n        /* \"#utility.yul\":13477:13483   */\n      dup7\n        /* \"#utility.yul\":13413:13491   */\n      tag_272\n      jump\t// in\n    tag_482:\n        /* \"#utility.yul\":13405:13491   */\n      swap1\n      pop\n        /* \"#utility.yul\":13538:13547   */\n      dup2\n        /* \"#utility.yul\":13532:13536   */\n      dup2\n        /* \"#utility.yul\":13528:13548   */\n      sub\n        /* \"#utility.yul\":13523:13525   */\n      0x60\n        /* \"#utility.yul\":13512:13521   */\n      dup4\n        /* \"#utility.yul\":13508:13526   */\n      add\n        /* \"#utility.yul\":13501:13549   */\n      mstore\n        /* \"#utility.yul\":13566:13644   */\n      tag_483\n        /* \"#utility.yul\":13639:13643   */\n      dup2\n        /* \"#utility.yul\":13630:13636   */\n      dup6\n        /* \"#utility.yul\":13566:13644   */\n      tag_272\n      jump\t// in\n    tag_483:\n        /* \"#utility.yul\":13558:13644   */\n      swap1\n      pop\n        /* \"#utility.yul\":13692:13701   */\n      dup2\n        /* \"#utility.yul\":13686:13690   */\n      dup2\n        /* \"#utility.yul\":13682:13702   */\n      sub\n        /* \"#utility.yul\":13676:13679   */\n      0x80\n        /* \"#utility.yul\":13665:13674   */\n      dup4\n        /* \"#utility.yul\":13661:13680   */\n      add\n        /* \"#utility.yul\":13654:13703   */\n      mstore\n        /* \"#utility.yul\":13720:13798   */\n      tag_484\n        /* \"#utility.yul\":13793:13797   */\n      dup2\n        /* \"#utility.yul\":13784:13790   */\n      dup5\n        /* \"#utility.yul\":13720:13798   */\n      tag_272\n      jump\t// in\n    tag_484:\n        /* \"#utility.yul\":13712:13798   */\n      swap1\n      pop\n        /* \"#utility.yul\":12872:13805   */\n      swap7\n      swap6\n      pop\n      pop\n      pop\n      pop\n      pop\n      pop\n      jump\t// out\n        /* \"#utility.yul\":13811:13954   */\n    tag_289:\n        /* \"#utility.yul\":13907:13913   */\n      0x00\n        /* \"#utility.yul\":13941:13946   */\n      dup2\n        /* \"#utility.yul\":13935:13947   */\n      mload\n        /* \"#utility.yul\":13925:13947   */\n      swap1\n      pop\n        /* \"#utility.yul\":13811:13954   */\n      swap2\n      swap1\n      pop\n      jump\t// out\n        /* \"#utility.yul\":13960:14173   */\n    tag_290:\n        /* \"#utility.yul\":14088:14099   */\n      0x00\n        /* \"#utility.yul\":14122:14128   */\n      dup3\n        /* \"#utility.yul\":14117:14120   */\n      dup3\n        /* \"#utility.yul\":14110:14129   */\n      mstore\n        /* \"#utility.yul\":14162:14166   */\n      0x20\n        /* \"#utility.yul\":14157:14160   */\n      dup3\n        /* \"#utility.yul\":14153:14167   */\n      add\n        /* \"#utility.yul\":14138:14167   */\n      swap1\n      pop\n        /* \"#utility.yul\":13960:14173   */\n      swap3\n      swap2\n      pop\n      pop\n      jump\t// out\n        /* \"#utility.yul\":14179:14340   */\n    tag_291:\n        /* \"#utility.yul\":14275:14279   */\n      0x00\n        /* \"#utility.yul\":14298:14301   */\n      dup2\n        /* \"#utility.yul\":14290:14301   */\n      swap1\n      pop\n        /* \"#utility.yul\":14328:14332   */\n      0x20\n        /* \"#utility.yul\":14323:14326   */\n      dup3\n        /* \"#utility.yul\":14319:14333   */\n      add\n        /* \"#utility.yul\":14311:14333   */\n      swap1\n      pop\n        /* \"#utility.yul\":14179:14340   */\n      swap2\n      swap1\n      pop\n      jump\t// out\n        /* \"#utility.yul\":14346:14505   */\n    tag_292:\n        /* \"#utility.yul\":14420:14431   */\n      0x00\n        /* \"#utility.yul\":14454:14460   */\n      dup3\n        /* \"#utility.yul\":14449:14452   */\n      dup3\n        /* \"#utility.yul\":14442:14461   */\n      mstore\n        /* \"#utility.yul\":14494:14498   */\n      0x20\n        /* \"#utility.yul\":14489:14492   */\n      dup3\n        /* \"#utility.yul\":14485:14499   */\n      add\n        /* \"#utility.yul\":14470:14499   */\n      swap1\n      pop\n        /* \"#utility.yul\":14346:14505   */\n      swap3\n      swap2\n      pop\n      pop\n      jump\t// out\n        /* \"#utility.yul\":14511:14868   */\n    tag_293:\n        /* \"#utility.yul\":14589:14592   */\n      0x00\n        /* \"#utility.yul\":14617:14656   */\n      tag_490\n        /* \"#utility.yul\":14650:14655   */\n      dup3\n        /* \"#utility.yul\":14617:14656   */\n      tag_269\n      jump\t// in\n    tag_490:\n        /* \"#utility.yul\":14672:14733   */\n      tag_491\n        /* \"#utility.yul\":14726:14732   */\n      dup2\n        /* \"#utility.yul\":14721:14724   */\n      dup6\n        /* \"#utility.yul\":14672:14733   */\n      tag_292\n      jump\t// in\n    tag_491:\n        /* \"#utility.yul\":14665:14733   */\n      swap4\n      pop\n        /* \"#utility.yul\":14742:14807   */\n      tag_492\n        /* \"#utility.yul\":14800:14806   */\n      dup2\n        /* \"#utility.yul\":14795:14798   */\n      dup6\n        /* \"#utility.yul\":14788:14792   */\n      0x20\n        /* \"#utility.yul\":14781:14786   */\n      dup7\n        /* \"#utility.yul\":14777:14793   */\n      add\n        /* \"#utility.yul\":14742:14807   */\n      tag_271\n      jump\t// in\n    tag_492:\n        /* \"#utility.yul\":14832:14861   */\n      tag_493\n        /* \"#utility.yul\":14854:14860   */\n      dup2\n        /* \"#utility.yul\":14832:14861   */\n      tag_259\n      jump\t// in\n    tag_493:\n        /* \"#utility.yul\":14827:14830   */\n      dup5\n        /* \"#utility.yul\":14823:14862   */\n      add\n        /* \"#utility.yul\":14816:14862   */\n      swap2\n      pop\n        /* \"#utility.yul\":14593:14868   */\n      pop\n        /* \"#utility.yul\":14511:14868   */\n      swap3\n      swap2\n      pop\n      pop\n      jump\t// out\n        /* \"#utility.yul\":14874:14982   */\n    tag_294:\n        /* \"#utility.yul\":14951:14975   */\n      tag_495\n        /* \"#utility.yul\":14969:14974   */\n      dup2\n        /* \"#utility.yul\":14951:14975   */\n      tag_277\n      jump\t// in\n    tag_495:\n        /* \"#utility.yul\":14946:14949   */\n      dup3\n        /* \"#utility.yul\":14939:14976   */\n      mstore\n        /* \"#utility.yul\":14874:14982   */\n      pop\n      pop\n      jump\t// out\n        /* \"#utility.yul\":15062:15851   */\n    tag_295:\n        /* \"#utility.yul\":15179:15182   */\n      0x00\n        /* \"#utility.yul\":15215:15219   */\n      0x60\n        /* \"#utility.yul\":15210:15213   */\n      dup4\n        /* \"#utility.yul\":15206:15220   */\n      add\n        /* \"#utility.yul\":15306:15310   */\n      0x00\n        /* \"#utility.yul\":15299:15304   */\n      dup4\n        /* \"#utility.yul\":15295:15311   */\n      add\n        /* \"#utility.yul\":15289:15312   */\n      mload\n        /* \"#utility.yul\":15359:15362   */\n      dup5\n        /* \"#utility.yul\":15353:15357   */\n      dup3\n        /* \"#utility.yul\":15349:15363   */\n      sub\n        /* \"#utility.yul\":15342:15346   */\n      0x00\n        /* \"#utility.yul\":15337:15340   */\n      dup7\n        /* \"#utility.yul\":15333:15347   */\n      add\n        /* \"#utility.yul\":15326:15364   */\n      mstore\n        /* \"#utility.yul\":15385:15458   */\n      tag_497\n        /* \"#utility.yul\":15453:15457   */\n      dup3\n        /* \"#utility.yul\":15439:15451   */\n      dup3\n        /* \"#utility.yul\":15385:15458   */\n      tag_293\n      jump\t// in\n    tag_497:\n        /* \"#utility.yul\":15377:15458   */\n      swap2\n      pop\n        /* \"#utility.yul\":15230:15469   */\n      pop\n        /* \"#utility.yul\":15553:15557   */\n      0x20\n        /* \"#utility.yul\":15546:15551   */\n      dup4\n        /* \"#utility.yul\":15542:15558   */\n      add\n        /* \"#utility.yul\":15536:15559   */\n      mload\n        /* \"#utility.yul\":15572:15635   */\n      tag_498\n        /* \"#utility.yul\":15629:15633   */\n      0x20\n        /* \"#utility.yul\":15624:15627   */\n      dup7\n        /* \"#utility.yul\":15620:15634   */\n      add\n        /* \"#utility.yul\":15606:15618   */\n      dup3\n        /* \"#utility.yul\":15572:15635   */\n      tag_284\n      jump\t// in\n    tag_498:\n        /* \"#utility.yul\":15479:15645   */\n      pop\n        /* \"#utility.yul\":15732:15736   */\n      0x40\n        /* \"#utility.yul\":15725:15730   */\n      dup4\n        /* \"#utility.yul\":15721:15737   */\n      add\n        /* \"#utility.yul\":15715:15738   */\n      mload\n        /* \"#utility.yul\":15751:15814   */\n      tag_499\n        /* \"#utility.yul\":15808:15812   */\n      0x40\n        /* \"#utility.yul\":15803:15806   */\n      dup7\n        /* \"#utility.yul\":15799:15813   */\n      add\n        /* \"#utility.yul\":15785:15797   */\n      dup3\n        /* \"#utility.yul\":15751:15814   */\n      tag_294\n      jump\t// in\n    tag_499:\n        /* \"#utility.yul\":15655:15824   */\n      pop\n        /* \"#utility.yul\":15841:15845   */\n      dup1\n        /* \"#utility.yul\":15834:15845   */\n      swap2\n      pop\n        /* \"#utility.yul\":15184:15851   */\n      pop\n        /* \"#utility.yul\":15062:15851   */\n      swap3\n      swap2\n      pop\n      pop\n      jump\t// out\n        /* \"#utility.yul\":15857:16129   */\n    tag_296:\n        /* \"#utility.yul\":15984:15994   */\n      0x00\n        /* \"#utility.yul\":16019:16123   */\n      tag_501\n        /* \"#utility.yul\":16119:16122   */\n      dup4\n        /* \"#utility.yul\":16111:16117   */\n      dup4\n        /* \"#utility.yul\":16019:16123   */\n      tag_295\n      jump\t// in\n    tag_501:\n        /* \"#utility.yul\":16005:16123   */\n      swap1\n      pop\n        /* \"#utility.yul\":15857:16129   */\n      swap3\n      swap2\n      pop\n      pop\n      jump\t// out\n        /* \"#utility.yul\":16135:16277   */\n    tag_297:\n        /* \"#utility.yul\":16234:16238   */\n      0x00\n        /* \"#utility.yul\":16266:16270   */\n      0x20\n        /* \"#utility.yul\":16261:16264   */\n      dup3\n        /* \"#utility.yul\":16257:16271   */\n      add\n        /* \"#utility.yul\":16249:16271   */\n      swap1\n      pop\n        /* \"#utility.yul\":16135:16277   */\n      swap2\n      swap1\n      pop\n      jump\t// out\n        /* \"#utility.yul\":16361:17504   */\n    tag_298:\n        /* \"#utility.yul\":16538:16541   */\n      0x00\n        /* \"#utility.yul\":16567:16650   */\n      tag_504\n        /* \"#utility.yul\":16644:16649   */\n      dup3\n        /* \"#utility.yul\":16567:16650   */\n      tag_289\n      jump\t// in\n    tag_504:\n        /* \"#utility.yul\":16666:16781   */\n      tag_505\n        /* \"#utility.yul\":16774:16780   */\n      dup2\n        /* \"#utility.yul\":16769:16772   */\n      dup6\n        /* \"#utility.yul\":16666:16781   */\n      tag_290\n      jump\t// in\n    tag_505:\n        /* \"#utility.yul\":16659:16781   */\n      swap4\n      pop\n        /* \"#utility.yul\":16807:16810   */\n      dup4\n        /* \"#utility.yul\":16852:16856   */\n      0x20\n        /* \"#utility.yul\":16844:16850   */\n      dup3\n        /* \"#utility.yul\":16840:16857   */\n      mul\n        /* \"#utility.yul\":16835:16838   */\n      dup6\n        /* \"#utility.yul\":16831:16858   */\n      add\n        /* \"#utility.yul\":16882:16967   */\n      tag_506\n        /* \"#utility.yul\":16961:16966   */\n      dup6\n        /* \"#utility.yul\":16882:16967   */\n      tag_291\n      jump\t// in\n    tag_506:\n        /* \"#utility.yul\":16990:16997   */\n      dup1\n        /* \"#utility.yul\":17021:17022   */\n      0x00\n        /* \"#utility.yul\":17006:17459   */\n    tag_507:\n        /* \"#utility.yul\":17031:17037   */\n      dup6\n        /* \"#utility.yul\":17028:17029   */\n      dup2\n        /* \"#utility.yul\":17025:17038   */\n      lt\n        /* \"#utility.yul\":17006:17459   */\n      iszero\n      tag_509\n      jumpi\n        /* \"#utility.yul\":17102:17111   */\n      dup5\n        /* \"#utility.yul\":17096:17100   */\n      dup5\n        /* \"#utility.yul\":17092:17112   */\n      sub\n        /* \"#utility.yul\":17087:17090   */\n      dup10\n        /* \"#utility.yul\":17080:17113   */\n      mstore\n        /* \"#utility.yul\":17153:17159   */\n      dup2\n        /* \"#utility.yul\":17147:17160   */\n      mload\n        /* \"#utility.yul\":17181:17303   */\n      tag_510\n        /* \"#utility.yul\":17298:17302   */\n      dup6\n        /* \"#utility.yul\":17283:17296   */\n      dup3\n        /* \"#utility.yul\":17181:17303   */\n      tag_296\n      jump\t// in\n    tag_510:\n        /* \"#utility.yul\":17173:17303   */\n      swap5\n      pop\n        /* \"#utility.yul\":17326:17415   */\n      tag_511\n        /* \"#utility.yul\":17408:17414   */\n      dup4\n        /* \"#utility.yul\":17326:17415   */\n      tag_297\n      jump\t// in\n    tag_511:\n        /* \"#utility.yul\":17316:17415   */\n      swap3\n      pop\n        /* \"#utility.yul\":17444:17448   */\n      0x20\n        /* \"#utility.yul\":17439:17442   */\n      dup11\n        /* \"#utility.yul\":17435:17449   */\n      add\n        /* \"#utility.yul\":17428:17449   */\n      swap10\n      pop\n        /* \"#utility.yul\":17066:17459   */\n      pop\n        /* \"#utility.yul\":17053:17054   */\n      0x01\n        /* \"#utility.yul\":17050:17051   */\n      dup2\n        /* \"#utility.yul\":17046:17055   */\n      add\n        /* \"#utility.yul\":17041:17055   */\n      swap1\n      pop\n        /* \"#utility.yul\":17006:17459   */\n      jump(tag_507)\n    tag_509:\n        /* \"#utility.yul\":17010:17024   */\n      pop\n        /* \"#utility.yul\":17475:17479   */\n      dup3\n        /* \"#utility.yul\":17468:17479   */\n      swap8\n      pop\n        /* \"#utility.yul\":17495:17498   */\n      dup8\n        /* \"#utility.yul\":17488:17498   */\n      swap6\n      pop\n        /* \"#utility.yul\":16543:17504   */\n      pop\n      pop\n      pop\n      pop\n      pop\n        /* \"#utility.yul\":16361:17504   */\n      swap3\n      swap2\n      pop\n      pop\n      jump\t// out\n        /* \"#utility.yul\":17510:17999   */\n    tag_64:\n        /* \"#utility.yul\":17711:17715   */\n      0x00\n        /* \"#utility.yul\":17749:17751   */\n      0x20\n        /* \"#utility.yul\":17738:17747   */\n      dup3\n        /* \"#utility.yul\":17734:17752   */\n      add\n        /* \"#utility.yul\":17726:17752   */\n      swap1\n      pop\n        /* \"#utility.yul\":17798:17807   */\n      dup2\n        /* \"#utility.yul\":17792:17796   */\n      dup2\n        /* \"#utility.yul\":17788:17808   */\n      sub\n        /* \"#utility.yul\":17784:17785   */\n      0x00\n        /* \"#utility.yul\":17773:17782   */\n      dup4\n        /* \"#utility.yul\":17769:17786   */\n      add\n        /* \"#utility.yul\":17762:17809   */\n      mstore\n        /* \"#utility.yul\":17826:17992   */\n      tag_513\n        /* \"#utility.yul\":17987:17991   */\n      dup2\n        /* \"#utility.yul\":17978:17984   */\n      dup5\n        /* \"#utility.yul\":17826:17992   */\n      tag_298\n      jump\t// in\n    tag_513:\n        /* \"#utility.yul\":17818:17992   */\n      swap1\n      pop\n        /* \"#utility.yul\":17510:17999   */\n      swap3\n      swap2\n      pop\n      pop\n      jump\t// out\n        /* \"#utility.yul\":18005:18228   */\n    tag_299:\n        /* \"#utility.yul\":18145:18179   */\n      0x4f6e6c792070617469656e74732063616e2063616c6c20746869732066756e63\n        /* \"#utility.yul\":18141:18142   */\n      0x00\n        /* \"#utility.yul\":18133:18139   */\n      dup3\n        /* \"#utility.yul\":18129:18143   */\n      add\n        /* \"#utility.yul\":18122:18180   */\n      mstore\n        /* \"#utility.yul\":18214:18220   */\n      0x74696f6e00000000000000000000000000000000000000000000000000000000\n        /* \"#utility.yul\":18209:18211   */\n      0x20\n        /* \"#utility.yul\":18201:18207   */\n      dup3\n        /* \"#utility.yul\":18197:18212   */\n      add\n        /* \"#utility.yul\":18190:18221   */\n      mstore\n        /* \"#utility.yul\":18005:18228   */\n      pop\n      jump\t// out\n        /* \"#utility.yul\":18234:18600   */\n    tag_300:\n        /* \"#utility.yul\":18376:18379   */\n      0x00\n        /* \"#utility.yul\":18397:18464   */\n      tag_516\n        /* \"#utility.yul\":18461:18463   */\n      0x24\n        /* \"#utility.yul\":18456:18459   */\n      dup4\n        /* \"#utility.yul\":18397:18464   */\n      tag_270\n      jump\t// in\n    tag_516:\n        /* \"#utility.yul\":18390:18464   */\n      swap2\n      pop\n        /* \"#utility.yul\":18473:18566   */\n      tag_517\n        /* \"#utility.yul\":18562:18565   */\n      dup3\n        /* \"#utility.yul\":18473:18566   */\n      tag_299\n      jump\t// in\n    tag_517:\n        /* \"#utility.yul\":18591:18593   */\n      0x40\n        /* \"#utility.yul\":18586:18589   */\n      dup3\n        /* \"#utility.yul\":18582:18594   */\n      add\n        /* \"#utility.yul\":18575:18594   */\n      swap1\n      pop\n        /* \"#utility.yul\":18234:18600   */\n      swap2\n      swap1\n      pop\n      jump\t// out\n        /* \"#utility.yul\":18606:19025   */\n    tag_79:\n        /* \"#utility.yul\":18772:18776   */\n      0x00\n        /* \"#utility.yul\":18810:18812   */\n      0x20\n        /* \"#utility.yul\":18799:18808   */\n      dup3\n        /* \"#utility.yul\":18795:18813   */\n      add\n        /* \"#utility.yul\":18787:18813   */\n      swap1\n      pop\n        /* \"#utility.yul\":18859:18868   */\n      dup2\n        /* \"#utility.yul\":18853:18857   */\n      dup2\n        /* \"#utility.yul\":18849:18869   */\n      sub\n        /* \"#utility.yul\":18845:18846   */\n      0x00\n        /* \"#utility.yul\":18834:18843   */\n      dup4\n        /* \"#utility.yul\":18830:18847   */\n      add\n        /* \"#utility.yul\":18823:18870   */\n      mstore\n        /* \"#utility.yul\":18887:19018   */\n      tag_519\n        /* \"#utility.yul\":19013:19017   */\n      dup2\n        /* \"#utility.yul\":18887:19018   */\n      tag_300\n      jump\t// in\n    tag_519:\n        /* \"#utility.yul\":18879:19018   */\n      swap1\n      pop\n        /* \"#utility.yul\":18606:19025   */\n      swap2\n      swap1\n      pop\n      jump\t// out\n        /* \"#utility.yul\":19031:19209   */\n    tag_301:\n        /* \"#utility.yul\":19171:19201   */\n      0x496e76616c6964206f7220756e766572696669656420646f63746f7200000000\n        /* \"#utility.yul\":19167:19168   */\n      0x00\n        /* \"#utility.yul\":19159:19165   */\n      dup3\n        /* \"#utility.yul\":19155:19169   */\n      add\n        /* \"#utility.yul\":19148:19202   */\n      mstore\n        /* \"#utility.yul\":19031:19209   */\n      pop\n      jump\t// out\n        /* \"#utility.yul\":19215:19581   */\n    tag_302:\n        /* \"#utility.yul\":19357:19360   */\n      0x00\n        /* \"#utility.yul\":19378:19445   */\n      tag_522\n        /* \"#utility.yul\":19442:19444   */\n      0x1c\n        /* \"#utility.yul\":19437:19440   */\n      dup4\n        /* \"#utility.yul\":19378:19445   */\n      tag_270\n      jump\t// in\n    tag_522:\n        /* \"#utility.yul\":19371:19445   */\n      swap2\n      pop\n        /* \"#utility.yul\":19454:19547   */\n      tag_523\n        /* \"#utility.yul\":19543:19546   */\n      dup3\n        /* \"#utility.yul\":19454:19547   */\n      tag_301\n      jump\t// in\n    tag_523:\n        /* \"#utility.yul\":19572:19574   */\n      0x20\n        /* \"#utility.yul\":19567:19570   */\n      dup3\n        /* \"#utility.yul\":19563:19575   */\n      add\n        /* \"#utility.yul\":19556:19575   */\n      swap1\n      pop\n        /* \"#utility.yul\":19215:19581   */\n      swap2\n      swap1\n      pop\n      jump\t// out\n        /* \"#utility.yul\":19587:20006   */\n    tag_88:\n        /* \"#utility.yul\":19753:19757   */\n      0x00\n        /* \"#utility.yul\":19791:19793   */\n      0x20\n        /* \"#utility.yul\":19780:19789   */\n      dup3\n        /* \"#utility.yul\":19776:19794   */\n      add\n        /* \"#utility.yul\":19768:19794   */\n      swap1\n      pop\n        /* \"#utility.yul\":19840:19849   */\n      dup2\n        /* \"#utility.yul\":19834:19838   */\n      dup2\n        /* \"#utility.yul\":19830:19850   */\n      sub\n        /* \"#utility.yul\":19826:19827   */\n      0x00\n        /* \"#utility.yul\":19815:19824   */\n      dup4\n        /* \"#utility.yul\":19811:19828   */\n      add\n        /* \"#utility.yul\":19804:19851   */\n      mstore\n        /* \"#utility.yul\":19868:19999   */\n      tag_525\n        /* \"#utility.yul\":19994:19998   */\n      dup2\n        /* \"#utility.yul\":19868:19999   */\n      tag_302\n      jump\t// in\n    tag_525:\n        /* \"#utility.yul\":19860:19999   */\n      swap1\n      pop\n        /* \"#utility.yul\":19587:20006   */\n      swap2\n      swap1\n      pop\n      jump\t// out\n        /* \"#utility.yul\":20012:20192   */\n    tag_94:\n        /* \"#utility.yul\":20060:20137   */\n      0x4e487b7100000000000000000000000000000000000000000000000000000000\n        /* \"#utility.yul\":20057:20058   */\n      0x00\n        /* \"#utility.yul\":20050:20138   */\n      mstore\n        /* \"#utility.yul\":20157:20161   */\n      0x32\n        /* \"#utility.yul\":20154:20155   */\n      0x04\n        /* \"#utility.yul\":20147:20162   */\n      mstore\n        /* \"#utility.yul\":20181:20185   */\n      0x24\n        /* \"#utility.yul\":20178:20179   */\n      0x00\n        /* \"#utility.yul\":20171:20186   */\n      revert\n        /* \"#utility.yul\":20198:20373   */\n    tag_303:\n        /* \"#utility.yul\":20338:20365   */\n      0x446f63746f7220616c7265616479206861732061636365737300000000000000\n        /* \"#utility.yul\":20334:20335   */\n      0x00\n        /* \"#utility.yul\":20326:20332   */\n      dup3\n        /* \"#utility.yul\":20322:20336   */\n      add\n        /* \"#utility.yul\":20315:20366   */\n      mstore\n        /* \"#utility.yul\":20198:20373   */\n      pop\n      jump\t// out\n        /* \"#utility.yul\":20379:20745   */\n    tag_304:\n        /* \"#utility.yul\":20521:20524   */\n      0x00\n        /* \"#utility.yul\":20542:20609   */\n      tag_529\n        /* \"#utility.yul\":20606:20608   */\n      0x19\n        /* \"#utility.yul\":20601:20604   */\n      dup4\n        /* \"#utility.yul\":20542:20609   */\n      tag_270\n      jump\t// in\n    tag_529:\n        /* \"#utility.yul\":20535:20609   */\n      swap2\n      pop\n        /* \"#utility.yul\":20618:20711   */\n      tag_530\n        /* \"#utility.yul\":20707:20710   */\n      dup3\n        /* \"#utility.yul\":20618:20711   */\n      tag_303\n      jump\t// in\n    tag_530:\n        /* \"#utility.yul\":20736:20738   */\n      0x20\n        /* \"#utility.yul\":20731:20734   */\n      dup3\n        /* \"#utility.yul\":20727:20739   */\n      add\n        /* \"#utility.yul\":20720:20739   */\n      swap1\n      pop\n        /* \"#utility.yul\":20379:20745   */\n      swap2\n      swap1\n      pop\n      jump\t// out\n        /* \"#utility.yul\":20751:21170   */\n    tag_98:\n        /* \"#utility.yul\":20917:20921   */\n      0x00\n        /* \"#utility.yul\":20955:20957   */\n      0x20\n        /* \"#utility.yul\":20944:20953   */\n      dup3\n        /* \"#utility.yul\":20940:20958   */\n      add\n        /* \"#utility.yul\":20932:20958   */\n      swap1\n      pop\n        /* \"#utility.yul\":21004:21013   */\n      dup2\n        /* \"#utility.yul\":20998:21002   */\n      dup2\n        /* \"#utility.yul\":20994:21014   */\n      sub\n        /* \"#utility.yul\":20990:20991   */\n      0x00\n        /* \"#utility.yul\":20979:20988   */\n      dup4\n        /* \"#utility.yul\":20975:20992   */\n      add\n        /* \"#utility.yul\":20968:21015   */\n      mstore\n        /* \"#utility.yul\":21032:21163   */\n      tag_532\n        /* \"#utility.yul\":21158:21162   */\n      dup2\n        /* \"#utility.yul\":21032:21163   */\n      tag_304\n      jump\t// in\n    tag_532:\n        /* \"#utility.yul\":21024:21163   */\n      swap1\n      pop\n        /* \"#utility.yul\":20751:21170   */\n      swap2\n      swap1\n      pop\n      jump\t// out\n        /* \"#utility.yul\":21176:21407   */\n    tag_305:\n        /* \"#utility.yul\":21316:21350   */\n      0x4f6e6c7920766572696669656420646f63746f72732063616e2063616c6c2074\n        /* \"#utility.yul\":21312:21313   */\n      0x00\n        /* \"#utility.yul\":21304:21310   */\n      dup3\n        /* \"#utility.yul\":21300:21314   */\n      add\n        /* \"#utility.yul\":21293:21351   */\n      mstore\n        /* \"#utility.yul\":21385:21399   */\n      0x6869732066756e6374696f6e0000000000000000000000000000000000000000\n        /* \"#utility.yul\":21380:21382   */\n      0x20\n        /* \"#utility.yul\":21372:21378   */\n      dup3\n        /* \"#utility.yul\":21368:21383   */\n      add\n        /* \"#utility.yul\":21361:21400   */\n      mstore\n        /* \"#utility.yul\":21176:21407   */\n      pop\n      jump\t// out\n        /* \"#utility.yul\":21413:21779   */\n    tag_306:\n        /* \"#utility.yul\":21555:21558   */\n      0x00\n        /* \"#utility.yul\":21576:21643   */\n      tag_535\n        /* \"#utility.yul\":21640:21642   */\n      0x2c\n        /* \"#utility.yul\":21635:21638   */\n      dup4\n        /* \"#utility.yul\":21576:21643   */\n      tag_270\n      jump\t// in\n    tag_535:\n        /* \"#utility.yul\":21569:21643   */\n      swap2\n      pop\n        /* \"#utility.yul\":21652:21745   */\n      tag_536\n        /* \"#utility.yul\":21741:21744   */\n      dup3\n        /* \"#utility.yul\":21652:21745   */\n      tag_305\n      jump\t// in\n    tag_536:\n        /* \"#utility.yul\":21770:21772   */\n      0x40\n        /* \"#utility.yul\":21765:21768   */\n      dup3\n        /* \"#utility.yul\":21761:21773   */\n      add\n        /* \"#utility.yul\":21754:21773   */\n      swap1\n      pop\n        /* \"#utility.yul\":21413:21779   */\n      swap2\n      swap1\n      pop\n      jump\t// out\n        /* \"#utility.yul\":21785:22204   */\n    tag_116:\n        /* \"#utility.yul\":21951:21955   */\n      0x00\n        /* \"#utility.yul\":21989:21991   */\n      0x20\n        /* \"#utility.yul\":21978:21987   */\n      dup3\n        /* \"#utility.yul\":21974:21992   */\n      add\n        /* \"#utility.yul\":21966:21992   */\n      swap1\n      pop\n        /* \"#utility.yul\":22038:22047   */\n      dup2\n        /* \"#utility.yul\":22032:22036   */\n      dup2\n        /* \"#utility.yul\":22028:22048   */\n      sub\n        /* \"#utility.yul\":22024:22025   */\n      0x00\n        /* \"#utility.yul\":22013:22022   */\n      dup4\n        /* \"#utility.yul\":22009:22026   */\n      add\n        /* \"#utility.yul\":22002:22049   */\n      mstore\n        /* \"#utility.yul\":22066:22197   */\n      tag_538\n        /* \"#utility.yul\":22192:22196   */\n      dup2\n        /* \"#utility.yul\":22066:22197   */\n      tag_306\n      jump\t// in\n    tag_538:\n        /* \"#utility.yul\":22058:22197   */\n      swap1\n      pop\n        /* \"#utility.yul\":21785:22204   */\n      swap2\n      swap1\n      pop\n      jump\t// out\n        /* \"#utility.yul\":22210:22383   */\n    tag_307:\n        /* \"#utility.yul\":22350:22375   */\n      0x496e76616c69642070617469656e742061646472657373000000000000000000\n        /* \"#utility.yul\":22346:22347   */\n      0x00\n        /* \"#utility.yul\":22338:22344   */\n      dup3\n        /* \"#utility.yul\":22334:22348   */\n      add\n        /* \"#utility.yul\":22327:22376   */\n      mstore\n        /* \"#utility.yul\":22210:22383   */\n      pop\n      jump\t// out\n        /* \"#utility.yul\":22389:22755   */\n    tag_308:\n        /* \"#utility.yul\":22531:22534   */\n      0x00\n        /* \"#utility.yul\":22552:22619   */\n      tag_541\n        /* \"#utility.yul\":22616:22618   */\n      0x17\n        /* \"#utility.yul\":22611:22614   */\n      dup4\n        /* \"#utility.yul\":22552:22619   */\n      tag_270\n      jump\t// in\n    tag_541:\n        /* \"#utility.yul\":22545:22619   */\n      swap2\n      pop\n        /* \"#utility.yul\":22628:22721   */\n      tag_542\n        /* \"#utility.yul\":22717:22720   */\n      dup3\n        /* \"#utility.yul\":22628:22721   */\n      tag_307\n      jump\t// in\n    tag_542:\n        /* \"#utility.yul\":22746:22748   */\n      0x20\n        /* \"#utility.yul\":22741:22744   */\n      dup3\n        /* \"#utility.yul\":22737:22749   */\n      add\n        /* \"#utility.yul\":22730:22749   */\n      swap1\n      pop\n        /* \"#utility.yul\":22389:22755   */\n      swap2\n      swap1\n      pop\n      jump\t// out\n        /* \"#utility.yul\":22761:23180   */\n    tag_124:\n        /* \"#utility.yul\":22927:22931   */\n      0x00\n        /* \"#utility.yul\":22965:22967   */\n      0x20\n        /* \"#utility.yul\":22954:22963   */\n      dup3\n        /* \"#utility.yul\":22950:22968   */\n      add\n        /* \"#utility.yul\":22942:22968   */\n      swap1\n      pop\n        /* \"#utility.yul\":23014:23023   */\n      dup2\n        /* \"#utility.yul\":23008:23012   */\n      dup2\n        /* \"#utility.yul\":23004:23024   */\n      sub\n        /* \"#utility.yul\":23000:23001   */\n      0x00\n        /* \"#utility.yul\":22989:22998   */\n      dup4\n        /* \"#utility.yul\":22985:23002   */\n      add\n        /* \"#utility.yul\":22978:23025   */\n      mstore\n        /* \"#utility.yul\":23042:23173   */\n      tag_544\n        /* \"#utility.yul\":23168:23172   */\n      dup2\n        /* \"#utility.yul\":23042:23173   */\n      tag_308\n      jump\t// in\n    tag_544:\n        /* \"#utility.yul\":23034:23173   */\n      swap1\n      pop\n        /* \"#utility.yul\":22761:23180   */\n      swap2\n      swap1\n      pop\n      jump\t// out\n        /* \"#utility.yul\":23186:23366   */\n    tag_309:\n        /* \"#utility.yul\":23234:23311   */\n      0x4e487b7100000000000000000000000000000000000000000000000000000000\n        /* \"#utility.yul\":23231:23232   */\n      0x00\n        /* \"#utility.yul\":23224:23312   */\n      mstore\n        /* \"#utility.yul\":23331:23335   */\n      0x22\n        /* \"#utility.yul\":23328:23329   */\n      0x04\n        /* \"#utility.yul\":23321:23336   */\n      mstore\n        /* \"#utility.yul\":23355:23359   */\n      0x24\n        /* \"#utility.yul\":23352:23353   */\n      0x00\n        /* \"#utility.yul\":23345:23360   */\n      revert\n        /* \"#utility.yul\":23372:23692   */\n    tag_169:\n        /* \"#utility.yul\":23416:23422   */\n      0x00\n        /* \"#utility.yul\":23453:23454   */\n      0x02\n        /* \"#utility.yul\":23447:23451   */\n      dup3\n        /* \"#utility.yul\":23443:23455   */\n      div\n        /* \"#utility.yul\":23433:23455   */\n      swap1\n      pop\n        /* \"#utility.yul\":23500:23501   */\n      0x01\n        /* \"#utility.yul\":23494:23498   */\n      dup3\n        /* \"#utility.yul\":23490:23502   */\n      and\n        /* \"#utility.yul\":23521:23539   */\n      dup1\n        /* \"#utility.yul\":23511:23592   */\n      tag_547\n      jumpi\n        /* \"#utility.yul\":23577:23581   */\n      0x7f\n        /* \"#utility.yul\":23569:23575   */\n      dup3\n        /* \"#utility.yul\":23565:23582   */\n      and\n        /* \"#utility.yul\":23555:23582   */\n      swap2\n      pop\n        /* \"#utility.yul\":23511:23592   */\n    tag_547:\n        /* \"#utility.yul\":23639:23641   */\n      0x20\n        /* \"#utility.yul\":23631:23637   */\n      dup3\n        /* \"#utility.yul\":23628:23642   */\n      lt\n        /* \"#utility.yul\":23608:23626   */\n      dup2\n        /* \"#utility.yul\":23605:23643   */\n      sub\n        /* \"#utility.yul\":23602:23686   */\n      tag_548\n      jumpi\n        /* \"#utility.yul\":23658:23676   */\n      tag_549\n      tag_309\n      jump\t// in\n    tag_549:\n        /* \"#utility.yul\":23602:23686   */\n    tag_548:\n        /* \"#utility.yul\":23423:23692   */\n      pop\n        /* \"#utility.yul\":23372:23692   */\n      swap2\n      swap1\n      pop\n      jump\t// out\n        /* \"#utility.yul\":23698:23839   */\n    tag_310:\n        /* \"#utility.yul\":23747:23751   */\n      0x00\n        /* \"#utility.yul\":23770:23773   */\n      dup2\n        /* \"#utility.yul\":23762:23773   */\n      swap1\n      pop\n        /* \"#utility.yul\":23793:23796   */\n      dup2\n        /* \"#utility.yul\":23790:23791   */\n      0x00\n        /* \"#utility.yul\":23783:23797   */\n      mstore\n        /* \"#utility.yul\":23827:23831   */\n      0x20\n        /* \"#utility.yul\":23824:23825   */\n      0x00\n        /* \"#utility.yul\":23814:23832   */\n      keccak256\n        /* \"#utility.yul\":23806:23832   */\n      swap1\n      pop\n        /* \"#utility.yul\":23698:23839   */\n      swap2\n      swap1\n      pop\n      jump\t// out\n        /* \"#utility.yul\":23845:23938   */\n    tag_311:\n        /* \"#utility.yul\":23882:23888   */\n      0x00\n        /* \"#utility.yul\":23929:23931   */\n      0x20\n        /* \"#utility.yul\":23924:23926   */\n      0x1f\n        /* \"#utility.yul\":23917:23922   */\n      dup4\n        /* \"#utility.yul\":23913:23927   */\n      add\n        /* \"#utility.yul\":23909:23932   */\n      div\n        /* \"#utility.yul\":23899:23932   */\n      swap1\n      pop\n        /* \"#utility.yul\":23845:23938   */\n      swap2\n      swap1\n      pop\n      jump\t// out\n        /* \"#utility.yul\":23944:24051   */\n    tag_312:\n        /* \"#utility.yul\":23988:23996   */\n      0x00\n        /* \"#utility.yul\":24038:24043   */\n      dup3\n        /* \"#utility.yul\":24032:24036   */\n      dup3\n        /* \"#utility.yul\":24028:24044   */\n      shl\n        /* \"#utility.yul\":24007:24044   */\n      swap1\n      pop\n        /* \"#utility.yul\":23944:24051   */\n      swap3\n      swap2\n      pop\n      pop\n      jump\t// out\n        /* \"#utility.yul\":24057:24450   */\n    tag_313:\n        /* \"#utility.yul\":24126:24132   */\n      0x00\n        /* \"#utility.yul\":24176:24177   */\n      0x08\n        /* \"#utility.yul\":24164:24174   */\n      dup4\n        /* \"#utility.yul\":24160:24178   */\n      mul\n        /* \"#utility.yul\":24199:24296   */\n      tag_554\n        /* \"#utility.yul\":24229:24295   */\n      0xffffffffffffffffffffffffffffffffffffffffffffffffffffffffffffffff\n        /* \"#utility.yul\":24218:24227   */\n      dup3\n        /* \"#utility.yul\":24199:24296   */\n      tag_312\n      jump\t// in\n    tag_554:\n        /* \"#utility.yul\":24317:24356   */\n      tag_555\n        /* \"#utility.yul\":24347:24355   */\n      dup7\n        /* \"#utility.yul\":24336:24345   */\n      dup4\n        /* \"#utility.yul\":24317:24356   */\n      tag_312\n      jump\t// in\n    tag_555:\n        /* \"#utility.yul\":24305:24356   */\n      swap6\n      pop\n        /* \"#utility.yul\":24389:24393   */\n      dup1\n        /* \"#utility.yul\":24385:24394   */\n      not\n        /* \"#utility.yul\":24378:24383   */\n      dup5\n        /* \"#utility.yul\":24374:24395   */\n      and\n        /* \"#utility.yul\":24365:24395   */\n      swap4\n      pop\n        /* \"#utility.yul\":24438:24442   */\n      dup1\n        /* \"#utility.yul\":24428:24436   */\n      dup7\n        /* \"#utility.yul\":24424:24443   */\n      and\n        /* \"#utility.yul\":24417:24422   */\n      dup5\n        /* \"#utility.yul\":24414:24444   */\n      or\n        /* \"#utility.yul\":24404:24444   */\n      swap3\n      pop\n        /* \"#utility.yul\":24133:24450   */\n      pop\n      pop\n        /* \"#utility.yul\":24057:24450   */\n      swap4\n      swap3\n      pop\n      pop\n      pop\n      jump\t// out\n        /* \"#utility.yul\":24456:24516   */\n    tag_314:\n        /* \"#utility.yul\":24484:24487   */\n      0x00\n        /* \"#utility.yul\":24505:24510   */\n      dup2\n        /* \"#utility.yul\":24498:24510   */\n      swap1\n      pop\n        /* \"#utility.yul\":24456:24516   */\n      swap2\n      swap1\n      pop\n      jump\t// out\n        /* \"#utility.yul\":24522:24664   */\n    tag_315:\n        /* \"#utility.yul\":24572:24581   */\n      0x00\n        /* \"#utility.yul\":24605:24658   */\n      tag_558\n        /* \"#utility.yul\":24623:24657   */\n      tag_559\n        /* \"#utility.yul\":24632:24656   */\n      tag_560\n        /* \"#utility.yul\":24650:24655   */\n      dup5\n        /* \"#utility.yul\":24632:24656   */\n      tag_277\n      jump\t// in\n    tag_560:\n        /* \"#utility.yul\":24623:24657   */\n      tag_314\n      jump\t// in\n    tag_559:\n        /* \"#utility.yul\":24605:24658   */\n      tag_277\n      jump\t// in\n    tag_558:\n        /* \"#utility.yul\":24592:24658   */\n      swap1\n      pop\n        /* \"#utility.yul\":24522:24664   */\n      swap2\n      swap1\n      pop\n      jump\t// out\n        /* \"#utility.yul\":24670:24745   */\n    tag_316:\n        /* \"#utility.yul\":24713:24716   */\n      0x00\n        /* \"#utility.yul\":24734:24739   */\n      dup2\n        /* \"#utility.yul\":24727:24739   */\n      swap1\n      pop\n        /* \"#utility.yul\":24670:24745   */\n      swap2\n      swap1\n      pop\n      jump\t// out\n        /* \"#utility.yul\":24751:25020   */\n    tag_317:\n        /* \"#utility.yul\":24861:24900   */\n      tag_563\n        /* \"#utility.yul\":24892:24899   */\n      dup4\n        /* \"#utility.yul\":24861:24900   */\n      tag_315\n      jump\t// in\n    tag_563:\n        /* \"#utility.yul\":24922:25013   */\n      tag_564\n        /* \"#utility.yul\":24971:25012   */\n      tag_565\n        /* \"#utility.yul\":24995:25011   */\n      dup3\n        /* \"#utility.yul\":24971:25012   */\n      tag_316\n      jump\t// in\n    tag_565:\n        /* \"#utility.yul\":24963:24969   */\n      dup5\n        /* \"#utility.yul\":24956:24960   */\n      dup5\n        /* \"#utility.yul\":24950:24961   */\n      sload\n        /* \"#utility.yul\":24922:25013   */\n      tag_313\n      jump\t// in\n    tag_564:\n        /* \"#utility.yul\":24916:24920   */\n      dup3\n        /* \"#utility.yul\":24909:25014   */\n      sstore\n        /* \"#utility.yul\":24827:25020   */\n      pop\n        /* \"#utility.yul\":24751:25020   */\n      pop\n      pop\n      pop\n      jump\t// out\n        /* \"#utility.yul\":25026:25099   */\n    tag_318:\n        /* \"#utility.yul\":25071:25074   */\n      0x00\n        /* \"#utility.yul\":25092:25093   */\n      0x00\n        /* \"#utility.yul\":25085:25093   */\n      swap1\n      pop\n        /* \"#utility.yul\":25026:25099   */\n      swap1\n      jump\t// out\n        /* \"#utility.yul\":25105:25294   */\n    tag_319:\n        /* \"#utility.yul\":25182:25214   */\n      tag_568\n      tag_318\n      jump\t// in\n    tag_568:\n        /* \"#utility.yul\":25223:25288   */\n      tag_569\n        /* \"#utility.yul\":25281:25287   */\n      dup2\n        /* \"#utility.yul\":25273:25279   */\n      dup5\n        /* \"#utility.yul\":25267:25271   */\n      dup5\n        /* \"#utility.yul\":25223:25288   */\n      tag_317\n      jump\t// in\n    tag_569:\n        /* \"#utility.yul\":25158:25294   */\n      pop\n        /* \"#utility.yul\":25105:25294   */\n      pop\n      pop\n      jump\t// out\n        /* \"#utility.yul\":25300:25486   */\n    tag_320:\n        /* \"#utility.yul\":25360:25480   */\n    tag_571:\n        /* \"#utility.yul\":25377:25380   */\n      dup2\n        /* \"#utility.yul\":25370:25375   */\n      dup2\n        /* \"#utility.yul\":25367:25381   */\n      lt\n        /* \"#utility.yul\":25360:25480   */\n      iszero\n      tag_573\n      jumpi\n        /* \"#utility.yul\":25431:25470   */\n      tag_574\n        /* \"#utility.yul\":25468:25469   */\n      0x00\n        /* \"#utility.yul\":25461:25466   */\n      dup3\n        /* \"#utility.yul\":25431:25470   */\n      tag_319\n      jump\t// in\n    tag_574:\n        /* \"#utility.yul\":25404:25405   */\n      0x01\n        /* \"#utility.yul\":25397:25402   */\n      dup2\n        /* \"#utility.yul\":25393:25406   */\n      add\n        /* \"#utility.yul\":25384:25406   */\n      swap1\n      pop\n        /* \"#utility.yul\":25360:25480   */\n      jump(tag_571)\n    tag_573:\n        /* \"#utility.yul\":25300:25486   */\n      pop\n      pop\n      jump\t// out\n        /* \"#utility.yul\":25492:26035   */\n    tag_321:\n        /* \"#utility.yul\":25593:25595   */\n      0x1f\n        /* \"#utility.yul\":25588:25591   */\n      dup3\n        /* \"#utility.yul\":25585:25596   */\n      gt\n        /* \"#utility.yul\":25582:26028   */\n      iszero\n      tag_576\n      jumpi\n        /* \"#utility.yul\":25627:25665   */\n      tag_577\n        /* \"#utility.yul\":25659:25664   */\n      dup2\n        /* \"#utility.yul\":25627:25665   */\n      tag_310\n      jump\t// in\n    tag_577:\n        /* \"#utility.yul\":25711:25740   */\n      tag_578\n        /* \"#utility.yul\":25729:25739   */\n      dup5\n        /* \"#utility.yul\":25711:25740   */\n      tag_311\n      jump\t// in\n    tag_578:\n        /* \"#utility.yul\":25701:25709   */\n      dup2\n        /* \"#utility.yul\":25697:25741   */\n      add\n        /* \"#utility.yul\":25894:25896   */\n      0x20\n        /* \"#utility.yul\":25882:25892   */\n      dup6\n        /* \"#utility.yul\":25879:25897   */\n      lt\n        /* \"#utility.yul\":25876:25925   */\n      iszero\n      tag_579\n      jumpi\n        /* \"#utility.yul\":25915:25923   */\n      dup2\n        /* \"#utility.yul\":25900:25923   */\n      swap1\n      pop\n        /* \"#utility.yul\":25876:25925   */\n    tag_579:\n        /* \"#utility.yul\":25938:26018   */\n      tag_580\n        /* \"#utility.yul\":25994:26016   */\n      tag_581\n        /* \"#utility.yul\":26012:26015   */\n      dup6\n        /* \"#utility.yul\":25994:26016   */\n      tag_311\n      jump\t// in\n    tag_581:\n        /* \"#utility.yul\":25984:25992   */\n      dup4\n        /* \"#utility.yul\":25980:26017   */\n      add\n        /* \"#utility.yul\":25967:25978   */\n      dup3\n        /* \"#utility.yul\":25938:26018   */\n      tag_320\n      jump\t// in\n    tag_580:\n        /* \"#utility.yul\":25597:26028   */\n      pop\n      pop\n        /* \"#utility.yul\":25582:26028   */\n    tag_576:\n        /* \"#utility.yul\":25492:26035   */\n      pop\n      pop\n      pop\n      jump\t// out\n        /* \"#utility.yul\":26041:26158   */\n    tag_322:\n        /* \"#utility.yul\":26095:26103   */\n      0x00\n        /* \"#utility.yul\":26145:26150   */\n      dup3\n        /* \"#utility.yul\":26139:26143   */\n      dup3\n        /* \"#utility.yul\":26135:26151   */\n      shr\n        /* \"#utility.yul\":26114:26151   */\n      swap1\n      pop\n        /* \"#utility.yul\":26041:26158   */\n      swap3\n      swap2\n      pop\n      pop\n      jump\t// out\n        /* \"#utility.yul\":26164:26333   */\n    tag_323:\n        /* \"#utility.yul\":26208:26214   */\n      0x00\n        /* \"#utility.yul\":26241:26292   */\n      tag_584\n        /* \"#utility.yul\":26289:26290   */\n      0x00\n        /* \"#utility.yul\":26285:26291   */\n      not\n        /* \"#utility.yul\":26277:26282   */\n      dup5\n        /* \"#utility.yul\":26274:26275   */\n      0x08\n        /* \"#utility.yul\":26270:26283   */\n      mul\n        /* \"#utility.yul\":26241:26292   */\n      tag_322\n      jump\t// in\n    tag_584:\n        /* \"#utility.yul\":26237:26293   */\n      not\n        /* \"#utility.yul\":26322:26326   */\n      dup1\n        /* \"#utility.yul\":26316:26320   */\n      dup4\n        /* \"#utility.yul\":26312:26327   */\n      and\n        /* \"#utility.yul\":26302:26327   */\n      swap2\n      pop\n        /* \"#utility.yul\":26215:26333   */\n      pop\n        /* \"#utility.yul\":26164:26333   */\n      swap3\n      swap2\n      pop\n      pop\n      jump\t// out\n        /* \"#utility.yul\":26338:26633   */\n    tag_324:\n        /* \"#utility.yul\":26414:26418   */\n      0x00\n        /* \"#utility.yul\":26560:26589   */\n      tag_586\n        /* \"#utility.yul\":26585:26588   */\n      dup4\n        /* \"#utility.yul\":26579:26583   */\n      dup4\n        /* \"#utility.yul\":26560:26589   */\n      tag_323\n      jump\t// in\n    tag_586:\n        /* \"#utility.yul\":26552:26589   */\n      swap2\n      pop\n        /* \"#utility.yul\":26622:26625   */\n      dup3\n        /* \"#utility.yul\":26619:26620   */\n      0x02\n        /* \"#utility.yul\":26615:26626   */\n      mul\n        /* \"#utility.yul\":26609:26613   */\n      dup3\n        /* \"#utility.yul\":26606:26627   */\n      or\n        /* \"#utility.yul\":26598:26627   */\n      swap1\n      pop\n        /* \"#utility.yul\":26338:26633   */\n      swap3\n      swap2\n      pop\n      pop\n      jump\t// out\n        /* \"#utility.yul\":26638:28033   */\n    tag_127:\n        /* \"#utility.yul\":26755:26792   */\n      tag_588\n        /* \"#utility.yul\":26788:26791   */\n      dup3\n        /* \"#utility.yul\":26755:26792   */\n      tag_269\n      jump\t// in\n    tag_588:\n        /* \"#utility.yul\":26857:26875   */\n      0xffffffffffffffff\n        /* \"#utility.yul\":26849:26855   */\n      dup2\n        /* \"#utility.yul\":26846:26876   */\n      gt\n        /* \"#utility.yul\":26843:26899   */\n      iszero\n      tag_589\n      jumpi\n        /* \"#utility.yul\":26879:26897   */\n      tag_590\n      tag_260\n      jump\t// in\n    tag_590:\n        /* \"#utility.yul\":26843:26899   */\n    tag_589:\n        /* \"#utility.yul\":26923:26961   */\n      tag_591\n        /* \"#utility.yul\":26955:26959   */\n      dup3\n        /* \"#utility.yul\":26949:26960   */\n      sload\n        /* \"#utility.yul\":26923:26961   */\n      tag_169\n      jump\t// in\n    tag_591:\n        /* \"#utility.yul\":27008:27075   */\n      tag_592\n        /* \"#utility.yul\":27068:27074   */\n      dup3\n        /* \"#utility.yul\":27060:27066   */\n      dup3\n        /* \"#utility.yul\":27054:27058   */\n      dup6\n        /* \"#utility.yul\":27008:27075   */\n      tag_321\n      jump\t// in\n    tag_592:\n        /* \"#utility.yul\":27102:27103   */\n      0x00\n        /* \"#utility.yul\":27126:27130   */\n      0x20\n        /* \"#utility.yul\":27113:27130   */\n      swap1\n      pop\n        /* \"#utility.yul\":27158:27160   */\n      0x1f\n        /* \"#utility.yul\":27150:27156   */\n      dup4\n        /* \"#utility.yul\":27147:27161   */\n      gt\n        /* \"#utility.yul\":27175:27176   */\n      0x01\n        /* \"#utility.yul\":27170:27788   */\n      dup2\n      eq\n      tag_594\n      jumpi\n        /* \"#utility.yul\":27832:27833   */\n      0x00\n        /* \"#utility.yul\":27849:27855   */\n      dup5\n        /* \"#utility.yul\":27846:27923   */\n      iszero\n      tag_595\n      jumpi\n        /* \"#utility.yul\":27898:27907   */\n      dup3\n        /* \"#utility.yul\":27893:27896   */\n      dup8\n        /* \"#utility.yul\":27889:27908   */\n      add\n        /* \"#utility.yul\":27883:27909   */\n      mload\n        /* \"#utility.yul\":27874:27909   */\n      swap1\n      pop\n        /* \"#utility.yul\":27846:27923   */\n    tag_595:\n        /* \"#utility.yul\":27949:28016   */\n      tag_596\n        /* \"#utility.yul\":28009:28015   */\n      dup6\n        /* \"#utility.yul\":28002:28007   */\n      dup3\n        /* \"#utility.yul\":27949:28016   */\n      tag_324\n      jump\t// in\n    tag_596:\n        /* \"#utility.yul\":27943:27947   */\n      dup7\n        /* \"#utility.yul\":27936:28017   */\n      sstore\n        /* \"#utility.yul\":27805:28027   */\n      pop\n        /* \"#utility.yul\":27140:28027   */\n      jump(tag_593)\n        /* \"#utility.yul\":27170:27788   */\n    tag_594:\n        /* \"#utility.yul\":27222:27226   */\n      0x1f\n        /* \"#utility.yul\":27218:27227   */\n      not\n        /* \"#utility.yul\":27210:27216   */\n      dup5\n        /* \"#utility.yul\":27206:27228   */\n      and\n        /* \"#utility.yul\":27256:27293   */\n      tag_597\n        /* \"#utility.yul\":27288:27292   */\n      dup7\n        /* \"#utility.yul\":27256:27293   */\n      tag_310\n      jump\t// in\n    tag_597:\n        /* \"#utility.yul\":27315:27316   */\n      0x00\n        /* \"#utility.yul\":27329:27537   */\n    tag_598:\n        /* \"#utility.yul\":27343:27350   */\n      dup3\n        /* \"#utility.yul\":27340:27341   */\n      dup2\n        /* \"#utility.yul\":27337:27351   */\n      lt\n        /* \"#utility.yul\":27329:27537   */\n      iszero\n      tag_600\n      jumpi\n        /* \"#utility.yul\":27422:27431   */\n      dup5\n        /* \"#utility.yul\":27417:27420   */\n      dup10\n        /* \"#utility.yul\":27413:27432   */\n      add\n        /* \"#utility.yul\":27407:27433   */\n      mload\n        /* \"#utility.yul\":27399:27405   */\n      dup3\n        /* \"#utility.yul\":27392:27434   */\n      sstore\n        /* \"#utility.yul\":27473:27474   */\n      0x01\n        /* \"#utility.yul\":27465:27471   */\n      dup3\n        /* \"#utility.yul\":27461:27475   */\n      add\n        /* \"#utility.yul\":27451:27475   */\n      swap2\n      pop\n        /* \"#utility.yul\":27520:27522   */\n      0x20\n        /* \"#utility.yul\":27509:27518   */\n      dup6\n        /* \"#utility.yul\":27505:27523   */\n      add\n        /* \"#utility.yul\":27492:27523   */\n      swap5\n      pop\n        /* \"#utility.yul\":27366:27370   */\n      0x20\n        /* \"#utility.yul\":27363:27364   */\n      dup2\n        /* \"#utility.yul\":27359:27371   */\n      add\n        /* \"#utility.yul\":27354:27371   */\n      swap1\n      pop\n        /* \"#utility.yul\":27329:27537   */\n      jump(tag_598)\n    tag_600:\n        /* \"#utility.yul\":27565:27571   */\n      dup7\n        /* \"#utility.yul\":27556:27563   */\n      dup4\n        /* \"#utility.yul\":27553:27572   */\n      lt\n        /* \"#utility.yul\":27550:27729   */\n      iszero\n      tag_601\n      jumpi\n        /* \"#utility.yul\":27623:27632   */\n      dup5\n        /* \"#utility.yul\":27618:27621   */\n      dup10\n        /* \"#utility.yul\":27614:27633   */\n      add\n        /* \"#utility.yul\":27608:27634   */\n      mload\n        /* \"#utility.yul\":27666:27714   */\n      tag_602\n        /* \"#utility.yul\":27708:27712   */\n      0x1f\n        /* \"#utility.yul\":27700:27706   */\n      dup10\n        /* \"#utility.yul\":27696:27713   */\n      and\n        /* \"#utility.yul\":27685:27694   */\n      dup3\n        /* \"#utility.yul\":27666:27714   */\n      tag_323\n      jump\t// in\n    tag_602:\n        /* \"#utility.yul\":27658:27664   */\n      dup4\n        /* \"#utility.yul\":27651:27715   */\n      sstore\n        /* \"#utility.yul\":27573:27729   */\n      pop\n        /* \"#utility.yul\":27550:27729   */\n    tag_601:\n        /* \"#utility.yul\":27775:27776   */\n      0x01\n        /* \"#utility.yul\":27771:27772   */\n      0x02\n        /* \"#utility.yul\":27763:27769   */\n      dup9\n        /* \"#utility.yul\":27759:27773   */\n      mul\n        /* \"#utility.yul\":27755:27777   */\n      add\n        /* \"#utility.yul\":27749:27753   */\n      dup9\n        /* \"#utility.yul\":27742:27778   */\n      sstore\n        /* \"#utility.yul\":27177:27788   */\n      pop\n      pop\n      pop\n        /* \"#utility.yul\":27140:28027   */\n    tag_593:\n      pop\n        /* \"#utility.yul\":26730:28033   */\n      pop\n      pop\n      pop\n        /* \"#utility.yul\":26638:28033   */\n      pop\n      pop\n      jump\t// out\n        /* \"#utility.yul\":28039:28352   */\n    tag_129:\n        /* \"#utility.yul\":28152:28156   */\n      0x00\n        /* \"#utility.yul\":28190:28192   */\n      0x20\n        /* \"#utility.yul\":28179:28188   */\n      dup3\n        /* \"#utility.yul\":28175:28193   */\n      add\n        /* \"#utility.yul\":28167:28193   */\n      swap1\n      pop\n        /* \"#utility.yul\":28239:28248   */\n      dup2\n        /* \"#utility.yul\":28233:28237   */\n      dup2\n        /* \"#utility.yul\":28229:28249   */\n      sub\n        /* \"#utility.yul\":28225:28226   */\n      0x00\n        /* \"#utility.yul\":28214:28223   */\n      dup4\n        /* \"#utility.yul\":28210:28227   */\n      add\n        /* \"#utility.yul\":28203:28250   */\n      mstore\n        /* \"#utility.yul\":28267:28345   */\n      tag_604\n        /* \"#utility.yul\":28340:28344   */\n      dup2\n        /* \"#utility.yul\":28331:28337   */\n      dup5\n        /* \"#utility.yul\":28267:28345   */\n      tag_272\n      jump\t// in\n    tag_604:\n        /* \"#utility.yul\":28259:28345   */\n      swap1\n      pop\n        /* \"#utility.yul\":28039:28352   */\n      swap3\n      swap2\n      pop\n      pop\n      jump\t// out\n        /* \"#utility.yul\":28358:28531   */\n    tag_325:\n        /* \"#utility.yul\":28498:28523   */\n      0x5573657220616c72656164792072656769737465726564000000000000000000\n        /* \"#utility.yul\":28494:28495   */\n      0x00\n        /* \"#utility.yul\":28486:28492   */\n      dup3\n        /* \"#utility.yul\":28482:28496   */\n      add\n        /* \"#utility.yul\":28475:28524   */\n      mstore\n        /* \"#utility.yul\":28358:28531   */\n      pop\n      jump\t// out\n        /* \"#utility.yul\":28537:28903   */\n    tag_326:\n        /* \"#utility.yul\":28679:28682   */\n      0x00\n        /* \"#utility.yul\":28700:28767   */\n      tag_607\n        /* \"#utility.yul\":28764:28766   */\n      0x17\n        /* \"#utility.yul\":28759:28762   */\n      dup4\n        /* \"#utility.yul\":28700:28767   */\n      tag_270\n      jump\t// in\n    tag_607:\n        /* \"#utility.yul\":28693:28767   */\n      swap2\n      pop\n        /* \"#utility.yul\":28776:28869   */\n      tag_608\n        /* \"#utility.yul\":28865:28868   */\n      dup3\n        /* \"#utility.yul\":28776:28869   */\n      tag_325\n      jump\t// in\n    tag_608:\n        /* \"#utility.yul\":28894:28896   */\n      0x20\n        /* \"#utility.yul\":28889:28892   */\n      dup3\n        /* \"#utility.yul\":28885:28897   */\n      add\n        /* \"#utility.yul\":28878:28897   */\n      swap1\n      pop\n        /* \"#utility.yul\":28537:28903   */\n      swap2\n      swap1\n      pop\n      jump\t// out\n        /* \"#utility.yul\":28909:29328   */\n    tag_137:\n        /* \"#utility.yul\":29075:29079   */\n      0x00\n        /* \"#utility.yul\":29113:29115   */\n      0x20\n        /* \"#utility.yul\":29102:29111   */\n      dup3\n        /* \"#utility.yul\":29098:29116   */\n      add\n        /* \"#utility.yul\":29090:29116   */\n      swap1\n      pop\n        /* \"#utility.yul\":29162:29171   */\n      dup2\n        /* \"#utility.yul\":29156:29160   */\n      dup2\n        /* \"#utility.yul\":29152:29172   */\n      sub\n        /* \"#utility.yul\":29148:29149   */\n      0x00\n        /* \"#utility.yul\":29137:29146   */\n      dup4\n        /* \"#utility.yul\":29133:29150   */\n      add\n        /* \"#utility.yul\":29126:29173   */\n      mstore\n        /* \"#utility.yul\":29190:29321   */\n      tag_610\n        /* \"#utility.yul\":29316:29320   */\n      dup2\n        /* \"#utility.yul\":29190:29321   */\n      tag_326\n      jump\t// in\n    tag_610:\n        /* \"#utility.yul\":29182:29321   */\n      swap1\n      pop\n        /* \"#utility.yul\":28909:29328   */\n      swap2\n      swap1\n      pop\n      jump\t// out\n        /* \"#utility.yul\":29334:29496   */\n    tag_327:\n        /* \"#utility.yul\":29474:29488   */\n      0x496e76616c696420726f6c650000000000000000000000000000000000000000\n        /* \"#utility.yul\":29470:29471   */\n      0x00\n        /* \"#utility.yul\":29462:29468   */\n      dup3\n        /* \"#utility.yul\":29458:29472   */\n      add\n        /* \"#utility.yul\":29451:29489   */\n      mstore\n        /* \"#utility.yul\":29334:29496   */\n      pop\n      jump\t// out\n        /* \"#utility.yul\":29502:29868   */\n    tag_328:\n        /* \"#utility.yul\":29644:29647   */\n      0x00\n        /* \"#utility.yul\":29665:29732   */\n      tag_613\n        /* \"#utility.yul\":29729:29731   */\n      0x0c\n        /* \"#utility.yul\":29724:29727   */\n      dup4\n        /* \"#utility.yul\":29665:29732   */\n      tag_270\n      jump\t// in\n    tag_613:\n        /* \"#utility.yul\":29658:29732   */\n      swap2\n      pop\n        /* \"#utility.yul\":29741:29834   */\n      tag_614\n        /* \"#utility.yul\":29830:29833   */\n      dup3\n        /* \"#utility.yul\":29741:29834   */\n      tag_327\n      jump\t// in\n    tag_614:\n        /* \"#utility.yul\":29859:29861   */\n      0x20\n        /* \"#utility.yul\":29854:29857   */\n      dup3\n        /* \"#utility.yul\":29850:29862   */\n      add\n        /* \"#utility.yul\":29843:29862   */\n      swap1\n      pop\n        /* \"#utility.yul\":29502:29868   */\n      swap2\n      swap1\n      pop\n      jump\t// out\n        /* \"#utility.yul\":29874:30293   */\n    tag_149:\n        /* \"#utility.yul\":30040:30044   */\n      0x00\n        /* \"#utility.yul\":30078:30080   */\n      0x20\n        /* \"#utility.yul\":30067:30076   */\n      dup3\n        /* \"#utility.yul\":30063:30081   */\n      add\n        /* \"#utility.yul\":30055:30081   */\n      swap1\n      pop\n        /* \"#utility.yul\":30127:30136   */\n      dup2\n        /* \"#utility.yul\":30121:30125   */\n      dup2\n        /* \"#utility.yul\":30117:30137   */\n      sub\n        /* \"#utility.yul\":30113:30114   */\n      0x00\n        /* \"#utility.yul\":30102:30111   */\n      dup4\n        /* \"#utility.yul\":30098:30115   */\n      add\n        /* \"#utility.yul\":30091:30138   */\n      mstore\n        /* \"#utility.yul\":30155:30286   */\n      tag_616\n        /* \"#utility.yul\":30281:30285   */\n      dup2\n        /* \"#utility.yul\":30155:30286   */\n      tag_328\n      jump\t// in\n    tag_616:\n        /* \"#utility.yul\":30147:30286   */\n      swap1\n      pop\n        /* \"#utility.yul\":29874:30293   */\n      swap2\n      swap1\n      pop\n      jump\t// out\n        /* \"#utility.yul\":30299:30730   */\n    tag_162:\n        /* \"#utility.yul\":30444:30448   */\n      0x00\n        /* \"#utility.yul\":30482:30484   */\n      0x40\n        /* \"#utility.yul\":30471:30480   */\n      dup3\n        /* \"#utility.yul\":30467:30485   */\n      add\n        /* \"#utility.yul\":30459:30485   */\n      swap1\n      pop\n        /* \"#utility.yul\":30495:30570   */\n      tag_618\n        /* \"#utility.yul\":30567:30568   */\n      0x00\n        /* \"#utility.yul\":30556:30565   */\n      dup4\n        /* \"#utility.yul\":30552:30569   */\n      add\n        /* \"#utility.yul\":30543:30549   */\n      dup6\n        /* \"#utility.yul\":30495:30570   */\n      tag_276\n      jump\t// in\n    tag_618:\n        /* \"#utility.yul\":30617:30626   */\n      dup2\n        /* \"#utility.yul\":30611:30615   */\n      dup2\n        /* \"#utility.yul\":30607:30627   */\n      sub\n        /* \"#utility.yul\":30602:30604   */\n      0x20\n        /* \"#utility.yul\":30591:30600   */\n      dup4\n        /* \"#utility.yul\":30587:30605   */\n      add\n        /* \"#utility.yul\":30580:30628   */\n      mstore\n        /* \"#utility.yul\":30645:30723   */\n      tag_619\n        /* \"#utility.yul\":30718:30722   */\n      dup2\n        /* \"#utility.yul\":30709:30715   */\n      dup5\n        /* \"#utility.yul\":30645:30723   */\n      tag_272\n      jump\t// in\n    tag_619:\n        /* \"#utility.yul\":30637:30723   */\n      swap1\n      pop\n        /* \"#utility.yul\":30299:30730   */\n      swap4\n      swap3\n      pop\n      pop\n      pop\n      jump\t// out\n        /* \"#utility.yul\":30736:30962   */\n    tag_329:\n        /* \"#utility.yul\":30876:30910   */\n      0x4f6e6c792070617469656e742063616e20766965772074686569722061636365\n        /* \"#utility.yul\":30872:30873   */\n      0x00\n        /* \"#utility.yul\":30864:30870   */\n      dup3\n        /* \"#utility.yul\":30860:30874   */\n      add\n        /* \"#utility.yul\":30853:30911   */\n      mstore\n        /* \"#utility.yul\":30945:30954   */\n      0x7373206c69737400000000000000000000000000000000000000000000000000\n        /* \"#utility.yul\":30940:30942   */\n      0x20\n        /* \"#utility.yul\":30932:30938   */\n      dup3\n        /* \"#utility.yul\":30928:30943   */\n      add\n        /* \"#utility.yul\":30921:30955   */\n      mstore\n        /* \"#utility.yul\":30736:30962   */\n      pop\n      jump\t// out\n        /* \"#utility.yul\":30968:31334   */\n    tag_330:\n        /* \"#utility.yul\":31110:31113   */\n      0x00\n        /* \"#utility.yul\":31131:31198   */\n      tag_622\n        /* \"#utility.yul\":31195:31197   */\n      0x27\n        /* \"#utility.yul\":31190:31193   */\n      dup4\n        /* \"#utility.yul\":31131:31198   */\n      tag_270\n      jump\t// in\n    tag_622:\n        /* \"#utility.yul\":31124:31198   */\n      swap2\n      pop\n        /* \"#utility.yul\":31207:31300   */\n      tag_623\n        /* \"#utility.yul\":31296:31299   */\n      dup3\n        /* \"#utility.yul\":31207:31300   */\n      tag_329\n      jump\t// in\n    tag_623:\n        /* \"#utility.yul\":31325:31327   */\n      0x40\n        /* \"#utility.yul\":31320:31323   */\n      dup3\n        /* \"#utility.yul\":31316:31328   */\n      add\n        /* \"#utility.yul\":31309:31328   */\n      swap1\n      pop\n        /* \"#utility.yul\":30968:31334   */\n      swap2\n      swap1\n      pop\n      jump\t// out\n        /* \"#utility.yul\":31340:31759   */\n    tag_189:\n        /* \"#utility.yul\":31506:31510   */\n      0x00\n        /* \"#utility.yul\":31544:31546   */\n      0x20\n        /* \"#utility.yul\":31533:31542   */\n      dup3\n        /* \"#utility.yul\":31529:31547   */\n      add\n        /* \"#utility.yul\":31521:31547   */\n      swap1\n      pop\n        /* \"#utility.yul\":31593:31602   */\n      dup2\n        /* \"#utility.yul\":31587:31591   */\n      dup2\n        /* \"#utility.yul\":31583:31603   */\n      sub\n        /* \"#utility.yul\":31579:31580   */\n      0x00\n        /* \"#utility.yul\":31568:31577   */\n      dup4\n        /* \"#utility.yul\":31564:31581   */\n      add\n        /* \"#utility.yul\":31557:31604   */\n      mstore\n        /* \"#utility.yul\":31621:31752   */\n      tag_625\n        /* \"#utility.yul\":31747:31751   */\n      dup2\n        /* \"#utility.yul\":31621:31752   */\n      tag_330\n      jump\t// in\n    tag_625:\n        /* \"#utility.yul\":31613:31752   */\n      swap1\n      pop\n        /* \"#utility.yul\":31340:31759   */\n      swap2\n      swap1\n      pop\n      jump\t// out\n        /* \"#utility.yul\":31765:31943   */\n    tag_331:\n        /* \"#utility.yul\":31905:31935   */\n      0x4e6f2061636365737320746f206d65646963616c207265636f72647300000000\n        /* \"#utility.yul\":31901:31902   */\n      0x00\n        /* \"#utility.yul\":31893:31899   */\n      dup3\n        /* \"#utility.yul\":31889:31903   */\n      add\n        /* \"#utility.yul\":31882:31936   */\n      mstore\n        /* \"#utility.yul\":31765:31943   */\n      pop\n      jump\t// out\n        /* \"#utility.yul\":31949:32315   */\n    tag_332:\n        /* \"#utility.yul\":32091:32094   */\n      0x00\n        /* \"#utility.yul\":32112:32179   */\n      tag_628\n        /* \"#utility.yul\":32176:32178   */\n      0x1c\n        /* \"#utility.yul\":32171:32174   */\n      dup4\n        /* \"#utility.yul\":32112:32179   */\n      tag_270\n      jump\t// in\n    tag_628:\n        /* \"#utility.yul\":32105:32179   */\n      swap2\n      pop\n        /* \"#utility.yul\":32188:32281   */\n      tag_629\n        /* \"#utility.yul\":32277:32280   */\n      dup3\n        /* \"#utility.yul\":32188:32281   */\n      tag_331\n      jump\t// in\n    tag_629:\n        /* \"#utility.yul\":32306:32308   */\n      0x20\n        /* \"#utility.yul\":32301:32304   */\n      dup3\n        /* \"#utility.yul\":32297:32309   */\n      add\n        /* \"#utility.yul\":32290:32309   */\n      swap1\n      pop\n        /* \"#utility.yul\":31949:32315   */\n      swap2\n      swap1\n      pop\n      jump\t// out\n        /* \"#utility.yul\":32321:32740   */\n    tag_224:\n        /* \"#utility.yul\":32487:32491   */\n      0x00\n        /* \"#utility.yul\":32525:32527   */\n      0x20\n        /* \"#utility.yul\":32514:32523   */\n      dup3\n        /* \"#utility.yul\":32510:32528   */\n      add\n        /* \"#utility.yul\":32502:32528   */\n      swap1\n      pop\n        /* \"#utility.yul\":32574:32583   */\n      dup2\n        /* \"#utility.yul\":32568:32572   */\n      dup2\n        /* \"#utility.yul\":32564:32584   */\n      sub\n        /* \"#utility.yul\":32560:32561   */\n      0x00\n        /* \"#utility.yul\":32549:32558   */\n      dup4\n        /* \"#utility.yul\":32545:32562   */\n      add\n        /* \"#utility.yul\":32538:32585   */\n      mstore\n        /* \"#utility.yul\":32602:32733   */\n      tag_631\n        /* \"#utility.yul\":32728:32732   */\n      dup2\n        /* \"#utility.yul\":32602:32733   */\n      tag_332\n      jump\t// in\n    tag_631:\n        /* \"#utility.yul\":32594:32733   */\n      swap1\n      pop\n        /* \"#utility.yul\":32321:32740   */\n      swap2\n      swap1\n      pop\n      jump\t// out\n        /* \"#utility.yul\":32746:32966   */\n    tag_333:\n        /* \"#utility.yul\":32886:32920   */\n      0x4f6e6c792061646d696e2063616e2063616c6c20746869732066756e6374696f\n        /* \"#utility.yul\":32882:32883   */\n      0x00\n        /* \"#utility.yul\":32874:32880   */\n      dup3\n        /* \"#utility.yul\":32870:32884   */\n      add\n        /* \"#utility.yul\":32863:32921   */\n      mstore\n        /* \"#utility.yul\":32955:32958   */\n      0x6e00000000000000000000000000000000000000000000000000000000000000\n        /* \"#utility.yul\":32950:32952   */\n      0x20\n        /* \"#utility.yul\":32942:32948   */\n      dup3\n        /* \"#utility.yul\":32938:32953   */\n      add\n        /* \"#utility.yul\":32931:32959   */\n      mstore\n        /* \"#utility.yul\":32746:32966   */\n      pop\n      jump\t// out\n        /* \"#utility.yul\":32972:33338   */\n    tag_334:\n        /* \"#utility.yul\":33114:33117   */\n      0x00\n        /* \"#utility.yul\":33135:33202   */\n      tag_634\n        /* \"#utility.yul\":33199:33201   */\n      0x21\n        /* \"#utility.yul\":33194:33197   */\n      dup4\n        /* \"#utility.yul\":33135:33202   */\n      tag_270\n      jump\t// in\n    tag_634:\n        /* \"#utility.yul\":33128:33202   */\n      swap2\n      pop\n        /* \"#utility.yul\":33211:33304   */\n      tag_635\n        /* \"#utility.yul\":33300:33303   */\n      dup3\n        /* \"#utility.yul\":33211:33304   */\n      tag_333\n      jump\t// in\n    tag_635:\n        /* \"#utility.yul\":33329:33331   */\n      0x40\n        /* \"#utility.yul\":33324:33327   */\n      dup3\n        /* \"#utility.yul\":33320:33332   */\n      add\n        /* \"#utility.yul\":33313:33332   */\n      swap1\n      pop\n        /* \"#utility.yul\":32972:33338   */\n      swap2\n      swap1\n      pop\n      jump\t// out\n        /* \"#utility.yul\":33344:33763   */\n    tag_236:\n        /* \"#utility.yul\":33510:33514   */\n      0x00\n        /* \"#utility.yul\":33548:33550   */\n      0x20\n        /* \"#utility.yul\":33537:33546   */\n      dup3\n        /* \"#utility.yul\":33533:33551   */\n      add\n        /* \"#utility.yul\":33525:33551   */\n      swap1\n      pop\n        /* \"#utility.yul\":33597:33606   */\n      dup2\n        /* \"#utility.yul\":33591:33595   */\n      dup2\n        /* \"#utility.yul\":33587:33607   */\n      sub\n        /* \"#utility.yul\":33583:33584   */\n      0x00\n        /* \"#utility.yul\":33572:33581   */\n      dup4\n        /* \"#utility.yul\":33568:33585   */\n      add\n        /* \"#utility.yul\":33561:33608   */\n      mstore\n        /* \"#utility.yul\":33625:33756   */\n      tag_637\n        /* \"#utility.yul\":33751:33755   */\n      dup2\n        /* \"#utility.yul\":33625:33756   */\n      tag_334\n      jump\t// in\n    tag_637:\n        /* \"#utility.yul\":33617:33756   */\n      swap1\n      pop\n        /* \"#utility.yul\":33344:33763   */\n      swap2\n      swap1\n      pop\n      jump\t// out\n        /* \"#utility.yul\":33769:33939   */\n    tag_335:\n        /* \"#utility.yul\":33909:33931   */\n      0x55736572206973206e6f74206120646f63746f72000000000000000000000000\n        /* \"#utility.yul\":33905:33906   */\n      0x00\n        /* \"#utility.yul\":33897:33903   */\n      dup3\n        /* \"#utility.yul\":33893:33907   */\n      add\n        /* \"#utility.yul\":33886:33932   */\n      mstore\n        /* \"#utility.yul\":33769:33939   */\n      pop\n      jump\t// out\n        /* \"#utility.yul\":33945:34311   */\n    tag_336:\n        /* \"#utility.yul\":34087:34090   */\n      0x00\n        /* \"#utility.yul\":34108:34175   */\n      tag_640\n        /* \"#utility.yul\":34172:34174   */\n      0x14\n        /* \"#utility.yul\":34167:34170   */\n      dup4\n        /* \"#utility.yul\":34108:34175   */\n      tag_270\n      jump\t// in\n    tag_640:\n        /* \"#utility.yul\":34101:34175   */\n      swap2\n      pop\n        /* \"#utility.yul\":34184:34277   */\n      tag_641\n        /* \"#utility.yul\":34273:34276   */\n      dup3\n        /* \"#utility.yul\":34184:34277   */\n      tag_335\n      jump\t// in\n    tag_641:\n        /* \"#utility.yul\":34302:34304   */\n      0x20\n        /* \"#utility.yul\":34297:34300   */\n      dup3\n        /* \"#utility.yul\":34293:34305   */\n      add\n        /* \"#utility.yul\":34286:34305   */\n      swap1\n      pop\n        /* \"#utility.yul\":33945:34311   */\n      swap2\n      swap1\n      pop\n      jump\t// out\n        /* \"#utility.yul\":34317:34736   */\n    tag_244:\n        /* \"#utility.yul\":34483:34487   */\n      0x00\n        /* \"#utility.yul\":34521:34523   */\n      0x20\n        /* \"#utility.yul\":34510:34519   */\n      dup3\n        /* \"#utility.yul\":34506:34524   */\n      add\n        /* \"#utility.yul\":34498:34524   */\n      swap1\n      pop\n        /* \"#utility.yul\":34570:34579   */\n      dup2\n        /* \"#utility.yul\":34564:34568   */\n      dup2\n        /* \"#utility.yul\":34560:34580   */\n      sub\n        /* \"#utility.yul\":34556:34557   */\n      0x00\n        /* \"#utility.yul\":34545:34554   */\n      dup4\n        /* \"#utility.yul\":34541:34558   */\n      add\n        /* \"#utility.yul\":34534:34581   */\n      mstore\n        /* \"#utility.yul\":34598:34729   */\n      tag_643\n        /* \"#utility.yul\":34724:34728   */\n      dup2\n        /* \"#utility.yul\":34598:34729   */\n      tag_336\n      jump\t// in\n    tag_643:\n        /* \"#utility.yul\":34590:34729   */\n      swap1\n      pop\n        /* \"#utility.yul\":34317:34736   */\n      swap2\n      swap1\n      pop\n      jump\t// out\n        /* \"#utility.yul\":34742:34915   */\n    tag_337:\n        /* \"#utility.yul\":34882:34907   */\n      0x446f63746f7220616c7265616479207665726966696564000000000000000000\n        /* \"#utility.yul\":34878:34879   */\n      0x00\n        /* \"#utility.yul\":34870:34876   */\n      dup3\n        /* \"#utility.yul\":34866:34880   */\n      add\n        /* \"#utility.yul\":34859:34908   */\n      mstore\n        /* \"#utility.yul\":34742:34915   */\n      pop\n      jump\t// out\n        /* \"#utility.yul\":34921:35287   */\n    tag_338:\n        /* \"#utility.yul\":35063:35066   */\n      0x00\n        /* \"#utility.yul\":35084:35151   */\n      tag_646\n        /* \"#utility.yul\":35148:35150   */\n      0x17\n        /* \"#utility.yul\":35143:35146   */\n      dup4\n        /* \"#utility.yul\":35084:35151   */\n      tag_270\n      jump\t// in\n    tag_646:\n        /* \"#utility.yul\":35077:35151   */\n      swap2\n      pop\n        /* \"#utility.yul\":35160:35253   */\n      tag_647\n        /* \"#utility.yul\":35249:35252   */\n      dup3\n        /* \"#utility.yul\":35160:35253   */\n      tag_337\n      jump\t// in\n    tag_647:\n        /* \"#utility.yul\":35278:35280   */\n      0x20\n        /* \"#utility.yul\":35273:35276   */\n      dup3\n        /* \"#utility.yul\":35269:35281   */\n      add\n        /* \"#utility.yul\":35262:35281   */\n      swap1\n      pop\n        /* \"#utility.yul\":34921:35287   */\n      swap2\n      swap1\n      pop\n      jump\t// out\n        /* \"#utility.yul\":35293:35712   */\n    tag_247:\n        /* \"#utility.yul\":35459:35463   */\n      0x00\n        /* \"#utility.yul\":35497:35499   */\n      0x20\n        /* \"#utility.yul\":35486:35495   */\n      dup3\n        /* \"#utility.yul\":35482:35500   */\n      add\n        /* \"#utility.yul\":35474:35500   */\n      swap1\n      pop\n        /* \"#utility.yul\":35546:35555   */\n      dup2\n        /* \"#utility.yul\":35540:35544   */\n      dup2\n        /* \"#utility.yul\":35536:35556   */\n      sub\n        /* \"#utility.yul\":35532:35533   */\n      0x00\n        /* \"#utility.yul\":35521:35530   */\n      dup4\n        /* \"#utility.yul\":35517:35534   */\n      add\n        /* \"#utility.yul\":35510:35557   */\n      mstore\n        /* \"#utility.yul\":35574:35705   */\n      tag_649\n        /* \"#utility.yul\":35700:35704   */\n      dup2\n        /* \"#utility.yul\":35574:35705   */\n      tag_338\n      jump\t// in\n    tag_649:\n        /* \"#utility.yul\":35566:35705   */\n      swap1\n      pop\n        /* \"#utility.yul\":35293:35712   */\n      swap2\n      swap1\n      pop\n      jump\t// out\n\n    auxdata: 0xa2646970667358221220ab064a53754e0e0555f962385aeef212f67d9c6065770b9a95697f16409418c864736f6c634300081e0033\n}\n",
				"bytecode": {
					"linkReferences": {},
					"object": "6080604052348015600e575f5ffd5b50335f5f6101000a81548173ffffffffffffffffffffffffffffffffffffffff021916908373ffffffffffffffffffffffffffffffffffffffff160217905550612aa58061005b5f395ff3fe608060405234801561000f575f5ffd5b50600436106100b2575f3560e01c806380efcb3c1161006f57806380efcb3c1461019e57806397678a03146101ce578063a87430ba14610200578063afd8297c14610234578063d80cb05c14610264578063f851a44014610280576100b2565b80630ae5e739146100b65780631709ef07146100d25780633a9b131c1461010257806368ce4afd1461011e5780636f77926b1461013a57806370c2b4191461016e575b5f5ffd5b6100d060048036038101906100cb91906119ca565b61029e565b005b6100ec60048036038101906100e791906119f5565b61068d565b6040516100f99190611a4d565b60405180910390f35b61011c60048036038101906101179190611ba2565b6107a6565b005b61013860048036038101906101339190611c1f565b610ac1565b005b610154600480360381019061014f91906119ca565b610d92565b604051610165959493929190611daa565b60405180910390f35b61018860048036038101906101839190611e43565b611013565b6040516101959190611e90565b60405180910390f35b6101b860048036038101906101b391906119ca565b61105b565b6040516101c59190611f60565b60405180910390f35b6101e860048036038101906101e39190611e43565b611191565b6040516101f793929190611f8f565b60405180910390f35b61021a600480360381019061021591906119ca565b611276565b60405161022b959493929190611fcb565b60405180910390f35b61024e600480360381019061024991906119ca565b611452565b60405161025b9190612190565b60405180910390f35b61027e600480360381019061027991906119ca565b6116d2565b005b61028861193b565b6040516102959190611e90565b60405180910390f35b600160028111156102b2576102b1611d37565b5b60015f3373ffffffffffffffffffffffffffffffffffffffff1673ffffffffffffffffffffffffffffffffffffffff1681526020019081526020015f205f015f9054906101000a900460ff1660028111156103105761030f611d37565b5b14610350576040517f08c379a000000000000000000000000000000000000000000000000000000000815260040161034790612220565b60405180910390fd5b60028081111561036357610362611d37565b5b60015f3373ffffffffffffffffffffffffffffffffffffffff1673ffffffffffffffffffffffffffffffffffffffff1681526020019081526020015f205f015f9054906101000a900460ff1660028111156103c1576103c0611d37565b5b148015610417575060015f3373ffffffffffffffffffffffffffffffffffffffff1673ffffffffffffffffffffffffffffffffffffffff1681526020019081526020015f205f0160019054906101000a900460ff165b610456576040517f08c379a000000000000000000000000000000000000000000000000000000000815260040161044d90612288565b60405180910390fd5b5f5f90505b60035f3373ffffffffffffffffffffffffffffffffffffffff1673ffffffffffffffffffffffffffffffffffffffff1681526020019081526020015f2080549050811015610594578173ffffffffffffffffffffffffffffffffffffffff1660035f3373ffffffffffffffffffffffffffffffffffffffff1673ffffffffffffffffffffffffffffffffffffffff1681526020019081526020015f208281548110610509576105086122a6565b5b905f5260205f20015f9054906101000a900473ffffffffffffffffffffffffffffffffffffffff1673ffffffffffffffffffffffffffffffffffffffff1603610587576040517f08c379a000000000000000000000000000000000000000000000000000000000815260040161057e9061231d565b60405180910390fd5b808060010191505061045b565b5060035f3373ffffffffffffffffffffffffffffffffffffffff1673ffffffffffffffffffffffffffffffffffffffff1681526020019081526020015f2081908060018154018082558091505060019003905f5260205f20015f9091909190916101000a81548173ffffffffffffffffffffffffffffffffffffffff021916908373ffffffffffffffffffffffffffffffffffffffff1602179055508073ffffffffffffffffffffffffffffffffffffffff163373ffffffffffffffffffffffffffffffffffffffff167f9f520b3bfc56d06f7065d10b4683b3f57ac8895d5026cd176dee95ce1454cb8d60405160405180910390a350565b5f5f5f90505b60035f8573ffffffffffffffffffffffffffffffffffffffff1673ffffffffffffffffffffffffffffffffffffffff1681526020019081526020015f208054905081101561079b578273ffffffffffffffffffffffffffffffffffffffff1660035f8673ffffffffffffffffffffffffffffffffffffffff1673ffffffffffffffffffffffffffffffffffffffff1681526020019081526020015f208281548110610741576107406122a6565b5b905f5260205f20015f9054906101000a900473ffffffffffffffffffffffffffffffffffffffff1673ffffffffffffffffffffffffffffffffffffffff160361078e5760019150506107a0565b8080600101915050610693565b505f90505b92915050565b6002808111156107b9576107b8611d37565b5b60015f3373ffffffffffffffffffffffffffffffffffffffff1673ffffffffffffffffffffffffffffffffffffffff1681526020019081526020015f205f015f9054906101000a900460ff16600281111561081757610816611d37565b5b14801561086d575060015f3373ffffffffffffffffffffffffffffffffffffffff1673ffffffffffffffffffffffffffffffffffffffff1681526020019081526020015f205f0160019054906101000a900460ff165b6108ac576040517f08c379a00000000000000000000000000000000000000000000000000000000081526004016108a3906123ab565b60405180910390fd5b600160028111156108c0576108bf611d37565b5b60015f8473ffffffffffffffffffffffffffffffffffffffff1673ffffffffffffffffffffffffffffffffffffffff1681526020019081526020015f205f015f9054906101000a900460ff16600281111561091e5761091d611d37565b5b1461095e576040517f08c379a000000000000000000000000000000000000000000000000000000000815260040161095590612413565b60405180910390fd5b60025f8373ffffffffffffffffffffffffffffffffffffffff1673ffffffffffffffffffffffffffffffffffffffff1681526020019081526020015f2060405180606001604052808381526020013373ffffffffffffffffffffffffffffffffffffffff16815260200142815250908060018154018082558091505060019003905f5260205f2090600302015f909190919091505f820151815f019081610a05919061262e565b506020820151816001015f6101000a81548173ffffffffffffffffffffffffffffffffffffffff021916908373ffffffffffffffffffffffffffffffffffffffff1602179055506040820151816002015550503373ffffffffffffffffffffffffffffffffffffffff168273ffffffffffffffffffffffffffffffffffffffff167f7cac34963963ad845a518664d7df77ff39ae947321be3e9b7b4609c45d14e5fd83604051610ab591906126fd565b60405180910390a35050565b5f6002811115610ad457610ad3611d37565b5b60015f3373ffffffffffffffffffffffffffffffffffffffff1673ffffffffffffffffffffffffffffffffffffffff1681526020019081526020015f205f015f9054906101000a900460ff166002811115610b3257610b31611d37565b5b14610b72576040517f08c379a0000000000000000000000000000000000000000000000000000000008152600401610b6990612767565b60405180910390fd5b60016002811115610b8657610b85611d37565b5b826002811115610b9957610b98611d37565b5b1480610bc85750600280811115610bb357610bb2611d37565b5b826002811115610bc657610bc5611d37565b5b145b610c07576040517f08c379a0000000000000000000000000000000000000000000000000000000008152600401610bfe906127cf565b60405180910390fd5b5f60016002811115610c1c57610c1b611d37565b5b836002811115610c2f57610c2e611d37565b5b1490506040518060a00160405280846002811115610c5057610c4f611d37565b5b815260200182151581526020018381526020018681526020018581525060015f3373ffffffffffffffffffffffffffffffffffffffff1673ffffffffffffffffffffffffffffffffffffffff1681526020019081526020015f205f820151815f015f6101000a81548160ff02191690836002811115610cd257610cd1611d37565b5b02179055506020820151815f0160016101000a81548160ff0219169083151502179055506040820151816001019081610d0b919061262e565b506060820151816002019081610d21919061262e565b506080820151816003019081610d37919061262e565b509050503373ffffffffffffffffffffffffffffffffffffffff167f04221ffa167b8d0a33647e46ee4f6728f4fe3651e4d56715ed0941b12046147b8484604051610d839291906127ed565b60405180910390a25050505050565b6060805f5f60605f60015f8873ffffffffffffffffffffffffffffffffffffffff1673ffffffffffffffffffffffffffffffffffffffff1681526020019081526020015f206040518060a00160405290815f82015f9054906101000a900460ff166002811115610e0557610e04611d37565b5b6002811115610e1757610e16611d37565b5b81526020015f820160019054906101000a900460ff16151515158152602001600182018054610e459061245e565b80601f0160208091040260200160405190810160405280929190818152602001828054610e719061245e565b8015610ebc5780601f10610e9357610100808354040283529160200191610ebc565b820191905f5260205f20905b815481529060010190602001808311610e9f57829003601f168201915b50505050508152602001600282018054610ed59061245e565b80601f0160208091040260200160405190810160405280929190818152602001828054610f019061245e565b8015610f4c5780601f10610f2357610100808354040283529160200191610f4c565b820191905f5260205f20905b815481529060010190602001808311610f2f57829003601f168201915b50505050508152602001600382018054610f659061245e565b80601f0160208091040260200160405190810160405280929190818152602001828054610f919061245e565b8015610fdc5780601f10610fb357610100808354040283529160200191610fdc565b820191905f5260205f20905b815481529060010190602001808311610fbf57829003601f168201915b505050505081525050905080606001518160800151825f015183602001518460400151955095509550955095505091939590929450565b6003602052815f5260405f20818154811061102c575f80fd5b905f5260205f20015f915091509054906101000a900473ffffffffffffffffffffffffffffffffffffffff1681565b60608173ffffffffffffffffffffffffffffffffffffffff163373ffffffffffffffffffffffffffffffffffffffff16146110cb576040517f08c379a00000000000000000000000000000000000000000000000000000000081526004016110c29061288b565b60405180910390fd5b60035f8373ffffffffffffffffffffffffffffffffffffffff1673ffffffffffffffffffffffffffffffffffffffff1681526020019081526020015f2080548060200260200160405190810160405280929190818152602001828054801561118557602002820191905f5260205f20905b815f9054906101000a900473ffffffffffffffffffffffffffffffffffffffff1673ffffffffffffffffffffffffffffffffffffffff168152602001906001019080831161113c575b50505050509050919050565b6002602052815f5260405f2081815481106111aa575f80fd5b905f5260205f2090600302015f9150915050805f0180546111ca9061245e565b80601f01602080910402602001604051908101604052809291908181526020018280546111f69061245e565b80156112415780601f1061121857610100808354040283529160200191611241565b820191905f5260205f20905b81548152906001019060200180831161122457829003601f168201915b505050505090806001015f9054906101000a900473ffffffffffffffffffffffffffffffffffffffff16908060020154905083565b6001602052805f5260405f205f91509050805f015f9054906101000a900460ff1690805f0160019054906101000a900460ff16908060010180546112b99061245e565b80601f01602080910402602001604051908101604052809291908181526020018280546112e59061245e565b80156113305780601f1061130757610100808354040283529160200191611330565b820191905f5260205f20905b81548152906001019060200180831161131357829003601f168201915b5050505050908060020180546113459061245e565b80601f01602080910402602001604051908101604052809291908181526020018280546113719061245e565b80156113bc5780601f10611393576101008083540402835291602001916113bc565b820191905f5260205f20905b81548152906001019060200180831161139f57829003601f168201915b5050505050908060030180546113d19061245e565b80601f01602080910402602001604051908101604052809291908181526020018280546113fd9061245e565b80156114485780601f1061141f57610100808354040283529160200191611448565b820191905f5260205f20905b81548152906001019060200180831161142b57829003601f168201915b5050505050905085565b60608173ffffffffffffffffffffffffffffffffffffffff163373ffffffffffffffffffffffffffffffffffffffff16148061150e575060028081111561149c5761149b611d37565b5b60015f3373ffffffffffffffffffffffffffffffffffffffff1673ffffffffffffffffffffffffffffffffffffffff1681526020019081526020015f205f015f9054906101000a900460ff1660028111156114fa576114f9611d37565b5b14801561150d575061150c823361068d565b5b5b61154d576040517f08c379a0000000000000000000000000000000000000000000000000000000008152600401611544906128f3565b60405180910390fd5b60025f8373ffffffffffffffffffffffffffffffffffffffff1673ffffffffffffffffffffffffffffffffffffffff1681526020019081526020015f20805480602002602001604051908101604052809291908181526020015f905b828210156116c7578382905f5260205f2090600302016040518060600160405290815f820180546115d99061245e565b80601f01602080910402602001604051908101604052809291908181526020018280546116059061245e565b80156116505780601f1061162757610100808354040283529160200191611650565b820191905f5260205f20905b81548152906001019060200180831161163357829003601f168201915b50505050508152602001600182015f9054906101000a900473ffffffffffffffffffffffffffffffffffffffff1673ffffffffffffffffffffffffffffffffffffffff1673ffffffffffffffffffffffffffffffffffffffff168152602001600282015481525050815260200190600101906115a9565b505050509050919050565b5f5f9054906101000a900473ffffffffffffffffffffffffffffffffffffffff1673ffffffffffffffffffffffffffffffffffffffff163373ffffffffffffffffffffffffffffffffffffffff1614611760576040517f08c379a000000000000000000000000000000000000000000000000000000000815260040161175790612981565b60405180910390fd5b60028081111561177357611772611d37565b5b60015f8373ffffffffffffffffffffffffffffffffffffffff1673ffffffffffffffffffffffffffffffffffffffff1681526020019081526020015f205f015f9054906101000a900460ff1660028111156117d1576117d0611d37565b5b14611811576040517f08c379a0000000000000000000000000000000000000000000000000000000008152600401611808906129e9565b60405180910390fd5b60015f8273ffffffffffffffffffffffffffffffffffffffff1673ffffffffffffffffffffffffffffffffffffffff1681526020019081526020015f205f0160019054906101000a900460ff161561189e576040517f08c379a000000000000000000000000000000000000000000000000000000000815260040161189590612a51565b60405180910390fd5b6001805f8373ffffffffffffffffffffffffffffffffffffffff1673ffffffffffffffffffffffffffffffffffffffff1681526020019081526020015f205f0160016101000a81548160ff0219169083151502179055508073ffffffffffffffffffffffffffffffffffffffff167fb0859f2cf042b300c8948cdd785ec6a23a3742bc5446c19f4b270b67fac2c96760405160405180910390a250565b5f5f9054906101000a900473ffffffffffffffffffffffffffffffffffffffff1681565b5f604051905090565b5f5ffd5b5f5ffd5b5f73ffffffffffffffffffffffffffffffffffffffff82169050919050565b5f61199982611970565b9050919050565b6119a98161198f565b81146119b3575f5ffd5b50565b5f813590506119c4816119a0565b92915050565b5f602082840312156119df576119de611968565b5b5f6119ec848285016119b6565b91505092915050565b5f5f60408385031215611a0b57611a0a611968565b5b5f611a18858286016119b6565b9250506020611a29858286016119b6565b9150509250929050565b5f8115159050919050565b611a4781611a33565b82525050565b5f602082019050611a605f830184611a3e565b92915050565b5f5ffd5b5f5ffd5b5f601f19601f8301169050919050565b7f4e487b71000000000000000000000000000000000000000000000000000000005f52604160045260245ffd5b611ab482611a6e565b810181811067ffffffffffffffff82111715611ad357611ad2611a7e565b5b80604052505050565b5f611ae561195f565b9050611af18282611aab565b919050565b5f67ffffffffffffffff821115611b1057611b0f611a7e565b5b611b1982611a6e565b9050602081019050919050565b828183375f83830152505050565b5f611b46611b4184611af6565b611adc565b905082815260208101848484011115611b6257611b61611a6a565b5b611b6d848285611b26565b509392505050565b5f82601f830112611b8957611b88611a66565b5b8135611b99848260208601611b34565b91505092915050565b5f5f60408385031215611bb857611bb7611968565b5b5f611bc5858286016119b6565b925050602083013567ffffffffffffffff811115611be657611be561196c565b5b611bf285828601611b75565b9150509250929050565b60038110611c08575f5ffd5b50565b5f81359050611c1981611bfc565b92915050565b5f5f5f5f60808587031215611c3757611c36611968565b5b5f85013567ffffffffffffffff811115611c5457611c5361196c565b5b611c6087828801611b75565b945050602085013567ffffffffffffffff811115611c8157611c8061196c565b5b611c8d87828801611b75565b9350506040611c9e87828801611c0b565b925050606085013567ffffffffffffffff811115611cbf57611cbe61196c565b5b611ccb87828801611b75565b91505092959194509250565b5f81519050919050565b5f82825260208201905092915050565b8281835e5f83830152505050565b5f611d0982611cd7565b611d138185611ce1565b9350611d23818560208601611cf1565b611d2c81611a6e565b840191505092915050565b7f4e487b71000000000000000000000000000000000000000000000000000000005f52602160045260245ffd5b60038110611d7557611d74611d37565b5b50565b5f819050611d8582611d64565b919050565b5f611d9482611d78565b9050919050565b611da481611d8a565b82525050565b5f60a0820190508181035f830152611dc28188611cff565b90508181036020830152611dd68187611cff565b9050611de56040830186611d9b565b611df26060830185611a3e565b8181036080830152611e048184611cff565b90509695505050505050565b5f819050919050565b611e2281611e10565b8114611e2c575f5ffd5b50565b5f81359050611e3d81611e19565b92915050565b5f5f60408385031215611e5957611e58611968565b5b5f611e66858286016119b6565b9250506020611e7785828601611e2f565b9150509250929050565b611e8a8161198f565b82525050565b5f602082019050611ea35f830184611e81565b92915050565b5f81519050919050565b5f82825260208201905092915050565b5f819050602082019050919050565b611edb8161198f565b82525050565b5f611eec8383611ed2565b60208301905092915050565b5f602082019050919050565b5f611f0e82611ea9565b611f188185611eb3565b9350611f2383611ec3565b805f5b83811015611f53578151611f3a8882611ee1565b9750611f4583611ef8565b925050600181019050611f26565b5085935050505092915050565b5f6020820190508181035f830152611f788184611f04565b905092915050565b611f8981611e10565b82525050565b5f6060820190508181035f830152611fa78186611cff565b9050611fb66020830185611e81565b611fc36040830184611f80565b949350505050565b5f60a082019050611fde5f830188611d9b565b611feb6020830187611a3e565b8181036040830152611ffd8186611cff565b905081810360608301526120118185611cff565b905081810360808301526120258184611cff565b90509695505050505050565b5f81519050919050565b5f82825260208201905092915050565b5f819050602082019050919050565b5f82825260208201905092915050565b5f61207482611cd7565b61207e818561205a565b935061208e818560208601611cf1565b61209781611a6e565b840191505092915050565b6120ab81611e10565b82525050565b5f606083015f8301518482035f8601526120cb828261206a565b91505060208301516120e06020860182611ed2565b5060408301516120f360408601826120a2565b508091505092915050565b5f61210983836120b1565b905092915050565b5f602082019050919050565b5f61212782612031565b612131818561203b565b9350836020820285016121438561204b565b805f5b8581101561217e578484038952815161215f85826120fe565b945061216a83612111565b925060208a01995050600181019050612146565b50829750879550505050505092915050565b5f6020820190508181035f8301526121a8818461211d565b905092915050565b7f4f6e6c792070617469656e74732063616e2063616c6c20746869732066756e635f8201527f74696f6e00000000000000000000000000000000000000000000000000000000602082015250565b5f61220a602483611ce1565b9150612215826121b0565b604082019050919050565b5f6020820190508181035f830152612237816121fe565b9050919050565b7f496e76616c6964206f7220756e766572696669656420646f63746f72000000005f82015250565b5f612272601c83611ce1565b915061227d8261223e565b602082019050919050565b5f6020820190508181035f83015261229f81612266565b9050919050565b7f4e487b71000000000000000000000000000000000000000000000000000000005f52603260045260245ffd5b7f446f63746f7220616c72656164792068617320616363657373000000000000005f82015250565b5f612307601983611ce1565b9150612312826122d3565b602082019050919050565b5f6020820190508181035f830152612334816122fb565b9050919050565b7f4f6e6c7920766572696669656420646f63746f72732063616e2063616c6c20745f8201527f6869732066756e6374696f6e0000000000000000000000000000000000000000602082015250565b5f612395602c83611ce1565b91506123a08261233b565b604082019050919050565b5f6020820190508181035f8301526123c281612389565b9050919050565b7f496e76616c69642070617469656e7420616464726573730000000000000000005f82015250565b5f6123fd601783611ce1565b9150612408826123c9565b602082019050919050565b5f6020820190508181035f83015261242a816123f1565b9050919050565b7f4e487b71000000000000000000000000000000000000000000000000000000005f52602260045260245ffd5b5f600282049050600182168061247557607f821691505b60208210810361248857612487612431565b5b50919050565b5f819050815f5260205f209050919050565b5f6020601f8301049050919050565b5f82821b905092915050565b5f600883026124ea7fffffffffffffffffffffffffffffffffffffffffffffffffffffffffffffffff826124af565b6124f486836124af565b95508019841693508086168417925050509392505050565b5f819050919050565b5f61252f61252a61252584611e10565b61250c565b611e10565b9050919050565b5f819050919050565b61254883612515565b61255c61255482612536565b8484546124bb565b825550505050565b5f5f905090565b612573612564565b61257e81848461253f565b505050565b5b818110156125a1576125965f8261256b565b600181019050612584565b5050565b601f8211156125e6576125b78161248e565b6125c0846124a0565b810160208510156125cf578190505b6125e36125db856124a0565b830182612583565b50505b505050565b5f82821c905092915050565b5f6126065f19846008026125eb565b1980831691505092915050565b5f61261e83836125f7565b9150826002028217905092915050565b61263782611cd7565b67ffffffffffffffff8111156126505761264f611a7e565b5b61265a825461245e565b6126658282856125a5565b5f60209050601f831160018114612696575f8415612684578287015190505b61268e8582612613565b8655506126f5565b601f1984166126a48661248e565b5f5b828110156126cb578489015182556001820191506020850194506020810190506126a6565b868310156126e857848901516126e4601f8916826125f7565b8355505b6001600288020188555050505b505050505050565b5f6020820190508181035f8301526127158184611cff565b905092915050565b7f5573657220616c726561647920726567697374657265640000000000000000005f82015250565b5f612751601783611ce1565b915061275c8261271d565b602082019050919050565b5f6020820190508181035f83015261277e81612745565b9050919050565b7f496e76616c696420726f6c6500000000000000000000000000000000000000005f82015250565b5f6127b9600c83611ce1565b91506127c482612785565b602082019050919050565b5f6020820190508181035f8301526127e6816127ad565b9050919050565b5f6040820190506128005f830185611d9b565b81810360208301526128128184611cff565b90509392505050565b7f4f6e6c792070617469656e742063616e207669657720746865697220616363655f8201527f7373206c69737400000000000000000000000000000000000000000000000000602082015250565b5f612875602783611ce1565b91506128808261281b565b604082019050919050565b5f6020820190508181035f8301526128a281612869565b9050919050565b7f4e6f2061636365737320746f206d65646963616c207265636f726473000000005f82015250565b5f6128dd601c83611ce1565b91506128e8826128a9565b602082019050919050565b5f6020820190508181035f83015261290a816128d1565b9050919050565b7f4f6e6c792061646d696e2063616e2063616c6c20746869732066756e6374696f5f8201527f6e00000000000000000000000000000000000000000000000000000000000000602082015250565b5f61296b602183611ce1565b915061297682612911565b604082019050919050565b5f6020820190508181035f8301526129988161295f565b9050919050565b7f55736572206973206e6f74206120646f63746f720000000000000000000000005f82015250565b5f6129d3601483611ce1565b91506129de8261299f565b602082019050919050565b5f6020820190508181035f830152612a00816129c7565b9050919050565b7f446f63746f7220616c72656164792076657269666965640000000000000000005f82015250565b5f612a3b601783611ce1565b9150612a4682612a07565b602082019050919050565b5f6020820190508181035f830152612a6881612a2f565b905091905056fea2646970667358221220ab064a53754e0e0555f962385aeef212f67d9c6065770b9a95697f16409418c864736f6c634300081e0033",
					"opcodes": "PUSH1 0x80 PUSH1 0x40 MSTORE CALLVALUE DUP1 ISZERO PUSH1 0xE JUMPI PUSH0 PUSH0 REVERT JUMPDEST POP CALLER PUSH0 PUSH0 PUSH2 0x100 EXP DUP2 SLOAD DUP2 PUSH20 0xFFFFFFFFFFFFFFFFFFFFFFFFFFFFFFFFFFFFFFFF MUL NOT AND SWAP1 DUP4 PUSH20 0xFFFFFFFFFFFFFFFFFFFFFFFFFFFFFFFFFFFFFFFF AND MUL OR SWAP1 SSTORE POP PUSH2 0x2AA5 DUP1 PUSH2 0x5B PUSH0 CODECOPY PUSH0 RETURN INVALID PUSH1 0x80 PUSH1 0x40 MSTORE CALLVALUE DUP1 ISZERO PUSH2 0xF JUMPI PUSH0 PUSH0 REVERT JUMPDEST POP PUSH1 0x4 CALLDATASIZE LT PUSH2 0xB2 JUMPI PUSH0 CALLDATALOAD PUSH1 0xE0 SHR DUP1 PUSH4 0x80EFCB3C GT PUSH2 0x6F JUMPI DUP1 PUSH4 0x80EFCB3C EQ PUSH2 0x19E JUMPI DUP1 PUSH4 0x97678A03 EQ PUSH2 0x1CE JUMPI DUP1 PUSH4 0xA87430BA EQ PUSH2 0x200 JUMPI DUP1 PUSH4 0xAFD8297C EQ PUSH2 0x234 JUMPI DUP1 PUSH4 0xD80CB05C EQ PUSH2 0x264 JUMPI DUP1 PUSH4 0xF851A440 EQ PUSH2 0x280 JUMPI PUSH2 0xB2 JUMP JUMPDEST DUP1 PUSH4 0xAE5E739 EQ PUSH2 0xB6 JUMPI DUP1 PUSH4 0x1709EF07 EQ PUSH2 0xD2 JUMPI DUP1 PUSH4 0x3A9B131C EQ PUSH2 0x102 JUMPI DUP1 PUSH4 0x68CE4AFD EQ PUSH2 0x11E JUMPI DUP1 PUSH4 0x6F77926B EQ PUSH2 0x13A JUMPI DUP1 PUSH4 0x70C2B419 EQ PUSH2 0x16E JUMPI JUMPDEST PUSH0 PUSH0 REVERT JUMPDEST PUSH2 0xD0 PUSH1 0x4 DUP1 CALLDATASIZE SUB DUP2 ADD SWAP1 PUSH2 0xCB SWAP2 SWAP1 PUSH2 0x19CA JUMP JUMPDEST PUSH2 0x29E JUMP JUMPDEST STOP JUMPDEST PUSH2 0xEC PUSH1 0x4 DUP1 CALLDATASIZE SUB DUP2 ADD SWAP1 PUSH2 0xE7 SWAP2 SWAP1 PUSH2 0x19F5 JUMP JUMPDEST PUSH2 0x68D JUMP JUMPDEST PUSH1 0x40 MLOAD PUSH2 0xF9 SWAP2 SWAP1 PUSH2 0x1A4D JUMP JUMPDEST PUSH1 0x40 MLOAD DUP1 SWAP2 SUB SWAP1 RETURN JUMPDEST PUSH2 0x11C PUSH1 0x4 DUP1 CALLDATASIZE SUB DUP2 ADD SWAP1 PUSH2 0x117 SWAP2 SWAP1 PUSH2 0x1BA2 JUMP JUMPDEST PUSH2 0x7A6 JUMP JUMPDEST STOP JUMPDEST PUSH2 0x138 PUSH1 0x4 DUP1 CALLDATASIZE SUB DUP2 ADD SWAP1 PUSH2 0x133 SWAP2 SWAP1 PUSH2 0x1C1F JUMP JUMPDEST PUSH2 0xAC1 JUMP JUMPDEST STOP JUMPDEST PUSH2 0x154 PUSH1 0x4 DUP1 CALLDATASIZE SUB DUP2 ADD SWAP1 PUSH2 0x14F SWAP2 SWAP1 PUSH2 0x19CA JUMP JUMPDEST PUSH2 0xD92 JUMP JUMPDEST PUSH1 0x40 MLOAD PUSH2 0x165 SWAP6 SWAP5 SWAP4 SWAP3 SWAP2 SWAP1 PUSH2 0x1DAA JUMP JUMPDEST PUSH1 0x40 MLOAD DUP1 SWAP2 SUB SWAP1 RETURN JUMPDEST PUSH2 0x188 PUSH1 0x4 DUP1 CALLDATASIZE SUB DUP2 ADD SWAP1 PUSH2 0x183 SWAP2 SWAP1 PUSH2 0x1E43 JUMP JUMPDEST PUSH2 0x1013 JUMP JUMPDEST PUSH1 0x40 MLOAD PUSH2 0x195 SWAP2 SWAP1 PUSH2 0x1E90 JUMP JUMPDEST PUSH1 0x40 MLOAD DUP1 SWAP2 SUB SWAP1 RETURN JUMPDEST PUSH2 0x1B8 PUSH1 0x4 DUP1 CALLDATASIZE SUB DUP2 ADD SWAP1 PUSH2 0x1B3 SWAP2 SWAP1 PUSH2 0x19CA JUMP JUMPDEST PUSH2 0x105B JUMP JUMPDEST PUSH1 0x40 MLOAD PUSH2 0x1C5 SWAP2 SWAP1 PUSH2 0x1F60 JUMP JUMPDEST PUSH1 0x40 MLOAD DUP1 SWAP2 SUB SWAP1 RETURN JUMPDEST PUSH2 0x1E8 PUSH1 0x4 DUP1 CALLDATASIZE SUB DUP2 ADD SWAP1 PUSH2 0x1E3 SWAP2 SWAP1 PUSH2 0x1E43 JUMP JUMPDEST PUSH2 0x1191 JUMP JUMPDEST PUSH1 0x40 MLOAD PUSH2 0x1F7 SWAP4 SWAP3 SWAP2 SWAP1 PUSH2 0x1F8F JUMP JUMPDEST PUSH1 0x40 MLOAD DUP1 SWAP2 SUB SWAP1 RETURN JUMPDEST PUSH2 0x21A PUSH1 0x4 DUP1 CALLDATASIZE SUB DUP2 ADD SWAP1 PUSH2 0x215 SWAP2 SWAP1 PUSH2 0x19CA JUMP JUMPDEST PUSH2 0x1276 JUMP JUMPDEST PUSH1 0x40 MLOAD PUSH2 0x22B SWAP6 SWAP5 SWAP4 SWAP3 SWAP2 SWAP1 PUSH2 0x1FCB JUMP JUMPDEST PUSH1 0x40 MLOAD DUP1 SWAP2 SUB SWAP1 RETURN JUMPDEST PUSH2 0x24E PUSH1 0x4 DUP1 CALLDATASIZE SUB DUP2 ADD SWAP1 PUSH2 0x249 SWAP2 SWAP1 PUSH2 0x19CA JUMP JUMPDEST PUSH2 0x1452 JUMP JUMPDEST PUSH1 0x40 MLOAD PUSH2 0x25B SWAP2 SWAP1 PUSH2 0x2190 JUMP JUMPDEST PUSH1 0x40 MLOAD DUP1 SWAP2 SUB SWAP1 RETURN JUMPDEST PUSH2 0x27E PUSH1 0x4 DUP1 CALLDATASIZE SUB DUP2 ADD SWAP1 PUSH2 0x279 SWAP2 SWAP1 PUSH2 0x19CA JUMP JUMPDEST PUSH2 0x16D2 JUMP JUMPDEST STOP JUMPDEST PUSH2 0x288 PUSH2 0x193B JUMP JUMPDEST PUSH1 0x40 MLOAD PUSH2 0x295 SWAP2 SWAP1 PUSH2 0x1E90 JUMP JUMPDEST PUSH1 0x40 MLOAD DUP1 SWAP2 SUB SWAP1 RETURN JUMPDEST PUSH1 0x1 PUSH1 0x2 DUP2 GT ISZERO PUSH2 0x2B2 JUMPI PUSH2 0x2B1 PUSH2 0x1D37 JUMP JUMPDEST JUMPDEST PUSH1 0x1 PUSH0 CALLER PUSH20 0xFFFFFFFFFFFFFFFFFFFFFFFFFFFFFFFFFFFFFFFF AND PUSH20 0xFFFFFFFFFFFFFFFFFFFFFFFFFFFFFFFFFFFFFFFF AND DUP2 MSTORE PUSH1 0x20 ADD SWAP1 DUP2 MSTORE PUSH1 0x20 ADD PUSH0 KECCAK256 PUSH0 ADD PUSH0 SWAP1 SLOAD SWAP1 PUSH2 0x100 EXP SWAP1 DIV PUSH1 0xFF AND PUSH1 0x2 DUP2 GT ISZERO PUSH2 0x310 JUMPI PUSH2 0x30F PUSH2 0x1D37 JUMP JUMPDEST JUMPDEST EQ PUSH2 0x350 JUMPI PUSH1 0x40 MLOAD PUSH32 0x8C379A000000000000000000000000000000000000000000000000000000000 DUP2 MSTORE PUSH1 0x4 ADD PUSH2 0x347 SWAP1 PUSH2 0x2220 JUMP JUMPDEST PUSH1 0x40 MLOAD DUP1 SWAP2 SUB SWAP1 REVERT JUMPDEST PUSH1 0x2 DUP1 DUP2 GT ISZERO PUSH2 0x363 JUMPI PUSH2 0x362 PUSH2 0x1D37 JUMP JUMPDEST JUMPDEST PUSH1 0x1 PUSH0 CALLER PUSH20 0xFFFFFFFFFFFFFFFFFFFFFFFFFFFFFFFFFFFFFFFF AND PUSH20 0xFFFFFFFFFFFFFFFFFFFFFFFFFFFFFFFFFFFFFFFF AND DUP2 MSTORE PUSH1 0x20 ADD SWAP1 DUP2 MSTORE PUSH1 0x20 ADD PUSH0 KECCAK256 PUSH0 ADD PUSH0 SWAP1 SLOAD SWAP1 PUSH2 0x100 EXP SWAP1 DIV PUSH1 0xFF AND PUSH1 0x2 DUP2 GT ISZERO PUSH2 0x3C1 JUMPI PUSH2 0x3C0 PUSH2 0x1D37 JUMP JUMPDEST JUMPDEST EQ DUP1 ISZERO PUSH2 0x417 JUMPI POP PUSH1 0x1 PUSH0 CALLER PUSH20 0xFFFFFFFFFFFFFFFFFFFFFFFFFFFFFFFFFFFFFFFF AND PUSH20 0xFFFFFFFFFFFFFFFFFFFFFFFFFFFFFFFFFFFFFFFF AND DUP2 MSTORE PUSH1 0x20 ADD SWAP1 DUP2 MSTORE PUSH1 0x20 ADD PUSH0 KECCAK256 PUSH0 ADD PUSH1 0x1 SWAP1 SLOAD SWAP1 PUSH2 0x100 EXP SWAP1 DIV PUSH1 0xFF AND JUMPDEST PUSH2 0x456 JUMPI PUSH1 0x40 MLOAD PUSH32 0x8C379A000000000000000000000000000000000000000000000000000000000 DUP2 MSTORE PUSH1 0x4 ADD PUSH2 0x44D SWAP1 PUSH2 0x2288 JUMP JUMPDEST PUSH1 0x40 MLOAD DUP1 SWAP2 SUB SWAP1 REVERT JUMPDEST PUSH0 PUSH0 SWAP1 POP JUMPDEST PUSH1 0x3 PUSH0 CALLER PUSH20 0xFFFFFFFFFFFFFFFFFFFFFFFFFFFFFFFFFFFFFFFF AND PUSH20 0xFFFFFFFFFFFFFFFFFFFFFFFFFFFFFFFFFFFFFFFF AND DUP2 MSTORE PUSH1 0x20 ADD SWAP1 DUP2 MSTORE PUSH1 0x20 ADD PUSH0 KECCAK256 DUP1 SLOAD SWAP1 POP DUP2 LT ISZERO PUSH2 0x594 JUMPI DUP2 PUSH20 0xFFFFFFFFFFFFFFFFFFFFFFFFFFFFFFFFFFFFFFFF AND PUSH1 0x3 PUSH0 CALLER PUSH20 0xFFFFFFFFFFFFFFFFFFFFFFFFFFFFFFFFFFFFFFFF AND PUSH20 0xFFFFFFFFFFFFFFFFFFFFFFFFFFFFFFFFFFFFFFFF AND DUP2 MSTORE PUSH1 0x20 ADD SWAP1 DUP2 MSTORE PUSH1 0x20 ADD PUSH0 KECCAK256 DUP3 DUP2 SLOAD DUP2 LT PUSH2 0x509 JUMPI PUSH2 0x508 PUSH2 0x22A6 JUMP JUMPDEST JUMPDEST SWAP1 PUSH0 MSTORE PUSH1 0x20 PUSH0 KECCAK256 ADD PUSH0 SWAP1 SLOAD SWAP1 PUSH2 0x100 EXP SWAP1 DIV PUSH20 0xFFFFFFFFFFFFFFFFFFFFFFFFFFFFFFFFFFFFFFFF AND PUSH20 0xFFFFFFFFFFFFFFFFFFFFFFFFFFFFFFFFFFFFFFFF AND SUB PUSH2 0x587 JUMPI PUSH1 0x40 MLOAD PUSH32 0x8C379A000000000000000000000000000000000000000000000000000000000 DUP2 MSTORE PUSH1 0x4 ADD PUSH2 0x57E SWAP1 PUSH2 0x231D JUMP JUMPDEST PUSH1 0x40 MLOAD DUP1 SWAP2 SUB SWAP1 REVERT JUMPDEST DUP1 DUP1 PUSH1 0x1 ADD SWAP2 POP POP PUSH2 0x45B JUMP JUMPDEST POP PUSH1 0x3 PUSH0 CALLER PUSH20 0xFFFFFFFFFFFFFFFFFFFFFFFFFFFFFFFFFFFFFFFF AND PUSH20 0xFFFFFFFFFFFFFFFFFFFFFFFFFFFFFFFFFFFFFFFF AND DUP2 MSTORE PUSH1 0x20 ADD SWAP1 DUP2 MSTORE PUSH1 0x20 ADD PUSH0 KECCAK256 DUP2 SWAP1 DUP1 PUSH1 0x1 DUP2 SLOAD ADD DUP1 DUP3 SSTORE DUP1 SWAP2 POP POP PUSH1 0x1 SWAP1 SUB SWAP1 PUSH0 MSTORE PUSH1 0x20 PUSH0 KECCAK256 ADD PUSH0 SWAP1 SWAP2 SWAP1 SWAP2 SWAP1 SWAP2 PUSH2 0x100 EXP DUP2 SLOAD DUP2 PUSH20 0xFFFFFFFFFFFFFFFFFFFFFFFFFFFFFFFFFFFFFFFF MUL NOT AND SWAP1 DUP4 PUSH20 0xFFFFFFFFFFFFFFFFFFFFFFFFFFFFFFFFFFFFFFFF AND MUL OR SWAP1 SSTORE POP DUP1 PUSH20 0xFFFFFFFFFFFFFFFFFFFFFFFFFFFFFFFFFFFFFFFF AND CALLER PUSH20 0xFFFFFFFFFFFFFFFFFFFFFFFFFFFFFFFFFFFFFFFF AND PUSH32 0x9F520B3BFC56D06F7065D10B4683B3F57AC8895D5026CD176DEE95CE1454CB8D PUSH1 0x40 MLOAD PUSH1 0x40 MLOAD DUP1 SWAP2 SUB SWAP1 LOG3 POP JUMP JUMPDEST PUSH0 PUSH0 PUSH0 SWAP1 POP JUMPDEST PUSH1 0x3 PUSH0 DUP6 PUSH20 0xFFFFFFFFFFFFFFFFFFFFFFFFFFFFFFFFFFFFFFFF AND PUSH20 0xFFFFFFFFFFFFFFFFFFFFFFFFFFFFFFFFFFFFFFFF AND DUP2 MSTORE PUSH1 0x20 ADD SWAP1 DUP2 MSTORE PUSH1 0x20 ADD PUSH0 KECCAK256 DUP1 SLOAD SWAP1 POP DUP2 LT ISZERO PUSH2 0x79B JUMPI DUP3 PUSH20 0xFFFFFFFFFFFFFFFFFFFFFFFFFFFFFFFFFFFFFFFF AND PUSH1 0x3 PUSH0 DUP7 PUSH20 0xFFFFFFFFFFFFFFFFFFFFFFFFFFFFFFFFFFFFFFFF AND PUSH20 0xFFFFFFFFFFFFFFFFFFFFFFFFFFFFFFFFFFFFFFFF AND DUP2 MSTORE PUSH1 0x20 ADD SWAP1 DUP2 MSTORE PUSH1 0x20 ADD PUSH0 KECCAK256 DUP3 DUP2 SLOAD DUP2 LT PUSH2 0x741 JUMPI PUSH2 0x740 PUSH2 0x22A6 JUMP JUMPDEST JUMPDEST SWAP1 PUSH0 MSTORE PUSH1 0x20 PUSH0 KECCAK256 ADD PUSH0 SWAP1 SLOAD SWAP1 PUSH2 0x100 EXP SWAP1 DIV PUSH20 0xFFFFFFFFFFFFFFFFFFFFFFFFFFFFFFFFFFFFFFFF AND PUSH20 0xFFFFFFFFFFFFFFFFFFFFFFFFFFFFFFFFFFFFFFFF AND SUB PUSH2 0x78E JUMPI PUSH1 0x1 SWAP2 POP POP PUSH2 0x7A0 JUMP JUMPDEST DUP1 DUP1 PUSH1 0x1 ADD SWAP2 POP POP PUSH2 0x693 JUMP JUMPDEST POP PUSH0 SWAP1 POP JUMPDEST SWAP3 SWAP2 POP POP JUMP JUMPDEST PUSH1 0x2 DUP1 DUP2 GT ISZERO PUSH2 0x7B9 JUMPI PUSH2 0x7B8 PUSH2 0x1D37 JUMP JUMPDEST JUMPDEST PUSH1 0x1 PUSH0 CALLER PUSH20 0xFFFFFFFFFFFFFFFFFFFFFFFFFFFFFFFFFFFFFFFF AND PUSH20 0xFFFFFFFFFFFFFFFFFFFFFFFFFFFFFFFFFFFFFFFF AND DUP2 MSTORE PUSH1 0x20 ADD SWAP1 DUP2 MSTORE PUSH1 0x20 ADD PUSH0 KECCAK256 PUSH0 ADD PUSH0 SWAP1 SLOAD SWAP1 PUSH2 0x100 EXP SWAP1 DIV PUSH1 0xFF AND PUSH1 0x2 DUP2 GT ISZERO PUSH2 0x817 JUMPI PUSH2 0x816 PUSH2 0x1D37 JUMP JUMPDEST JUMPDEST EQ DUP1 ISZERO PUSH2 0x86D JUMPI POP PUSH1 0x1 PUSH0 CALLER PUSH20 0xFFFFFFFFFFFFFFFFFFFFFFFFFFFFFFFFFFFFFFFF AND PUSH20 0xFFFFFFFFFFFFFFFFFFFFFFFFFFFFFFFFFFFFFFFF AND DUP2 MSTORE PUSH1 0x20 ADD SWAP1 DUP2 MSTORE PUSH1 0x20 ADD PUSH0 KECCAK256 PUSH0 ADD PUSH1 0x1 SWAP1 SLOAD SWAP1 PUSH2 0x100 EXP SWAP1 DIV PUSH1 0xFF AND JUMPDEST PUSH2 0x8AC JUMPI PUSH1 0x40 MLOAD PUSH32 0x8C379A000000000000000000000000000000000000000000000000000000000 DUP2 MSTORE PUSH1 0x4 ADD PUSH2 0x8A3 SWAP1 PUSH2 0x23AB JUMP JUMPDEST PUSH1 0x40 MLOAD DUP1 SWAP2 SUB SWAP1 REVERT JUMPDEST PUSH1 0x1 PUSH1 0x2 DUP2 GT ISZERO PUSH2 0x8C0 JUMPI PUSH2 0x8BF PUSH2 0x1D37 JUMP JUMPDEST JUMPDEST PUSH1 0x1 PUSH0 DUP5 PUSH20 0xFFFFFFFFFFFFFFFFFFFFFFFFFFFFFFFFFFFFFFFF AND PUSH20 0xFFFFFFFFFFFFFFFFFFFFFFFFFFFFFFFFFFFFFFFF AND DUP2 MSTORE PUSH1 0x20 ADD SWAP1 DUP2 MSTORE PUSH1 0x20 ADD PUSH0 KECCAK256 PUSH0 ADD PUSH0 SWAP1 SLOAD SWAP1 PUSH2 0x100 EXP SWAP1 DIV PUSH1 0xFF AND PUSH1 0x2 DUP2 GT ISZERO PUSH2 0x91E JUMPI PUSH2 0x91D PUSH2 0x1D37 JUMP JUMPDEST JUMPDEST EQ PUSH2 0x95E JUMPI PUSH1 0x40 MLOAD PUSH32 0x8C379A000000000000000000000000000000000000000000000000000000000 DUP2 MSTORE PUSH1 0x4 ADD PUSH2 0x955 SWAP1 PUSH2 0x2413 JUMP JUMPDEST PUSH1 0x40 MLOAD DUP1 SWAP2 SUB SWAP1 REVERT JUMPDEST PUSH1 0x2 PUSH0 DUP4 PUSH20 0xFFFFFFFFFFFFFFFFFFFFFFFFFFFFFFFFFFFFFFFF AND PUSH20 0xFFFFFFFFFFFFFFFFFFFFFFFFFFFFFFFFFFFFFFFF AND DUP2 MSTORE PUSH1 0x20 ADD SWAP1 DUP2 MSTORE PUSH1 0x20 ADD PUSH0 KECCAK256 PUSH1 0x40 MLOAD DUP1 PUSH1 0x60 ADD PUSH1 0x40 MSTORE DUP1 DUP4 DUP2 MSTORE PUSH1 0x20 ADD CALLER PUSH20 0xFFFFFFFFFFFFFFFFFFFFFFFFFFFFFFFFFFFFFFFF AND DUP2 MSTORE PUSH1 0x20 ADD TIMESTAMP DUP2 MSTORE POP SWAP1 DUP1 PUSH1 0x1 DUP2 SLOAD ADD DUP1 DUP3 SSTORE DUP1 SWAP2 POP POP PUSH1 0x1 SWAP1 SUB SWAP1 PUSH0 MSTORE PUSH1 0x20 PUSH0 KECCAK256 SWAP1 PUSH1 0x3 MUL ADD PUSH0 SWAP1 SWAP2 SWAP1 SWAP2 SWAP1 SWAP2 POP PUSH0 DUP3 ADD MLOAD DUP2 PUSH0 ADD SWAP1 DUP2 PUSH2 0xA05 SWAP2 SWAP1 PUSH2 0x262E JUMP JUMPDEST POP PUSH1 0x20 DUP3 ADD MLOAD DUP2 PUSH1 0x1 ADD PUSH0 PUSH2 0x100 EXP DUP2 SLOAD DUP2 PUSH20 0xFFFFFFFFFFFFFFFFFFFFFFFFFFFFFFFFFFFFFFFF MUL NOT AND SWAP1 DUP4 PUSH20 0xFFFFFFFFFFFFFFFFFFFFFFFFFFFFFFFFFFFFFFFF AND MUL OR SWAP1 SSTORE POP PUSH1 0x40 DUP3 ADD MLOAD DUP2 PUSH1 0x2 ADD SSTORE POP POP CALLER PUSH20 0xFFFFFFFFFFFFFFFFFFFFFFFFFFFFFFFFFFFFFFFF AND DUP3 PUSH20 0xFFFFFFFFFFFFFFFFFFFFFFFFFFFFFFFFFFFFFFFF AND PUSH32 0x7CAC34963963AD845A518664D7DF77FF39AE947321BE3E9B7B4609C45D14E5FD DUP4 PUSH1 0x40 MLOAD PUSH2 0xAB5 SWAP2 SWAP1 PUSH2 0x26FD JUMP JUMPDEST PUSH1 0x40 MLOAD DUP1 SWAP2 SUB SWAP1 LOG3 POP POP JUMP JUMPDEST PUSH0 PUSH1 0x2 DUP2 GT ISZERO PUSH2 0xAD4 JUMPI PUSH2 0xAD3 PUSH2 0x1D37 JUMP JUMPDEST JUMPDEST PUSH1 0x1 PUSH0 CALLER PUSH20 0xFFFFFFFFFFFFFFFFFFFFFFFFFFFFFFFFFFFFFFFF AND PUSH20 0xFFFFFFFFFFFFFFFFFFFFFFFFFFFFFFFFFFFFFFFF AND DUP2 MSTORE PUSH1 0x20 ADD SWAP1 DUP2 MSTORE PUSH1 0x20 ADD PUSH0 KECCAK256 PUSH0 ADD PUSH0 SWAP1 SLOAD SWAP1 PUSH2 0x100 EXP SWAP1 DIV PUSH1 0xFF AND PUSH1 0x2 DUP2 GT ISZERO PUSH2 0xB32 JUMPI PUSH2 0xB31 PUSH2 0x1D37 JUMP JUMPDEST JUMPDEST EQ PUSH2 0xB72 JUMPI PUSH1 0x40 MLOAD PUSH32 0x8C379A000000000000000000000000000000000000000000000000000000000 DUP2 MSTORE PUSH1 0x4 ADD PUSH2 0xB69 SWAP1 PUSH2 0x2767 JUMP JUMPDEST PUSH1 0x40 MLOAD DUP1 SWAP2 SUB SWAP1 REVERT JUMPDEST PUSH1 0x1 PUSH1 0x2 DUP2 GT ISZERO PUSH2 0xB86 JUMPI PUSH2 0xB85 PUSH2 0x1D37 JUMP JUMPDEST JUMPDEST DUP3 PUSH1 0x2 DUP2 GT ISZERO PUSH2 0xB99 JUMPI PUSH2 0xB98 PUSH2 0x1D37 JUMP JUMPDEST JUMPDEST EQ DUP1 PUSH2 0xBC8 JUMPI POP PUSH1 0x2 DUP1 DUP2 GT ISZERO PUSH2 0xBB3 JUMPI PUSH2 0xBB2 PUSH2 0x1D37 JUMP JUMPDEST JUMPDEST DUP3 PUSH1 0x2 DUP2 GT ISZERO PUSH2 0xBC6 JUMPI PUSH2 0xBC5 PUSH2 0x1D37 JUMP JUMPDEST JUMPDEST EQ JUMPDEST PUSH2 0xC07 JUMPI PUSH1 0x40 MLOAD PUSH32 0x8C379A000000000000000000000000000000000000000000000000000000000 DUP2 MSTORE PUSH1 0x4 ADD PUSH2 0xBFE SWAP1 PUSH2 0x27CF JUMP JUMPDEST PUSH1 0x40 MLOAD DUP1 SWAP2 SUB SWAP1 REVERT JUMPDEST PUSH0 PUSH1 0x1 PUSH1 0x2 DUP2 GT ISZERO PUSH2 0xC1C JUMPI PUSH2 0xC1B PUSH2 0x1D37 JUMP JUMPDEST JUMPDEST DUP4 PUSH1 0x2 DUP2 GT ISZERO PUSH2 0xC2F JUMPI PUSH2 0xC2E PUSH2 0x1D37 JUMP JUMPDEST JUMPDEST EQ SWAP1 POP PUSH1 0x40 MLOAD DUP1 PUSH1 0xA0 ADD PUSH1 0x40 MSTORE DUP1 DUP5 PUSH1 0x2 DUP2 GT ISZERO PUSH2 0xC50 JUMPI PUSH2 0xC4F PUSH2 0x1D37 JUMP JUMPDEST JUMPDEST DUP2 MSTORE PUSH1 0x20 ADD DUP3 ISZERO ISZERO DUP2 MSTORE PUSH1 0x20 ADD DUP4 DUP2 MSTORE PUSH1 0x20 ADD DUP7 DUP2 MSTORE PUSH1 0x20 ADD DUP6 DUP2 MSTORE POP PUSH1 0x1 PUSH0 CALLER PUSH20 0xFFFFFFFFFFFFFFFFFFFFFFFFFFFFFFFFFFFFFFFF AND PUSH20 0xFFFFFFFFFFFFFFFFFFFFFFFFFFFFFFFFFFFFFFFF AND DUP2 MSTORE PUSH1 0x20 ADD SWAP1 DUP2 MSTORE PUSH1 0x20 ADD PUSH0 KECCAK256 PUSH0 DUP3 ADD MLOAD DUP2 PUSH0 ADD PUSH0 PUSH2 0x100 EXP DUP2 SLOAD DUP2 PUSH1 0xFF MUL NOT AND SWAP1 DUP4 PUSH1 0x2 DUP2 GT ISZERO PUSH2 0xCD2 JUMPI PUSH2 0xCD1 PUSH2 0x1D37 JUMP JUMPDEST JUMPDEST MUL OR SWAP1 SSTORE POP PUSH1 0x20 DUP3 ADD MLOAD DUP2 PUSH0 ADD PUSH1 0x1 PUSH2 0x100 EXP DUP2 SLOAD DUP2 PUSH1 0xFF MUL NOT AND SWAP1 DUP4 ISZERO ISZERO MUL OR SWAP1 SSTORE POP PUSH1 0x40 DUP3 ADD MLOAD DUP2 PUSH1 0x1 ADD SWAP1 DUP2 PUSH2 0xD0B SWAP2 SWAP1 PUSH2 0x262E JUMP JUMPDEST POP PUSH1 0x60 DUP3 ADD MLOAD DUP2 PUSH1 0x2 ADD SWAP1 DUP2 PUSH2 0xD21 SWAP2 SWAP1 PUSH2 0x262E JUMP JUMPDEST POP PUSH1 0x80 DUP3 ADD MLOAD DUP2 PUSH1 0x3 ADD SWAP1 DUP2 PUSH2 0xD37 SWAP2 SWAP1 PUSH2 0x262E JUMP JUMPDEST POP SWAP1 POP POP CALLER PUSH20 0xFFFFFFFFFFFFFFFFFFFFFFFFFFFFFFFFFFFFFFFF AND PUSH32 0x4221FFA167B8D0A33647E46EE4F6728F4FE3651E4D56715ED0941B12046147B DUP5 DUP5 PUSH1 0x40 MLOAD PUSH2 0xD83 SWAP3 SWAP2 SWAP1 PUSH2 0x27ED JUMP JUMPDEST PUSH1 0x40 MLOAD DUP1 SWAP2 SUB SWAP1 LOG2 POP POP POP POP POP JUMP JUMPDEST PUSH1 0x60 DUP1 PUSH0 PUSH0 PUSH1 0x60 PUSH0 PUSH1 0x1 PUSH0 DUP9 PUSH20 0xFFFFFFFFFFFFFFFFFFFFFFFFFFFFFFFFFFFFFFFF AND PUSH20 0xFFFFFFFFFFFFFFFFFFFFFFFFFFFFFFFFFFFFFFFF AND DUP2 MSTORE PUSH1 0x20 ADD SWAP1 DUP2 MSTORE PUSH1 0x20 ADD PUSH0 KECCAK256 PUSH1 0x40 MLOAD DUP1 PUSH1 0xA0 ADD PUSH1 0x40 MSTORE SWAP1 DUP2 PUSH0 DUP3 ADD PUSH0 SWAP1 SLOAD SWAP1 PUSH2 0x100 EXP SWAP1 DIV PUSH1 0xFF AND PUSH1 0x2 DUP2 GT ISZERO PUSH2 0xE05 JUMPI PUSH2 0xE04 PUSH2 0x1D37 JUMP JUMPDEST JUMPDEST PUSH1 0x2 DUP2 GT ISZERO PUSH2 0xE17 JUMPI PUSH2 0xE16 PUSH2 0x1D37 JUMP JUMPDEST JUMPDEST DUP2 MSTORE PUSH1 0x20 ADD PUSH0 DUP3 ADD PUSH1 0x1 SWAP1 SLOAD SWAP1 PUSH2 0x100 EXP SWAP1 DIV PUSH1 0xFF AND ISZERO ISZERO ISZERO ISZERO DUP2 MSTORE PUSH1 0x20 ADD PUSH1 0x1 DUP3 ADD DUP1 SLOAD PUSH2 0xE45 SWAP1 PUSH2 0x245E JUMP JUMPDEST DUP1 PUSH1 0x1F ADD PUSH1 0x20 DUP1 SWAP2 DIV MUL PUSH1 0x20 ADD PUSH1 0x40 MLOAD SWAP1 DUP2 ADD PUSH1 0x40 MSTORE DUP1 SWAP3 SWAP2 SWAP1 DUP2 DUP2 MSTORE PUSH1 0x20 ADD DUP3 DUP1 SLOAD PUSH2 0xE71 SWAP1 PUSH2 0x245E JUMP JUMPDEST DUP1 ISZERO PUSH2 0xEBC JUMPI DUP1 PUSH1 0x1F LT PUSH2 0xE93 JUMPI PUSH2 0x100 DUP1 DUP4 SLOAD DIV MUL DUP4 MSTORE SWAP2 PUSH1 0x20 ADD SWAP2 PUSH2 0xEBC JUMP JUMPDEST DUP3 ADD SWAP2 SWAP1 PUSH0 MSTORE PUSH1 0x20 PUSH0 KECCAK256 SWAP1 JUMPDEST DUP2 SLOAD DUP2 MSTORE SWAP1 PUSH1 0x1 ADD SWAP1 PUSH1 0x20 ADD DUP1 DUP4 GT PUSH2 0xE9F JUMPI DUP3 SWAP1 SUB PUSH1 0x1F AND DUP3 ADD SWAP2 JUMPDEST POP POP POP POP POP DUP2 MSTORE PUSH1 0x20 ADD PUSH1 0x2 DUP3 ADD DUP1 SLOAD PUSH2 0xED5 SWAP1 PUSH2 0x245E JUMP JUMPDEST DUP1 PUSH1 0x1F ADD PUSH1 0x20 DUP1 SWAP2 DIV MUL PUSH1 0x20 ADD PUSH1 0x40 MLOAD SWAP1 DUP2 ADD PUSH1 0x40 MSTORE DUP1 SWAP3 SWAP2 SWAP1 DUP2 DUP2 MSTORE PUSH1 0x20 ADD DUP3 DUP1 SLOAD PUSH2 0xF01 SWAP1 PUSH2 0x245E JUMP JUMPDEST DUP1 ISZERO PUSH2 0xF4C JUMPI DUP1 PUSH1 0x1F LT PUSH2 0xF23 JUMPI PUSH2 0x100 DUP1 DUP4 SLOAD DIV MUL DUP4 MSTORE SWAP2 PUSH1 0x20 ADD SWAP2 PUSH2 0xF4C JUMP JUMPDEST DUP3 ADD SWAP2 SWAP1 PUSH0 MSTORE PUSH1 0x20 PUSH0 KECCAK256 SWAP1 JUMPDEST DUP2 SLOAD DUP2 MSTORE SWAP1 PUSH1 0x1 ADD SWAP1 PUSH1 0x20 ADD DUP1 DUP4 GT PUSH2 0xF2F JUMPI DUP3 SWAP1 SUB PUSH1 0x1F AND DUP3 ADD SWAP2 JUMPDEST POP POP POP POP POP DUP2 MSTORE PUSH1 0x20 ADD PUSH1 0x3 DUP3 ADD DUP1 SLOAD PUSH2 0xF65 SWAP1 PUSH2 0x245E JUMP JUMPDEST DUP1 PUSH1 0x1F ADD PUSH1 0x20 DUP1 SWAP2 DIV MUL PUSH1 0x20 ADD PUSH1 0x40 MLOAD SWAP1 DUP2 ADD PUSH1 0x40 MSTORE DUP1 SWAP3 SWAP2 SWAP1 DUP2 DUP2 MSTORE PUSH1 0x20 ADD DUP3 DUP1 SLOAD PUSH2 0xF91 SWAP1 PUSH2 0x245E JUMP JUMPDEST DUP1 ISZERO PUSH2 0xFDC JUMPI DUP1 PUSH1 0x1F LT PUSH2 0xFB3 JUMPI PUSH2 0x100 DUP1 DUP4 SLOAD DIV MUL DUP4 MSTORE SWAP2 PUSH1 0x20 ADD SWAP2 PUSH2 0xFDC JUMP JUMPDEST DUP3 ADD SWAP2 SWAP1 PUSH0 MSTORE PUSH1 0x20 PUSH0 KECCAK256 SWAP1 JUMPDEST DUP2 SLOAD DUP2 MSTORE SWAP1 PUSH1 0x1 ADD SWAP1 PUSH1 0x20 ADD DUP1 DUP4 GT PUSH2 0xFBF JUMPI DUP3 SWAP1 SUB PUSH1 0x1F AND DUP3 ADD SWAP2 JUMPDEST POP POP POP POP POP DUP2 MSTORE POP POP SWAP1 POP DUP1 PUSH1 0x60 ADD MLOAD DUP2 PUSH1 0x80 ADD MLOAD DUP3 PUSH0 ADD MLOAD DUP4 PUSH1 0x20 ADD MLOAD DUP5 PUSH1 0x40 ADD MLOAD SWAP6 POP SWAP6 POP SWAP6 POP SWAP6 POP SWAP6 POP POP SWAP2 SWAP4 SWAP6 SWAP1 SWAP3 SWAP5 POP JUMP JUMPDEST PUSH1 0x3 PUSH1 0x20 MSTORE DUP2 PUSH0 MSTORE PUSH1 0x40 PUSH0 KECCAK256 DUP2 DUP2 SLOAD DUP2 LT PUSH2 0x102C JUMPI PUSH0 DUP1 REVERT JUMPDEST SWAP1 PUSH0 MSTORE PUSH1 0x20 PUSH0 KECCAK256 ADD PUSH0 SWAP2 POP SWAP2 POP SWAP1 SLOAD SWAP1 PUSH2 0x100 EXP SWAP1 DIV PUSH20 0xFFFFFFFFFFFFFFFFFFFFFFFFFFFFFFFFFFFFFFFF AND DUP2 JUMP JUMPDEST PUSH1 0x60 DUP2 PUSH20 0xFFFFFFFFFFFFFFFFFFFFFFFFFFFFFFFFFFFFFFFF AND CALLER PUSH20 0xFFFFFFFFFFFFFFFFFFFFFFFFFFFFFFFFFFFFFFFF AND EQ PUSH2 0x10CB JUMPI PUSH1 0x40 MLOAD PUSH32 0x8C379A000000000000000000000000000000000000000000000000000000000 DUP2 MSTORE PUSH1 0x4 ADD PUSH2 0x10C2 SWAP1 PUSH2 0x288B JUMP JUMPDEST PUSH1 0x40 MLOAD DUP1 SWAP2 SUB SWAP1 REVERT JUMPDEST PUSH1 0x3 PUSH0 DUP4 PUSH20 0xFFFFFFFFFFFFFFFFFFFFFFFFFFFFFFFFFFFFFFFF AND PUSH20 0xFFFFFFFFFFFFFFFFFFFFFFFFFFFFFFFFFFFFFFFF AND DUP2 MSTORE PUSH1 0x20 ADD SWAP1 DUP2 MSTORE PUSH1 0x20 ADD PUSH0 KECCAK256 DUP1 SLOAD DUP1 PUSH1 0x20 MUL PUSH1 0x20 ADD PUSH1 0x40 MLOAD SWAP1 DUP2 ADD PUSH1 0x40 MSTORE DUP1 SWAP3 SWAP2 SWAP1 DUP2 DUP2 MSTORE PUSH1 0x20 ADD DUP3 DUP1 SLOAD DUP1 ISZERO PUSH2 0x1185 JUMPI PUSH1 0x20 MUL DUP3 ADD SWAP2 SWAP1 PUSH0 MSTORE PUSH1 0x20 PUSH0 KECCAK256 SWAP1 JUMPDEST DUP2 PUSH0 SWAP1 SLOAD SWAP1 PUSH2 0x100 EXP SWAP1 DIV PUSH20 0xFFFFFFFFFFFFFFFFFFFFFFFFFFFFFFFFFFFFFFFF AND PUSH20 0xFFFFFFFFFFFFFFFFFFFFFFFFFFFFFFFFFFFFFFFF AND DUP2 MSTORE PUSH1 0x20 ADD SWAP1 PUSH1 0x1 ADD SWAP1 DUP1 DUP4 GT PUSH2 0x113C JUMPI JUMPDEST POP POP POP POP POP SWAP1 POP SWAP2 SWAP1 POP JUMP JUMPDEST PUSH1 0x2 PUSH1 0x20 MSTORE DUP2 PUSH0 MSTORE PUSH1 0x40 PUSH0 KECCAK256 DUP2 DUP2 SLOAD DUP2 LT PUSH2 0x11AA JUMPI PUSH0 DUP1 REVERT JUMPDEST SWAP1 PUSH0 MSTORE PUSH1 0x20 PUSH0 KECCAK256 SWAP1 PUSH1 0x3 MUL ADD PUSH0 SWAP2 POP SWAP2 POP POP DUP1 PUSH0 ADD DUP1 SLOAD PUSH2 0x11CA SWAP1 PUSH2 0x245E JUMP JUMPDEST DUP1 PUSH1 0x1F ADD PUSH1 0x20 DUP1 SWAP2 DIV MUL PUSH1 0x20 ADD PUSH1 0x40 MLOAD SWAP1 DUP2 ADD PUSH1 0x40 MSTORE DUP1 SWAP3 SWAP2 SWAP1 DUP2 DUP2 MSTORE PUSH1 0x20 ADD DUP3 DUP1 SLOAD PUSH2 0x11F6 SWAP1 PUSH2 0x245E JUMP JUMPDEST DUP1 ISZERO PUSH2 0x1241 JUMPI DUP1 PUSH1 0x1F LT PUSH2 0x1218 JUMPI PUSH2 0x100 DUP1 DUP4 SLOAD DIV MUL DUP4 MSTORE SWAP2 PUSH1 0x20 ADD SWAP2 PUSH2 0x1241 JUMP JUMPDEST DUP3 ADD SWAP2 SWAP1 PUSH0 MSTORE PUSH1 0x20 PUSH0 KECCAK256 SWAP1 JUMPDEST DUP2 SLOAD DUP2 MSTORE SWAP1 PUSH1 0x1 ADD SWAP1 PUSH1 0x20 ADD DUP1 DUP4 GT PUSH2 0x1224 JUMPI DUP3 SWAP1 SUB PUSH1 0x1F AND DUP3 ADD SWAP2 JUMPDEST POP POP POP POP POP SWAP1 DUP1 PUSH1 0x1 ADD PUSH0 SWAP1 SLOAD SWAP1 PUSH2 0x100 EXP SWAP1 DIV PUSH20 0xFFFFFFFFFFFFFFFFFFFFFFFFFFFFFFFFFFFFFFFF AND SWAP1 DUP1 PUSH1 0x2 ADD SLOAD SWAP1 POP DUP4 JUMP JUMPDEST PUSH1 0x1 PUSH1 0x20 MSTORE DUP1 PUSH0 MSTORE PUSH1 0x40 PUSH0 KECCAK256 PUSH0 SWAP2 POP SWAP1 POP DUP1 PUSH0 ADD PUSH0 SWAP1 SLOAD SWAP1 PUSH2 0x100 EXP SWAP1 DIV PUSH1 0xFF AND SWAP1 DUP1 PUSH0 ADD PUSH1 0x1 SWAP1 SLOAD SWAP1 PUSH2 0x100 EXP SWAP1 DIV PUSH1 0xFF AND SWAP1 DUP1 PUSH1 0x1 ADD DUP1 SLOAD PUSH2 0x12B9 SWAP1 PUSH2 0x245E JUMP JUMPDEST DUP1 PUSH1 0x1F ADD PUSH1 0x20 DUP1 SWAP2 DIV MUL PUSH1 0x20 ADD PUSH1 0x40 MLOAD SWAP1 DUP2 ADD PUSH1 0x40 MSTORE DUP1 SWAP3 SWAP2 SWAP1 DUP2 DUP2 MSTORE PUSH1 0x20 ADD DUP3 DUP1 SLOAD PUSH2 0x12E5 SWAP1 PUSH2 0x245E JUMP JUMPDEST DUP1 ISZERO PUSH2 0x1330 JUMPI DUP1 PUSH1 0x1F LT PUSH2 0x1307 JUMPI PUSH2 0x100 DUP1 DUP4 SLOAD DIV MUL DUP4 MSTORE SWAP2 PUSH1 0x20 ADD SWAP2 PUSH2 0x1330 JUMP JUMPDEST DUP3 ADD SWAP2 SWAP1 PUSH0 MSTORE PUSH1 0x20 PUSH0 KECCAK256 SWAP1 JUMPDEST DUP2 SLOAD DUP2 MSTORE SWAP1 PUSH1 0x1 ADD SWAP1 PUSH1 0x20 ADD DUP1 DUP4 GT PUSH2 0x1313 JUMPI DUP3 SWAP1 SUB PUSH1 0x1F AND DUP3 ADD SWAP2 JUMPDEST POP POP POP POP POP SWAP1 DUP1 PUSH1 0x2 ADD DUP1 SLOAD PUSH2 0x1345 SWAP1 PUSH2 0x245E JUMP JUMPDEST DUP1 PUSH1 0x1F ADD PUSH1 0x20 DUP1 SWAP2 DIV MUL PUSH1 0x20 ADD PUSH1 0x40 MLOAD SWAP1 DUP2 ADD PUSH1 0x40 MSTORE DUP1 SWAP3 SWAP2 SWAP1 DUP2 DUP2 MSTORE PUSH1 0x20 ADD DUP3 DUP1 SLOAD PUSH2 0x1371 SWAP1 PUSH2 0x245E JUMP JUMPDEST DUP1 ISZERO PUSH2 0x13BC JUMPI DUP1 PUSH1 0x1F LT PUSH2 0x1393 JUMPI PUSH2 0x100 DUP1 DUP4 SLOAD DIV MUL DUP4 MSTORE SWAP2 PUSH1 0x20 ADD SWAP2 PUSH2 0x13BC JUMP JUMPDEST DUP3 ADD SWAP2 SWAP1 PUSH0 MSTORE PUSH1 0x20 PUSH0 KECCAK256 SWAP1 JUMPDEST DUP2 SLOAD DUP2 MSTORE SWAP1 PUSH1 0x1 ADD SWAP1 PUSH1 0x20 ADD DUP1 DUP4 GT PUSH2 0x139F JUMPI DUP3 SWAP1 SUB PUSH1 0x1F AND DUP3 ADD SWAP2 JUMPDEST POP POP POP POP POP SWAP1 DUP1 PUSH1 0x3 ADD DUP1 SLOAD PUSH2 0x13D1 SWAP1 PUSH2 0x245E JUMP JUMPDEST DUP1 PUSH1 0x1F ADD PUSH1 0x20 DUP1 SWAP2 DIV MUL PUSH1 0x20 ADD PUSH1 0x40 MLOAD SWAP1 DUP2 ADD PUSH1 0x40 MSTORE DUP1 SWAP3 SWAP2 SWAP1 DUP2 DUP2 MSTORE PUSH1 0x20 ADD DUP3 DUP1 SLOAD PUSH2 0x13FD SWAP1 PUSH2 0x245E JUMP JUMPDEST DUP1 ISZERO PUSH2 0x1448 JUMPI DUP1 PUSH1 0x1F LT PUSH2 0x141F JUMPI PUSH2 0x100 DUP1 DUP4 SLOAD DIV MUL DUP4 MSTORE SWAP2 PUSH1 0x20 ADD SWAP2 PUSH2 0x1448 JUMP JUMPDEST DUP3 ADD SWAP2 SWAP1 PUSH0 MSTORE PUSH1 0x20 PUSH0 KECCAK256 SWAP1 JUMPDEST DUP2 SLOAD DUP2 MSTORE SWAP1 PUSH1 0x1 ADD SWAP1 PUSH1 0x20 ADD DUP1 DUP4 GT PUSH2 0x142B JUMPI DUP3 SWAP1 SUB PUSH1 0x1F AND DUP3 ADD SWAP2 JUMPDEST POP POP POP POP POP SWAP1 POP DUP6 JUMP JUMPDEST PUSH1 0x60 DUP2 PUSH20 0xFFFFFFFFFFFFFFFFFFFFFFFFFFFFFFFFFFFFFFFF AND CALLER PUSH20 0xFFFFFFFFFFFFFFFFFFFFFFFFFFFFFFFFFFFFFFFF AND EQ DUP1 PUSH2 0x150E JUMPI POP PUSH1 0x2 DUP1 DUP2 GT ISZERO PUSH2 0x149C JUMPI PUSH2 0x149B PUSH2 0x1D37 JUMP JUMPDEST JUMPDEST PUSH1 0x1 PUSH0 CALLER PUSH20 0xFFFFFFFFFFFFFFFFFFFFFFFFFFFFFFFFFFFFFFFF AND PUSH20 0xFFFFFFFFFFFFFFFFFFFFFFFFFFFFFFFFFFFFFFFF AND DUP2 MSTORE PUSH1 0x20 ADD SWAP1 DUP2 MSTORE PUSH1 0x20 ADD PUSH0 KECCAK256 PUSH0 ADD PUSH0 SWAP1 SLOAD SWAP1 PUSH2 0x100 EXP SWAP1 DIV PUSH1 0xFF AND PUSH1 0x2 DUP2 GT ISZERO PUSH2 0x14FA JUMPI PUSH2 0x14F9 PUSH2 0x1D37 JUMP JUMPDEST JUMPDEST EQ DUP1 ISZERO PUSH2 0x150D JUMPI POP PUSH2 0x150C DUP3 CALLER PUSH2 0x68D JUMP JUMPDEST JUMPDEST JUMPDEST PUSH2 0x154D JUMPI PUSH1 0x40 MLOAD PUSH32 0x8C379A000000000000000000000000000000000000000000000000000000000 DUP2 MSTORE PUSH1 0x4 ADD PUSH2 0x1544 SWAP1 PUSH2 0x28F3 JUMP JUMPDEST PUSH1 0x40 MLOAD DUP1 SWAP2 SUB SWAP1 REVERT JUMPDEST PUSH1 0x2 PUSH0 DUP4 PUSH20 0xFFFFFFFFFFFFFFFFFFFFFFFFFFFFFFFFFFFFFFFF AND PUSH20 0xFFFFFFFFFFFFFFFFFFFFFFFFFFFFFFFFFFFFFFFF AND DUP2 MSTORE PUSH1 0x20 ADD SWAP1 DUP2 MSTORE PUSH1 0x20 ADD PUSH0 KECCAK256 DUP1 SLOAD DUP1 PUSH1 0x20 MUL PUSH1 0x20 ADD PUSH1 0x40 MLOAD SWAP1 DUP2 ADD PUSH1 0x40 MSTORE DUP1 SWAP3 SWAP2 SWAP1 DUP2 DUP2 MSTORE PUSH1 0x20 ADD PUSH0 SWAP1 JUMPDEST DUP3 DUP3 LT ISZERO PUSH2 0x16C7 JUMPI DUP4 DUP3 SWAP1 PUSH0 MSTORE PUSH1 0x20 PUSH0 KECCAK256 SWAP1 PUSH1 0x3 MUL ADD PUSH1 0x40 MLOAD DUP1 PUSH1 0x60 ADD PUSH1 0x40 MSTORE SWAP1 DUP2 PUSH0 DUP3 ADD DUP1 SLOAD PUSH2 0x15D9 SWAP1 PUSH2 0x245E JUMP JUMPDEST DUP1 PUSH1 0x1F ADD PUSH1 0x20 DUP1 SWAP2 DIV MUL PUSH1 0x20 ADD PUSH1 0x40 MLOAD SWAP1 DUP2 ADD PUSH1 0x40 MSTORE DUP1 SWAP3 SWAP2 SWAP1 DUP2 DUP2 MSTORE PUSH1 0x20 ADD DUP3 DUP1 SLOAD PUSH2 0x1605 SWAP1 PUSH2 0x245E JUMP JUMPDEST DUP1 ISZERO PUSH2 0x1650 JUMPI DUP1 PUSH1 0x1F LT PUSH2 0x1627 JUMPI PUSH2 0x100 DUP1 DUP4 SLOAD DIV MUL DUP4 MSTORE SWAP2 PUSH1 0x20 ADD SWAP2 PUSH2 0x1650 JUMP JUMPDEST DUP3 ADD SWAP2 SWAP1 PUSH0 MSTORE PUSH1 0x20 PUSH0 KECCAK256 SWAP1 JUMPDEST DUP2 SLOAD DUP2 MSTORE SWAP1 PUSH1 0x1 ADD SWAP1 PUSH1 0x20 ADD DUP1 DUP4 GT PUSH2 0x1633 JUMPI DUP3 SWAP1 SUB PUSH1 0x1F AND DUP3 ADD SWAP2 JUMPDEST POP POP POP POP POP DUP2 MSTORE PUSH1 0x20 ADD PUSH1 0x1 DUP3 ADD PUSH0 SWAP1 SLOAD SWAP1 PUSH2 0x100 EXP SWAP1 DIV PUSH20 0xFFFFFFFFFFFFFFFFFFFFFFFFFFFFFFFFFFFFFFFF AND PUSH20 0xFFFFFFFFFFFFFFFFFFFFFFFFFFFFFFFFFFFFFFFF AND PUSH20 0xFFFFFFFFFFFFFFFFFFFFFFFFFFFFFFFFFFFFFFFF AND DUP2 MSTORE PUSH1 0x20 ADD PUSH1 0x2 DUP3 ADD SLOAD DUP2 MSTORE POP POP DUP2 MSTORE PUSH1 0x20 ADD SWAP1 PUSH1 0x1 ADD SWAP1 PUSH2 0x15A9 JUMP JUMPDEST POP POP POP POP SWAP1 POP SWAP2 SWAP1 POP JUMP JUMPDEST PUSH0 PUSH0 SWAP1 SLOAD SWAP1 PUSH2 0x100 EXP SWAP1 DIV PUSH20 0xFFFFFFFFFFFFFFFFFFFFFFFFFFFFFFFFFFFFFFFF AND PUSH20 0xFFFFFFFFFFFFFFFFFFFFFFFFFFFFFFFFFFFFFFFF AND CALLER PUSH20 0xFFFFFFFFFFFFFFFFFFFFFFFFFFFFFFFFFFFFFFFF AND EQ PUSH2 0x1760 JUMPI PUSH1 0x40 MLOAD PUSH32 0x8C379A000000000000000000000000000000000000000000000000000000000 DUP2 MSTORE PUSH1 0x4 ADD PUSH2 0x1757 SWAP1 PUSH2 0x2981 JUMP JUMPDEST PUSH1 0x40 MLOAD DUP1 SWAP2 SUB SWAP1 REVERT JUMPDEST PUSH1 0x2 DUP1 DUP2 GT ISZERO PUSH2 0x1773 JUMPI PUSH2 0x1772 PUSH2 0x1D37 JUMP JUMPDEST JUMPDEST PUSH1 0x1 PUSH0 DUP4 PUSH20 0xFFFFFFFFFFFFFFFFFFFFFFFFFFFFFFFFFFFFFFFF AND PUSH20 0xFFFFFFFFFFFFFFFFFFFFFFFFFFFFFFFFFFFFFFFF AND DUP2 MSTORE PUSH1 0x20 ADD SWAP1 DUP2 MSTORE PUSH1 0x20 ADD PUSH0 KECCAK256 PUSH0 ADD PUSH0 SWAP1 SLOAD SWAP1 PUSH2 0x100 EXP SWAP1 DIV PUSH1 0xFF AND PUSH1 0x2 DUP2 GT ISZERO PUSH2 0x17D1 JUMPI PUSH2 0x17D0 PUSH2 0x1D37 JUMP JUMPDEST JUMPDEST EQ PUSH2 0x1811 JUMPI PUSH1 0x40 MLOAD PUSH32 0x8C379A000000000000000000000000000000000000000000000000000000000 DUP2 MSTORE PUSH1 0x4 ADD PUSH2 0x1808 SWAP1 PUSH2 0x29E9 JUMP JUMPDEST PUSH1 0x40 MLOAD DUP1 SWAP2 SUB SWAP1 REVERT JUMPDEST PUSH1 0x1 PUSH0 DUP3 PUSH20 0xFFFFFFFFFFFFFFFFFFFFFFFFFFFFFFFFFFFFFFFF AND PUSH20 0xFFFFFFFFFFFFFFFFFFFFFFFFFFFFFFFFFFFFFFFF AND DUP2 MSTORE PUSH1 0x20 ADD SWAP1 DUP2 MSTORE PUSH1 0x20 ADD PUSH0 KECCAK256 PUSH0 ADD PUSH1 0x1 SWAP1 SLOAD SWAP1 PUSH2 0x100 EXP SWAP1 DIV PUSH1 0xFF AND ISZERO PUSH2 0x189E JUMPI PUSH1 0x40 MLOAD PUSH32 0x8C379A000000000000000000000000000000000000000000000000000000000 DUP2 MSTORE PUSH1 0x4 ADD PUSH2 0x1895 SWAP1 PUSH2 0x2A51 JUMP JUMPDEST PUSH1 0x40 MLOAD DUP1 SWAP2 SUB SWAP1 REVERT JUMPDEST PUSH1 0x1 DUP1 PUSH0 DUP4 PUSH20 0xFFFFFFFFFFFFFFFFFFFFFFFFFFFFFFFFFFFFFFFF AND PUSH20 0xFFFFFFFFFFFFFFFFFFFFFFFFFFFFFFFFFFFFFFFF AND DUP2 MSTORE PUSH1 0x20 ADD SWAP1 DUP2 MSTORE PUSH1 0x20 ADD PUSH0 KECCAK256 PUSH0 ADD PUSH1 0x1 PUSH2 0x100 EXP DUP2 SLOAD DUP2 PUSH1 0xFF MUL NOT AND SWAP1 DUP4 ISZERO ISZERO MUL OR SWAP1 SSTORE POP DUP1 PUSH20 0xFFFFFFFFFFFFFFFFFFFFFFFFFFFFFFFFFFFFFFFF AND PUSH32 0xB0859F2CF042B300C8948CDD785EC6A23A3742BC5446C19F4B270B67FAC2C967 PUSH1 0x40 MLOAD PUSH1 0x40 MLOAD DUP1 SWAP2 SUB SWAP1 LOG2 POP JUMP JUMPDEST PUSH0 PUSH0 SWAP1 SLOAD SWAP1 PUSH2 0x100 EXP SWAP1 DIV PUSH20 0xFFFFFFFFFFFFFFFFFFFFFFFFFFFFFFFFFFFFFFFF AND DUP2 JUMP JUMPDEST PUSH0 PUSH1 0x40 MLOAD SWAP1 POP SWAP1 JUMP JUMPDEST PUSH0 PUSH0 REVERT JUMPDEST PUSH0 PUSH0 REVERT JUMPDEST PUSH0 PUSH20 0xFFFFFFFFFFFFFFFFFFFFFFFFFFFFFFFFFFFFFFFF DUP3 AND SWAP1 POP SWAP2 SWAP1 POP JUMP JUMPDEST PUSH0 PUSH2 0x1999 DUP3 PUSH2 0x1970 JUMP JUMPDEST SWAP1 POP SWAP2 SWAP1 POP JUMP JUMPDEST PUSH2 0x19A9 DUP2 PUSH2 0x198F JUMP JUMPDEST DUP2 EQ PUSH2 0x19B3 JUMPI PUSH0 PUSH0 REVERT JUMPDEST POP JUMP JUMPDEST PUSH0 DUP2 CALLDATALOAD SWAP1 POP PUSH2 0x19C4 DUP2 PUSH2 0x19A0 JUMP JUMPDEST SWAP3 SWAP2 POP POP JUMP JUMPDEST PUSH0 PUSH1 0x20 DUP3 DUP5 SUB SLT ISZERO PUSH2 0x19DF JUMPI PUSH2 0x19DE PUSH2 0x1968 JUMP JUMPDEST JUMPDEST PUSH0 PUSH2 0x19EC DUP5 DUP3 DUP6 ADD PUSH2 0x19B6 JUMP JUMPDEST SWAP2 POP POP SWAP3 SWAP2 POP POP JUMP JUMPDEST PUSH0 PUSH0 PUSH1 0x40 DUP4 DUP6 SUB SLT ISZERO PUSH2 0x1A0B JUMPI PUSH2 0x1A0A PUSH2 0x1968 JUMP JUMPDEST JUMPDEST PUSH0 PUSH2 0x1A18 DUP6 DUP3 DUP7 ADD PUSH2 0x19B6 JUMP JUMPDEST SWAP3 POP POP PUSH1 0x20 PUSH2 0x1A29 DUP6 DUP3 DUP7 ADD PUSH2 0x19B6 JUMP JUMPDEST SWAP2 POP POP SWAP3 POP SWAP3 SWAP1 POP JUMP JUMPDEST PUSH0 DUP2 ISZERO ISZERO SWAP1 POP SWAP2 SWAP1 POP JUMP JUMPDEST PUSH2 0x1A47 DUP2 PUSH2 0x1A33 JUMP JUMPDEST DUP3 MSTORE POP POP JUMP JUMPDEST PUSH0 PUSH1 0x20 DUP3 ADD SWAP1 POP PUSH2 0x1A60 PUSH0 DUP4 ADD DUP5 PUSH2 0x1A3E JUMP JUMPDEST SWAP3 SWAP2 POP POP JUMP JUMPDEST PUSH0 PUSH0 REVERT JUMPDEST PUSH0 PUSH0 REVERT JUMPDEST PUSH0 PUSH1 0x1F NOT PUSH1 0x1F DUP4 ADD AND SWAP1 POP SWAP2 SWAP1 POP JUMP JUMPDEST PUSH32 0x4E487B7100000000000000000000000000000000000000000000000000000000 PUSH0 MSTORE PUSH1 0x41 PUSH1 0x4 MSTORE PUSH1 0x24 PUSH0 REVERT JUMPDEST PUSH2 0x1AB4 DUP3 PUSH2 0x1A6E JUMP JUMPDEST DUP2 ADD DUP2 DUP2 LT PUSH8 0xFFFFFFFFFFFFFFFF DUP3 GT OR ISZERO PUSH2 0x1AD3 JUMPI PUSH2 0x1AD2 PUSH2 0x1A7E JUMP JUMPDEST JUMPDEST DUP1 PUSH1 0x40 MSTORE POP POP POP JUMP JUMPDEST PUSH0 PUSH2 0x1AE5 PUSH2 0x195F JUMP JUMPDEST SWAP1 POP PUSH2 0x1AF1 DUP3 DUP3 PUSH2 0x1AAB JUMP JUMPDEST SWAP2 SWAP1 POP JUMP JUMPDEST PUSH0 PUSH8 0xFFFFFFFFFFFFFFFF DUP3 GT ISZERO PUSH2 0x1B10 JUMPI PUSH2 0x1B0F PUSH2 0x1A7E JUMP JUMPDEST JUMPDEST PUSH2 0x1B19 DUP3 PUSH2 0x1A6E JUMP JUMPDEST SWAP1 POP PUSH1 0x20 DUP2 ADD SWAP1 POP SWAP2 SWAP1 POP JUMP JUMPDEST DUP3 DUP2 DUP4 CALLDATACOPY PUSH0 DUP4 DUP4 ADD MSTORE POP POP POP JUMP JUMPDEST PUSH0 PUSH2 0x1B46 PUSH2 0x1B41 DUP5 PUSH2 0x1AF6 JUMP JUMPDEST PUSH2 0x1ADC JUMP JUMPDEST SWAP1 POP DUP3 DUP2 MSTORE PUSH1 0x20 DUP2 ADD DUP5 DUP5 DUP5 ADD GT ISZERO PUSH2 0x1B62 JUMPI PUSH2 0x1B61 PUSH2 0x1A6A JUMP JUMPDEST JUMPDEST PUSH2 0x1B6D DUP5 DUP3 DUP6 PUSH2 0x1B26 JUMP JUMPDEST POP SWAP4 SWAP3 POP POP POP JUMP JUMPDEST PUSH0 DUP3 PUSH1 0x1F DUP4 ADD SLT PUSH2 0x1B89 JUMPI PUSH2 0x1B88 PUSH2 0x1A66 JUMP JUMPDEST JUMPDEST DUP2 CALLDATALOAD PUSH2 0x1B99 DUP5 DUP3 PUSH1 0x20 DUP7 ADD PUSH2 0x1B34 JUMP JUMPDEST SWAP2 POP POP SWAP3 SWAP2 POP POP JUMP JUMPDEST PUSH0 PUSH0 PUSH1 0x40 DUP4 DUP6 SUB SLT ISZERO PUSH2 0x1BB8 JUMPI PUSH2 0x1BB7 PUSH2 0x1968 JUMP JUMPDEST JUMPDEST PUSH0 PUSH2 0x1BC5 DUP6 DUP3 DUP7 ADD PUSH2 0x19B6 JUMP JUMPDEST SWAP3 POP POP PUSH1 0x20 DUP4 ADD CALLDATALOAD PUSH8 0xFFFFFFFFFFFFFFFF DUP2 GT ISZERO PUSH2 0x1BE6 JUMPI PUSH2 0x1BE5 PUSH2 0x196C JUMP JUMPDEST JUMPDEST PUSH2 0x1BF2 DUP6 DUP3 DUP7 ADD PUSH2 0x1B75 JUMP JUMPDEST SWAP2 POP POP SWAP3 POP SWAP3 SWAP1 POP JUMP JUMPDEST PUSH1 0x3 DUP2 LT PUSH2 0x1C08 JUMPI PUSH0 PUSH0 REVERT JUMPDEST POP JUMP JUMPDEST PUSH0 DUP2 CALLDATALOAD SWAP1 POP PUSH2 0x1C19 DUP2 PUSH2 0x1BFC JUMP JUMPDEST SWAP3 SWAP2 POP POP JUMP JUMPDEST PUSH0 PUSH0 PUSH0 PUSH0 PUSH1 0x80 DUP6 DUP8 SUB SLT ISZERO PUSH2 0x1C37 JUMPI PUSH2 0x1C36 PUSH2 0x1968 JUMP JUMPDEST JUMPDEST PUSH0 DUP6 ADD CALLDATALOAD PUSH8 0xFFFFFFFFFFFFFFFF DUP2 GT ISZERO PUSH2 0x1C54 JUMPI PUSH2 0x1C53 PUSH2 0x196C JUMP JUMPDEST JUMPDEST PUSH2 0x1C60 DUP8 DUP3 DUP9 ADD PUSH2 0x1B75 JUMP JUMPDEST SWAP5 POP POP PUSH1 0x20 DUP6 ADD CALLDATALOAD PUSH8 0xFFFFFFFFFFFFFFFF DUP2 GT ISZERO PUSH2 0x1C81 JUMPI PUSH2 0x1C80 PUSH2 0x196C JUMP JUMPDEST JUMPDEST PUSH2 0x1C8D DUP8 DUP3 DUP9 ADD PUSH2 0x1B75 JUMP JUMPDEST SWAP4 POP POP PUSH1 0x40 PUSH2 0x1C9E DUP8 DUP3 DUP9 ADD PUSH2 0x1C0B JUMP JUMPDEST SWAP3 POP POP PUSH1 0x60 DUP6 ADD CALLDATALOAD PUSH8 0xFFFFFFFFFFFFFFFF DUP2 GT ISZERO PUSH2 0x1CBF JUMPI PUSH2 0x1CBE PUSH2 0x196C JUMP JUMPDEST JUMPDEST PUSH2 0x1CCB DUP8 DUP3 DUP9 ADD PUSH2 0x1B75 JUMP JUMPDEST SWAP2 POP POP SWAP3 SWAP6 SWAP2 SWAP5 POP SWAP3 POP JUMP JUMPDEST PUSH0 DUP2 MLOAD SWAP1 POP SWAP2 SWAP1 POP JUMP JUMPDEST PUSH0 DUP3 DUP3 MSTORE PUSH1 0x20 DUP3 ADD SWAP1 POP SWAP3 SWAP2 POP POP JUMP JUMPDEST DUP3 DUP2 DUP4 MCOPY PUSH0 DUP4 DUP4 ADD MSTORE POP POP POP JUMP JUMPDEST PUSH0 PUSH2 0x1D09 DUP3 PUSH2 0x1CD7 JUMP JUMPDEST PUSH2 0x1D13 DUP2 DUP6 PUSH2 0x1CE1 JUMP JUMPDEST SWAP4 POP PUSH2 0x1D23 DUP2 DUP6 PUSH1 0x20 DUP7 ADD PUSH2 0x1CF1 JUMP JUMPDEST PUSH2 0x1D2C DUP2 PUSH2 0x1A6E JUMP JUMPDEST DUP5 ADD SWAP2 POP POP SWAP3 SWAP2 POP POP JUMP JUMPDEST PUSH32 0x4E487B7100000000000000000000000000000000000000000000000000000000 PUSH0 MSTORE PUSH1 0x21 PUSH1 0x4 MSTORE PUSH1 0x24 PUSH0 REVERT JUMPDEST PUSH1 0x3 DUP2 LT PUSH2 0x1D75 JUMPI PUSH2 0x1D74 PUSH2 0x1D37 JUMP JUMPDEST JUMPDEST POP JUMP JUMPDEST PUSH0 DUP2 SWAP1 POP PUSH2 0x1D85 DUP3 PUSH2 0x1D64 JUMP JUMPDEST SWAP2 SWAP1 POP JUMP JUMPDEST PUSH0 PUSH2 0x1D94 DUP3 PUSH2 0x1D78 JUMP JUMPDEST SWAP1 POP SWAP2 SWAP1 POP JUMP JUMPDEST PUSH2 0x1DA4 DUP2 PUSH2 0x1D8A JUMP JUMPDEST DUP3 MSTORE POP POP JUMP JUMPDEST PUSH0 PUSH1 0xA0 DUP3 ADD SWAP1 POP DUP2 DUP2 SUB PUSH0 DUP4 ADD MSTORE PUSH2 0x1DC2 DUP2 DUP9 PUSH2 0x1CFF JUMP JUMPDEST SWAP1 POP DUP2 DUP2 SUB PUSH1 0x20 DUP4 ADD MSTORE PUSH2 0x1DD6 DUP2 DUP8 PUSH2 0x1CFF JUMP JUMPDEST SWAP1 POP PUSH2 0x1DE5 PUSH1 0x40 DUP4 ADD DUP7 PUSH2 0x1D9B JUMP JUMPDEST PUSH2 0x1DF2 PUSH1 0x60 DUP4 ADD DUP6 PUSH2 0x1A3E JUMP JUMPDEST DUP2 DUP2 SUB PUSH1 0x80 DUP4 ADD MSTORE PUSH2 0x1E04 DUP2 DUP5 PUSH2 0x1CFF JUMP JUMPDEST SWAP1 POP SWAP7 SWAP6 POP POP POP POP POP POP JUMP JUMPDEST PUSH0 DUP2 SWAP1 POP SWAP2 SWAP1 POP JUMP JUMPDEST PUSH2 0x1E22 DUP2 PUSH2 0x1E10 JUMP JUMPDEST DUP2 EQ PUSH2 0x1E2C JUMPI PUSH0 PUSH0 REVERT JUMPDEST POP JUMP JUMPDEST PUSH0 DUP2 CALLDATALOAD SWAP1 POP PUSH2 0x1E3D DUP2 PUSH2 0x1E19 JUMP JUMPDEST SWAP3 SWAP2 POP POP JUMP JUMPDEST PUSH0 PUSH0 PUSH1 0x40 DUP4 DUP6 SUB SLT ISZERO PUSH2 0x1E59 JUMPI PUSH2 0x1E58 PUSH2 0x1968 JUMP JUMPDEST JUMPDEST PUSH0 PUSH2 0x1E66 DUP6 DUP3 DUP7 ADD PUSH2 0x19B6 JUMP JUMPDEST SWAP3 POP POP PUSH1 0x20 PUSH2 0x1E77 DUP6 DUP3 DUP7 ADD PUSH2 0x1E2F JUMP JUMPDEST SWAP2 POP POP SWAP3 POP SWAP3 SWAP1 POP JUMP JUMPDEST PUSH2 0x1E8A DUP2 PUSH2 0x198F JUMP JUMPDEST DUP3 MSTORE POP POP JUMP JUMPDEST PUSH0 PUSH1 0x20 DUP3 ADD SWAP1 POP PUSH2 0x1EA3 PUSH0 DUP4 ADD DUP5 PUSH2 0x1E81 JUMP JUMPDEST SWAP3 SWAP2 POP POP JUMP JUMPDEST PUSH0 DUP2 MLOAD SWAP1 POP SWAP2 SWAP1 POP JUMP JUMPDEST PUSH0 DUP3 DUP3 MSTORE PUSH1 0x20 DUP3 ADD SWAP1 POP SWAP3 SWAP2 POP POP JUMP JUMPDEST PUSH0 DUP2 SWAP1 POP PUSH1 0x20 DUP3 ADD SWAP1 POP SWAP2 SWAP1 POP JUMP JUMPDEST PUSH2 0x1EDB DUP2 PUSH2 0x198F JUMP JUMPDEST DUP3 MSTORE POP POP JUMP JUMPDEST PUSH0 PUSH2 0x1EEC DUP4 DUP4 PUSH2 0x1ED2 JUMP JUMPDEST PUSH1 0x20 DUP4 ADD SWAP1 POP SWAP3 SWAP2 POP POP JUMP JUMPDEST PUSH0 PUSH1 0x20 DUP3 ADD SWAP1 POP SWAP2 SWAP1 POP JUMP JUMPDEST PUSH0 PUSH2 0x1F0E DUP3 PUSH2 0x1EA9 JUMP JUMPDEST PUSH2 0x1F18 DUP2 DUP6 PUSH2 0x1EB3 JUMP JUMPDEST SWAP4 POP PUSH2 0x1F23 DUP4 PUSH2 0x1EC3 JUMP JUMPDEST DUP1 PUSH0 JUMPDEST DUP4 DUP2 LT ISZERO PUSH2 0x1F53 JUMPI DUP2 MLOAD PUSH2 0x1F3A DUP9 DUP3 PUSH2 0x1EE1 JUMP JUMPDEST SWAP8 POP PUSH2 0x1F45 DUP4 PUSH2 0x1EF8 JUMP JUMPDEST SWAP3 POP POP PUSH1 0x1 DUP2 ADD SWAP1 POP PUSH2 0x1F26 JUMP JUMPDEST POP DUP6 SWAP4 POP POP POP POP SWAP3 SWAP2 POP POP JUMP JUMPDEST PUSH0 PUSH1 0x20 DUP3 ADD SWAP1 POP DUP2 DUP2 SUB PUSH0 DUP4 ADD MSTORE PUSH2 0x1F78 DUP2 DUP5 PUSH2 0x1F04 JUMP JUMPDEST SWAP1 POP SWAP3 SWAP2 POP POP JUMP JUMPDEST PUSH2 0x1F89 DUP2 PUSH2 0x1E10 JUMP JUMPDEST DUP3 MSTORE POP POP JUMP JUMPDEST PUSH0 PUSH1 0x60 DUP3 ADD SWAP1 POP DUP2 DUP2 SUB PUSH0 DUP4 ADD MSTORE PUSH2 0x1FA7 DUP2 DUP7 PUSH2 0x1CFF JUMP JUMPDEST SWAP1 POP PUSH2 0x1FB6 PUSH1 0x20 DUP4 ADD DUP6 PUSH2 0x1E81 JUMP JUMPDEST PUSH2 0x1FC3 PUSH1 0x40 DUP4 ADD DUP5 PUSH2 0x1F80 JUMP JUMPDEST SWAP5 SWAP4 POP POP POP POP JUMP JUMPDEST PUSH0 PUSH1 0xA0 DUP3 ADD SWAP1 POP PUSH2 0x1FDE PUSH0 DUP4 ADD DUP9 PUSH2 0x1D9B JUMP JUMPDEST PUSH2 0x1FEB PUSH1 0x20 DUP4 ADD DUP8 PUSH2 0x1A3E JUMP JUMPDEST DUP2 DUP2 SUB PUSH1 0x40 DUP4 ADD MSTORE PUSH2 0x1FFD DUP2 DUP7 PUSH2 0x1CFF JUMP JUMPDEST SWAP1 POP DUP2 DUP2 SUB PUSH1 0x60 DUP4 ADD MSTORE PUSH2 0x2011 DUP2 DUP6 PUSH2 0x1CFF JUMP JUMPDEST SWAP1 POP DUP2 DUP2 SUB PUSH1 0x80 DUP4 ADD MSTORE PUSH2 0x2025 DUP2 DUP5 PUSH2 0x1CFF JUMP JUMPDEST SWAP1 POP SWAP7 SWAP6 POP POP POP POP POP POP JUMP JUMPDEST PUSH0 DUP2 MLOAD SWAP1 POP SWAP2 SWAP1 POP JUMP JUMPDEST PUSH0 DUP3 DUP3 MSTORE PUSH1 0x20 DUP3 ADD SWAP1 POP SWAP3 SWAP2 POP POP JUMP JUMPDEST PUSH0 DUP2 SWAP1 POP PUSH1 0x20 DUP3 ADD SWAP1 POP SWAP2 SWAP1 POP JUMP JUMPDEST PUSH0 DUP3 DUP3 MSTORE PUSH1 0x20 DUP3 ADD SWAP1 POP SWAP3 SWAP2 POP POP JUMP JUMPDEST PUSH0 PUSH2 0x2074 DUP3 PUSH2 0x1CD7 JUMP JUMPDEST PUSH2 0x207E DUP2 DUP6 PUSH2 0x205A JUMP JUMPDEST SWAP4 POP PUSH2 0x208E DUP2 DUP6 PUSH1 0x20 DUP7 ADD PUSH2 0x1CF1 JUMP JUMPDEST PUSH2 0x2097 DUP2 PUSH2 0x1A6E JUMP JUMPDEST DUP5 ADD SWAP2 POP POP SWAP3 SWAP2 POP POP JUMP JUMPDEST PUSH2 0x20AB DUP2 PUSH2 0x1E10 JUMP JUMPDEST DUP3 MSTORE POP POP JUMP JUMPDEST PUSH0 PUSH1 0x60 DUP4 ADD PUSH0 DUP4 ADD MLOAD DUP5 DUP3 SUB PUSH0 DUP7 ADD MSTORE PUSH2 0x20CB DUP3 DUP3 PUSH2 0x206A JUMP JUMPDEST SWAP2 POP POP PUSH1 0x20 DUP4 ADD MLOAD PUSH2 0x20E0 PUSH1 0x20 DUP7 ADD DUP3 PUSH2 0x1ED2 JUMP JUMPDEST POP PUSH1 0x40 DUP4 ADD MLOAD PUSH2 0x20F3 PUSH1 0x40 DUP7 ADD DUP3 PUSH2 0x20A2 JUMP JUMPDEST POP DUP1 SWAP2 POP POP SWAP3 SWAP2 POP POP JUMP JUMPDEST PUSH0 PUSH2 0x2109 DUP4 DUP4 PUSH2 0x20B1 JUMP JUMPDEST SWAP1 POP SWAP3 SWAP2 POP POP JUMP JUMPDEST PUSH0 PUSH1 0x20 DUP3 ADD SWAP1 POP SWAP2 SWAP1 POP JUMP JUMPDEST PUSH0 PUSH2 0x2127 DUP3 PUSH2 0x2031 JUMP JUMPDEST PUSH2 0x2131 DUP2 DUP6 PUSH2 0x203B JUMP JUMPDEST SWAP4 POP DUP4 PUSH1 0x20 DUP3 MUL DUP6 ADD PUSH2 0x2143 DUP6 PUSH2 0x204B JUMP JUMPDEST DUP1 PUSH0 JUMPDEST DUP6 DUP2 LT ISZERO PUSH2 0x217E JUMPI DUP5 DUP5 SUB DUP10 MSTORE DUP2 MLOAD PUSH2 0x215F DUP6 DUP3 PUSH2 0x20FE JUMP JUMPDEST SWAP5 POP PUSH2 0x216A DUP4 PUSH2 0x2111 JUMP JUMPDEST SWAP3 POP PUSH1 0x20 DUP11 ADD SWAP10 POP POP PUSH1 0x1 DUP2 ADD SWAP1 POP PUSH2 0x2146 JUMP JUMPDEST POP DUP3 SWAP8 POP DUP8 SWAP6 POP POP POP POP POP POP SWAP3 SWAP2 POP POP JUMP JUMPDEST PUSH0 PUSH1 0x20 DUP3 ADD SWAP1 POP DUP2 DUP2 SUB PUSH0 DUP4 ADD MSTORE PUSH2 0x21A8 DUP2 DUP5 PUSH2 0x211D JUMP JUMPDEST SWAP1 POP SWAP3 SWAP2 POP POP JUMP JUMPDEST PUSH32 0x4F6E6C792070617469656E74732063616E2063616C6C20746869732066756E63 PUSH0 DUP3 ADD MSTORE PUSH32 0x74696F6E00000000000000000000000000000000000000000000000000000000 PUSH1 0x20 DUP3 ADD MSTORE POP JUMP JUMPDEST PUSH0 PUSH2 0x220A PUSH1 0x24 DUP4 PUSH2 0x1CE1 JUMP JUMPDEST SWAP2 POP PUSH2 0x2215 DUP3 PUSH2 0x21B0 JUMP JUMPDEST PUSH1 0x40 DUP3 ADD SWAP1 POP SWAP2 SWAP1 POP JUMP JUMPDEST PUSH0 PUSH1 0x20 DUP3 ADD SWAP1 POP DUP2 DUP2 SUB PUSH0 DUP4 ADD MSTORE PUSH2 0x2237 DUP2 PUSH2 0x21FE JUMP JUMPDEST SWAP1 POP SWAP2 SWAP1 POP JUMP JUMPDEST PUSH32 0x496E76616C6964206F7220756E766572696669656420646F63746F7200000000 PUSH0 DUP3 ADD MSTORE POP JUMP JUMPDEST PUSH0 PUSH2 0x2272 PUSH1 0x1C DUP4 PUSH2 0x1CE1 JUMP JUMPDEST SWAP2 POP PUSH2 0x227D DUP3 PUSH2 0x223E JUMP JUMPDEST PUSH1 0x20 DUP3 ADD SWAP1 POP SWAP2 SWAP1 POP JUMP JUMPDEST PUSH0 PUSH1 0x20 DUP3 ADD SWAP1 POP DUP2 DUP2 SUB PUSH0 DUP4 ADD MSTORE PUSH2 0x229F DUP2 PUSH2 0x2266 JUMP JUMPDEST SWAP1 POP SWAP2 SWAP1 POP JUMP JUMPDEST PUSH32 0x4E487B7100000000000000000000000000000000000000000000000000000000 PUSH0 MSTORE PUSH1 0x32 PUSH1 0x4 MSTORE PUSH1 0x24 PUSH0 REVERT JUMPDEST PUSH32 0x446F63746F7220616C7265616479206861732061636365737300000000000000 PUSH0 DUP3 ADD MSTORE POP JUMP JUMPDEST PUSH0 PUSH2 0x2307 PUSH1 0x19 DUP4 PUSH2 0x1CE1 JUMP JUMPDEST SWAP2 POP PUSH2 0x2312 DUP3 PUSH2 0x22D3 JUMP JUMPDEST PUSH1 0x20 DUP3 ADD SWAP1 POP SWAP2 SWAP1 POP JUMP JUMPDEST PUSH0 PUSH1 0x20 DUP3 ADD SWAP1 POP DUP2 DUP2 SUB PUSH0 DUP4 ADD MSTORE PUSH2 0x2334 DUP2 PUSH2 0x22FB JUMP JUMPDEST SWAP1 POP SWAP2 SWAP1 POP JUMP JUMPDEST PUSH32 0x4F6E6C7920766572696669656420646F63746F72732063616E2063616C6C2074 PUSH0 DUP3 ADD MSTORE PUSH32 0x6869732066756E6374696F6E0000000000000000000000000000000000000000 PUSH1 0x20 DUP3 ADD MSTORE POP JUMP JUMPDEST PUSH0 PUSH2 0x2395 PUSH1 0x2C DUP4 PUSH2 0x1CE1 JUMP JUMPDEST SWAP2 POP PUSH2 0x23A0 DUP3 PUSH2 0x233B JUMP JUMPDEST PUSH1 0x40 DUP3 ADD SWAP1 POP SWAP2 SWAP1 POP JUMP JUMPDEST PUSH0 PUSH1 0x20 DUP3 ADD SWAP1 POP DUP2 DUP2 SUB PUSH0 DUP4 ADD MSTORE PUSH2 0x23C2 DUP2 PUSH2 0x2389 JUMP JUMPDEST SWAP1 POP SWAP2 SWAP1 POP JUMP JUMPDEST PUSH32 0x496E76616C69642070617469656E742061646472657373000000000000000000 PUSH0 DUP3 ADD MSTORE POP JUMP JUMPDEST PUSH0 PUSH2 0x23FD PUSH1 0x17 DUP4 PUSH2 0x1CE1 JUMP JUMPDEST SWAP2 POP PUSH2 0x2408 DUP3 PUSH2 0x23C9 JUMP JUMPDEST PUSH1 0x20 DUP3 ADD SWAP1 POP SWAP2 SWAP1 POP JUMP JUMPDEST PUSH0 PUSH1 0x20 DUP3 ADD SWAP1 POP DUP2 DUP2 SUB PUSH0 DUP4 ADD MSTORE PUSH2 0x242A DUP2 PUSH2 0x23F1 JUMP JUMPDEST SWAP1 POP SWAP2 SWAP1 POP JUMP JUMPDEST PUSH32 0x4E487B7100000000000000000000000000000000000000000000000000000000 PUSH0 MSTORE PUSH1 0x22 PUSH1 0x4 MSTORE PUSH1 0x24 PUSH0 REVERT JUMPDEST PUSH0 PUSH1 0x2 DUP3 DIV SWAP1 POP PUSH1 0x1 DUP3 AND DUP1 PUSH2 0x2475 JUMPI PUSH1 0x7F DUP3 AND SWAP2 POP JUMPDEST PUSH1 0x20 DUP3 LT DUP2 SUB PUSH2 0x2488 JUMPI PUSH2 0x2487 PUSH2 0x2431 JUMP JUMPDEST JUMPDEST POP SWAP2 SWAP1 POP JUMP JUMPDEST PUSH0 DUP2 SWAP1 POP DUP2 PUSH0 MSTORE PUSH1 0x20 PUSH0 KECCAK256 SWAP1 POP SWAP2 SWAP1 POP JUMP JUMPDEST PUSH0 PUSH1 0x20 PUSH1 0x1F DUP4 ADD DIV SWAP1 POP SWAP2 SWAP1 POP JUMP JUMPDEST PUSH0 DUP3 DUP3 SHL SWAP1 POP SWAP3 SWAP2 POP POP JUMP JUMPDEST PUSH0 PUSH1 0x8 DUP4 MUL PUSH2 0x24EA PUSH32 0xFFFFFFFFFFFFFFFFFFFFFFFFFFFFFFFFFFFFFFFFFFFFFFFFFFFFFFFFFFFFFFFF DUP3 PUSH2 0x24AF JUMP JUMPDEST PUSH2 0x24F4 DUP7 DUP4 PUSH2 0x24AF JUMP JUMPDEST SWAP6 POP DUP1 NOT DUP5 AND SWAP4 POP DUP1 DUP7 AND DUP5 OR SWAP3 POP POP POP SWAP4 SWAP3 POP POP POP JUMP JUMPDEST PUSH0 DUP2 SWAP1 POP SWAP2 SWAP1 POP JUMP JUMPDEST PUSH0 PUSH2 0x252F PUSH2 0x252A PUSH2 0x2525 DUP5 PUSH2 0x1E10 JUMP JUMPDEST PUSH2 0x250C JUMP JUMPDEST PUSH2 0x1E10 JUMP JUMPDEST SWAP1 POP SWAP2 SWAP1 POP JUMP JUMPDEST PUSH0 DUP2 SWAP1 POP SWAP2 SWAP1 POP JUMP JUMPDEST PUSH2 0x2548 DUP4 PUSH2 0x2515 JUMP JUMPDEST PUSH2 0x255C PUSH2 0x2554 DUP3 PUSH2 0x2536 JUMP JUMPDEST DUP5 DUP5 SLOAD PUSH2 0x24BB JUMP JUMPDEST DUP3 SSTORE POP POP POP POP JUMP JUMPDEST PUSH0 PUSH0 SWAP1 POP SWAP1 JUMP JUMPDEST PUSH2 0x2573 PUSH2 0x2564 JUMP JUMPDEST PUSH2 0x257E DUP2 DUP5 DUP5 PUSH2 0x253F JUMP JUMPDEST POP POP POP JUMP JUMPDEST JUMPDEST DUP2 DUP2 LT ISZERO PUSH2 0x25A1 JUMPI PUSH2 0x2596 PUSH0 DUP3 PUSH2 0x256B JUMP JUMPDEST PUSH1 0x1 DUP2 ADD SWAP1 POP PUSH2 0x2584 JUMP JUMPDEST POP POP JUMP JUMPDEST PUSH1 0x1F DUP3 GT ISZERO PUSH2 0x25E6 JUMPI PUSH2 0x25B7 DUP2 PUSH2 0x248E JUMP JUMPDEST PUSH2 0x25C0 DUP5 PUSH2 0x24A0 JUMP JUMPDEST DUP2 ADD PUSH1 0x20 DUP6 LT ISZERO PUSH2 0x25CF JUMPI DUP2 SWAP1 POP JUMPDEST PUSH2 0x25E3 PUSH2 0x25DB DUP6 PUSH2 0x24A0 JUMP JUMPDEST DUP4 ADD DUP3 PUSH2 0x2583 JUMP JUMPDEST POP POP JUMPDEST POP POP POP JUMP JUMPDEST PUSH0 DUP3 DUP3 SHR SWAP1 POP SWAP3 SWAP2 POP POP JUMP JUMPDEST PUSH0 PUSH2 0x2606 PUSH0 NOT DUP5 PUSH1 0x8 MUL PUSH2 0x25EB JUMP JUMPDEST NOT DUP1 DUP4 AND SWAP2 POP POP SWAP3 SWAP2 POP POP JUMP JUMPDEST PUSH0 PUSH2 0x261E DUP4 DUP4 PUSH2 0x25F7 JUMP JUMPDEST SWAP2 POP DUP3 PUSH1 0x2 MUL DUP3 OR SWAP1 POP SWAP3 SWAP2 POP POP JUMP JUMPDEST PUSH2 0x2637 DUP3 PUSH2 0x1CD7 JUMP JUMPDEST PUSH8 0xFFFFFFFFFFFFFFFF DUP2 GT ISZERO PUSH2 0x2650 JUMPI PUSH2 0x264F PUSH2 0x1A7E JUMP JUMPDEST JUMPDEST PUSH2 0x265A DUP3 SLOAD PUSH2 0x245E JUMP JUMPDEST PUSH2 0x2665 DUP3 DUP3 DUP6 PUSH2 0x25A5 JUMP JUMPDEST PUSH0 PUSH1 0x20 SWAP1 POP PUSH1 0x1F DUP4 GT PUSH1 0x1 DUP2 EQ PUSH2 0x2696 JUMPI PUSH0 DUP5 ISZERO PUSH2 0x2684 JUMPI DUP3 DUP8 ADD MLOAD SWAP1 POP JUMPDEST PUSH2 0x268E DUP6 DUP3 PUSH2 0x2613 JUMP JUMPDEST DUP7 SSTORE POP PUSH2 0x26F5 JUMP JUMPDEST PUSH1 0x1F NOT DUP5 AND PUSH2 0x26A4 DUP7 PUSH2 0x248E JUMP JUMPDEST PUSH0 JUMPDEST DUP3 DUP2 LT ISZERO PUSH2 0x26CB JUMPI DUP5 DUP10 ADD MLOAD DUP3 SSTORE PUSH1 0x1 DUP3 ADD SWAP2 POP PUSH1 0x20 DUP6 ADD SWAP5 POP PUSH1 0x20 DUP2 ADD SWAP1 POP PUSH2 0x26A6 JUMP JUMPDEST DUP7 DUP4 LT ISZERO PUSH2 0x26E8 JUMPI DUP5 DUP10 ADD MLOAD PUSH2 0x26E4 PUSH1 0x1F DUP10 AND DUP3 PUSH2 0x25F7 JUMP JUMPDEST DUP4 SSTORE POP JUMPDEST PUSH1 0x1 PUSH1 0x2 DUP9 MUL ADD DUP9 SSTORE POP POP POP JUMPDEST POP POP POP POP POP POP JUMP JUMPDEST PUSH0 PUSH1 0x20 DUP3 ADD SWAP1 POP DUP2 DUP2 SUB PUSH0 DUP4 ADD MSTORE PUSH2 0x2715 DUP2 DUP5 PUSH2 0x1CFF JUMP JUMPDEST SWAP1 POP SWAP3 SWAP2 POP POP JUMP JUMPDEST PUSH32 0x5573657220616C72656164792072656769737465726564000000000000000000 PUSH0 DUP3 ADD MSTORE POP JUMP JUMPDEST PUSH0 PUSH2 0x2751 PUSH1 0x17 DUP4 PUSH2 0x1CE1 JUMP JUMPDEST SWAP2 POP PUSH2 0x275C DUP3 PUSH2 0x271D JUMP JUMPDEST PUSH1 0x20 DUP3 ADD SWAP1 POP SWAP2 SWAP1 POP JUMP JUMPDEST PUSH0 PUSH1 0x20 DUP3 ADD SWAP1 POP DUP2 DUP2 SUB PUSH0 DUP4 ADD MSTORE PUSH2 0x277E DUP2 PUSH2 0x2745 JUMP JUMPDEST SWAP1 POP SWAP2 SWAP1 POP JUMP JUMPDEST PUSH32 0x496E76616C696420726F6C650000000000000000000000000000000000000000 PUSH0 DUP3 ADD MSTORE POP JUMP JUMPDEST PUSH0 PUSH2 0x27B9 PUSH1 0xC DUP4 PUSH2 0x1CE1 JUMP JUMPDEST SWAP2 POP PUSH2 0x27C4 DUP3 PUSH2 0x2785 JUMP JUMPDEST PUSH1 0x20 DUP3 ADD SWAP1 POP SWAP2 SWAP1 POP JUMP JUMPDEST PUSH0 PUSH1 0x20 DUP3 ADD SWAP1 POP DUP2 DUP2 SUB PUSH0 DUP4 ADD MSTORE PUSH2 0x27E6 DUP2 PUSH2 0x27AD JUMP JUMPDEST SWAP1 POP SWAP2 SWAP1 POP JUMP JUMPDEST PUSH0 PUSH1 0x40 DUP3 ADD SWAP1 POP PUSH2 0x2800 PUSH0 DUP4 ADD DUP6 PUSH2 0x1D9B JUMP JUMPDEST DUP2 DUP2 SUB PUSH1 0x20 DUP4 ADD MSTORE PUSH2 0x2812 DUP2 DUP5 PUSH2 0x1CFF JUMP JUMPDEST SWAP1 POP SWAP4 SWAP3 POP POP POP JUMP JUMPDEST PUSH32 0x4F6E6C792070617469656E742063616E20766965772074686569722061636365 PUSH0 DUP3 ADD MSTORE PUSH32 0x7373206C69737400000000000000000000000000000000000000000000000000 PUSH1 0x20 DUP3 ADD MSTORE POP JUMP JUMPDEST PUSH0 PUSH2 0x2875 PUSH1 0x27 DUP4 PUSH2 0x1CE1 JUMP JUMPDEST SWAP2 POP PUSH2 0x2880 DUP3 PUSH2 0x281B JUMP JUMPDEST PUSH1 0x40 DUP3 ADD SWAP1 POP SWAP2 SWAP1 POP JUMP JUMPDEST PUSH0 PUSH1 0x20 DUP3 ADD SWAP1 POP DUP2 DUP2 SUB PUSH0 DUP4 ADD MSTORE PUSH2 0x28A2 DUP2 PUSH2 0x2869 JUMP JUMPDEST SWAP1 POP SWAP2 SWAP1 POP JUMP JUMPDEST PUSH32 0x4E6F2061636365737320746F206D65646963616C207265636F72647300000000 PUSH0 DUP3 ADD MSTORE POP JUMP JUMPDEST PUSH0 PUSH2 0x28DD PUSH1 0x1C DUP4 PUSH2 0x1CE1 JUMP JUMPDEST SWAP2 POP PUSH2 0x28E8 DUP3 PUSH2 0x28A9 JUMP JUMPDEST PUSH1 0x20 DUP3 ADD SWAP1 POP SWAP2 SWAP1 POP JUMP JUMPDEST PUSH0 PUSH1 0x20 DUP3 ADD SWAP1 POP DUP2 DUP2 SUB PUSH0 DUP4 ADD MSTORE PUSH2 0x290A DUP2 PUSH2 0x28D1 JUMP JUMPDEST SWAP1 POP SWAP2 SWAP1 POP JUMP JUMPDEST PUSH32 0x4F6E6C792061646D696E2063616E2063616C6C20746869732066756E6374696F PUSH0 DUP3 ADD MSTORE PUSH32 0x6E00000000000000000000000000000000000000000000000000000000000000 PUSH1 0x20 DUP3 ADD MSTORE POP JUMP JUMPDEST PUSH0 PUSH2 0x296B PUSH1 0x21 DUP4 PUSH2 0x1CE1 JUMP JUMPDEST SWAP2 POP PUSH2 0x2976 DUP3 PUSH2 0x2911 JUMP JUMPDEST PUSH1 0x40 DUP3 ADD SWAP1 POP SWAP2 SWAP1 POP JUMP JUMPDEST PUSH0 PUSH1 0x20 DUP3 ADD SWAP1 POP DUP2 DUP2 SUB PUSH0 DUP4 ADD MSTORE PUSH2 0x2998 DUP2 PUSH2 0x295F JUMP JUMPDEST SWAP1 POP SWAP2 SWAP1 POP JUMP JUMPDEST PUSH32 0x55736572206973206E6F74206120646F63746F72000000000000000000000000 PUSH0 DUP3 ADD MSTORE POP JUMP JUMPDEST PUSH0 PUSH2 0x29D3 PUSH1 0x14 DUP4 PUSH2 0x1CE1 JUMP JUMPDEST SWAP2 POP PUSH2 0x29DE DUP3 PUSH2 0x299F JUMP JUMPDEST PUSH1 0x20 DUP3 ADD SWAP1 POP SWAP2 SWAP1 POP JUMP JUMPDEST PUSH0 PUSH1 0x20 DUP3 ADD SWAP1 POP DUP2 DUP2 SUB PUSH0 DUP4 ADD MSTORE PUSH2 0x2A00 DUP2 PUSH2 0x29C7 JUMP JUMPDEST SWAP1 POP SWAP2 SWAP1 POP JUMP JUMPDEST PUSH32 0x446F63746F7220616C7265616479207665726966696564000000000000000000 PUSH0 DUP3 ADD MSTORE POP JUMP JUMPDEST PUSH0 PUSH2 0x2A3B PUSH1 0x17 DUP4 PUSH2 0x1CE1 JUMP JUMPDEST SWAP2 POP PUSH2 0x2A46 DUP3 PUSH2 0x2A07 JUMP JUMPDEST PUSH1 0x20 DUP3 ADD SWAP1 POP SWAP2 SWAP1 POP JUMP JUMPDEST PUSH0 PUSH1 0x20 DUP3 ADD SWAP1 POP DUP2 DUP2 SUB PUSH0 DUP4 ADD MSTORE PUSH2 0x2A68 DUP2 PUSH2 0x2A2F JUMP JUMPDEST SWAP1 POP SWAP2 SWAP1 POP JUMP INVALID LOG2 PUSH5 0x6970667358 0x22 SLT KECCAK256 0xAB MOD BLOBBASEFEE MSTORE8 PUSH22 0x4E0E0555F962385AEEF212F67D9C6065770B9A95697F AND BLOCKHASH SWAP5 XOR 0xC8 PUSH5 0x736F6C6343 STOP ADDMOD 0x1E STOP CALLER "
				},
				"gasEstimates": {
					"creation": {
						"codeDepositCost": "2183400",
						"executionCost": "26593",
						"totalCost": "2209993"
					},
					"external": {
						"accessList(address,uint256)": "infinite",
						"addMedicalRecord(address,string)": "infinite",
						"admin()": "2617",
						"getAccessList(address)": "infinite",
						"getMedicalRecords(address)": "infinite",
						"getUser(address)": "infinite",
						"grantAccess(address)": "infinite",
						"hasAccess(address,address)": "infinite",
						"medicalRecords(address,uint256)": "infinite",
						"register(string,string,uint8,string)": "infinite",
						"users(address)": "infinite",
						"verifyDoctor(address)": "32878"
					}
				},
				"methodIdentifiers": {
					"accessList(address,uint256)": "70c2b419",
					"addMedicalRecord(address,string)": "3a9b131c",
					"admin()": "f851a440",
					"getAccessList(address)": "80efcb3c",
					"getMedicalRecords(address)": "afd8297c",
					"getUser(address)": "6f77926b",
					"grantAccess(address)": "0ae5e739",
					"hasAccess(address,address)": "1709ef07",
					"medicalRecords(address,uint256)": "97678a03",
					"register(string,string,uint8,string)": "68ce4afd",
					"users(address)": "a87430ba",
					"verifyDoctor(address)": "d80cb05c"
				}
			},
			"storageLayout": {
				"storage": [
					{
						"astId": 26,
						"contract": "contracts/Healthcare.sol:Healthcare",
						"label": "admin",
						"offset": 0,
						"slot": "0",
						"type": "t_address"
					},
					{
						"astId": 31,
						"contract": "contracts/Healthcare.sol:Healthcare",
						"label": "users",
						"offset": 0,
						"slot": "1",
						"type": "t_mapping(t_address,t_struct(User)17_storage)"
					},
					{
						"astId": 37,
						"contract": "contracts/Healthcare.sol:Healthcare",
						"label": "medicalRecords",
						"offset": 0,
						"slot": "2",
						"type": "t_mapping(t_address,t_array(t_struct(MedicalRecord)24_storage)dyn_storage)"
					},
					{
						"astId": 42,
						"contract": "contracts/Healthcare.sol:Healthcare",
						"label": "accessList",
						"offset": 0,
						"slot": "3",
						"type": "t_mapping(t_address,t_array(t_address)dyn_storage)"
					}
				],
				"types": {
					"t_address": {
						"encoding": "inplace",
						"label": "address",
						"numberOfBytes": "20"
					},
					"t_array(t_address)dyn_storage": {
						"base": "t_address",
						"encoding": "dynamic_array",
						"label": "address[]",
						"numberOfBytes": "32"
					},
					"t_array(t_struct(MedicalRecord)24_storage)dyn_storage": {
						"base": "t_struct(MedicalRecord)24_storage",
						"encoding": "dynamic_array",
						"label": "struct Healthcare.MedicalRecord[]",
						"numberOfBytes": "32"
					},
					"t_bool": {
						"encoding": "inplace",
						"label": "bool",
						"numberOfBytes": "1"
					},
					"t_enum(Role)5": {
						"encoding": "inplace",
						"label": "enum Healthcare.Role",
						"numberOfBytes": "1"
					},
					"t_mapping(t_address,t_array(t_address)dyn_storage)": {
						"encoding": "mapping",
						"key": "t_address",
						"label": "mapping(address => address[])",
						"numberOfBytes": "32",
						"value": "t_array(t_address)dyn_storage"
					},
					"t_mapping(t_address,t_array(t_struct(MedicalRecord)24_storage)dyn_storage)": {
						"encoding": "mapping",
						"key": "t_address",
						"label": "mapping(address => struct Healthcare.MedicalRecord[])",
						"numberOfBytes": "32",
						"value": "t_array(t_struct(MedicalRecord)24_storage)dyn_storage"
					},
					"t_mapping(t_address,t_struct(User)17_storage)": {
						"encoding": "mapping",
						"key": "t_address",
						"label": "mapping(address => struct Healthcare.User)",
						"numberOfBytes": "32",
						"value": "t_struct(User)17_storage"
					},
					"t_string_storage": {
						"encoding": "bytes",
						"label": "string",
						"numberOfBytes": "32"
					},
					"t_struct(MedicalRecord)24_storage": {
						"encoding": "inplace",
						"label": "struct Healthcare.MedicalRecord",
						"members": [
							{
								"astId": 19,
								"contract": "contracts/Healthcare.sol:Healthcare",
								"label": "ipfsHash",
								"offset": 0,
								"slot": "0",
								"type": "t_string_storage"
							},
							{
								"astId": 21,
								"contract": "contracts/Healthcare.sol:Healthcare",
								"label": "doctor",
								"offset": 0,
								"slot": "1",
								"type": "t_address"
							},
							{
								"astId": 23,
								"contract": "contracts/Healthcare.sol:Healthcare",
								"label": "timestamp",
								"offset": 0,
								"slot": "2",
								"type": "t_uint256"
							}
						],
						"numberOfBytes": "96"
					},
					"t_struct(User)17_storage": {
						"encoding": "inplace",
						"label": "struct Healthcare.User",
						"members": [
							{
								"astId": 8,
								"contract": "contracts/Healthcare.sol:Healthcare",
								"label": "role",
								"offset": 0,
								"slot": "0",
								"type": "t_enum(Role)5"
							},
							{
								"astId": 10,
								"contract": "contracts/Healthcare.sol:Healthcare",
								"label": "isVerified",
								"offset": 1,
								"slot": "0",
								"type": "t_bool"
							},
							{
								"astId": 12,
								"contract": "contracts/Healthcare.sol:Healthcare",
								"label": "ipfsHash",
								"offset": 0,
								"slot": "1",
								"type": "t_string_storage"
							},
							{
								"astId": 14,
								"contract": "contracts/Healthcare.sol:Healthcare",
								"label": "fullName",
								"offset": 0,
								"slot": "2",
								"type": "t_string_storage"
							},
							{
								"astId": 16,
								"contract": "contracts/Healthcare.sol:Healthcare",
								"label": "email",
								"offset": 0,
								"slot": "3",
								"type": "t_string_storage"
							}
						],
						"numberOfBytes": "128"
					},
					"t_uint256": {
						"encoding": "inplace",
						"label": "uint256",
						"numberOfBytes": "32"
					}
				}
			},
			"userdoc": {
				"kind": "user",
				"methods": {},
				"version": 1
			}
		}
	}
}